:020000040800F2
:1000000000000320E5190008A5180008A71800083B
:10001000A9180008AB180008AD180008000000007F
:100020000000000000000000000000006133000834
:10003000AF18000800000000013400086534000813
:10004000351A0008351A0008351A0008351A000854
:10005000351A0008351A0008351A0008351A000844
:10006000351A0008351A0008351A0008351A000834
:10007000351A0008351A0008351A0008351A000824
:10008000351A0008351A0008351A0008351A000814
:10009000351A0008351A0008351A0008351A000804
:1000A000351A0008B1180008351A0008351A00087A
:1000B000351A0008351A0008351A0008351A0008E4
:1000C000351A0008351A0008351A0008351A0008D4
:1000D000351A0008351A0008351A0008351A0008C4
:1000E000351A0008351A0008351A0008351A0008B4
:1000F000351A0008351A0008351A0008351A0008A4
:10010000351A0008351A0008351A0008351A000893
:10011000351A0008351A0008351A0008351A000883
:10012000351A0008351A0008351A0008351A000873
:10013000351A0008351A0008351A0008351A000863
:10014000351A0008351A0008351A0008351A000853
:10015000351A0008351A0008351A0008351A000843
:10016000351A0008351A0008351A0008351A000833
:10017000351A0008351A0008351A0008000000007A
:10018000351A0008351A0008351A0008351A000813
:10019000351A0008351A0008351A0008351A000803
:0C01A000351A0008351A0008351A00084E
:1001C00010B5054C237833B9044B13B10448AFF391
:1001D00000800123237010BDC00900200000000032
:1001E000C8AD000808B5034B1BB103490348AFF382
:1001F000008008BD00000000C4090020C8AD000850
:1002000053B94AB9002908BF00281CBF4FF0FF317D
:100210004FF0FF3000F074B9ADF1080C6DE904CE79
:1002200000F006F8DDF804E0DDE9022304B07047D1
:100230002DE9F047089D04468E46002B4DD18A4299
:10024000944669D9B2FA82F252B101FA02F3C2F1CC
:10025000200120FA01F10CFA02FC41EA030E94405D
:100260004FEA1C48210CBEFBF8F61FFA8CF708FB7E
:1002700016E341EA034306FB07F199420AD91CEB56
:10028000030306F1FF3080F01F81994240F21C8188
:10029000023E63445B1AA4B2B3FBF8F008FB1033D0
:1002A00044EA034400FB07F7A7420AD91CEB040405
:1002B00000F1FF3380F00A81A74240F207816444D5
:1002C000023840EA0640E41B00261DB1D44000235A
:1002D000C5E900433146BDE8F0878B4209D9002DBE
:1002E00000F0EF800026C5E9000130463146BDE848
:1002F000F087B3FA83F6002E4AD18B4202D38242B2
:1003000000F2F980841A61EB030301209E46002D60
:10031000E0D0C5E9004EDDE702B9FFDEB2FA82F2B5
:10032000002A40F09280A1EB0C014FEA1C471FFA13
:100330008CFE0126200CB1FBF7F307FB131140EAFA
:1003400001410EFB03F0884208D91CEB010103F1C7
:10035000FF3802D2884200F2CB804346091AA4B289
:10036000B1FBF7F007FB101144EA01440EFB00FE5D
:10037000A64508D91CEB040400F1FF3102D2A645C2
:1003800000F2BB800846A4EB0E0440EA03409CE761
:10039000C6F12007B34022FA07FC4CEA030C20FA0E
:1003A00007F401FA06F31C43F9404FEA1C4900FA2E
:1003B00006F3B1FBF9F8200C1FFA8CFE09FB1811AB
:1003C00040EA014108FB0EF0884202FA06F20BD91E
:1003D0001CEB010108F1FF3A80F08880884240F26E
:1003E0008580A8F102086144091AA4B2B1FBF9F0B2
:1003F00009FB101144EA014100FB0EFE8E4508D9AD
:100400001CEB010100F1FF346CD28E456AD9023831
:10041000614440EA0840A0FB0294A1EB0E01A14216
:10042000C846A64656D353D05DB1B3EB080261EB84
:100430000E0101FA07F722FA06F3F1401F43C5E95E
:10044000007100263146BDE8F087C2F12003D84094
:100450000CFA02FC21FA03F3914001434FEA1C47D6
:100460001FFA8CFEB3FBF7F007FB10360B0C43EAC8
:10047000064300FB0EF69E4204FA02F408D91CEB78
:10048000030300F1FF382FD29E422DD90238634476
:100490009B1B89B2B3FBF7F607FB163341EA034116
:1004A00006FB0EF38B4208D91CEB010106F1FF3865
:1004B00016D28B4214D9023E6144C91A46EA00465C
:1004C00038E72E46284605E70646E3E61846F8E6EE
:1004D0004B45A9D2B9EB020864EB0C0E0138A3E737
:1004E0004646EAE7204694E74046D1E7D0467BE718
:1004F000023B614432E7304609E76444023842E790
:10050000704700BF844641EA000313F003036DD136
:10051000403A41D351F8043B40F8043B51F8043BC6
:1005200040F8043B51F8043B40F8043B51F8043BCD
:1005300040F8043B51F8043B40F8043B51F8043BBD
:1005400040F8043B51F8043B40F8043B51F8043BAD
:1005500040F8043B51F8043B40F8043B51F8043B9D
:1005600040F8043B51F8043B40F8043B51F8043B8D
:1005700040F8043B51F8043B40F8043B51F8043B7D
:1005800040F8043B51F8043B40F8043B51F8043B6D
:1005900040F8043B403ABDD2303211D351F8043B0D
:1005A00040F8043B51F8043B40F8043B51F8043B4D
:1005B00040F8043B51F8043B40F8043B103AEDD2BC
:1005C0000C3205D351F8043B40F8043B043AF9D20D
:1005D000043208D0D2071CBF11F8013B00F8013BE0
:1005E00001D30B8803806046704700BF082A13D3ED
:1005F0008B078DD010F003038AD0C3F10403D21A05
:10060000DB071CBF11F8013B00F8013B80D331F838
:10061000023B20F8023B7BE7043AD9D3013A11F8B8
:10062000013B00F8013BF9D20B7803704B78437023
:100630008B78837060467047000000000000000067
:1006400001F0FF01102A2BDB10F0070F08D010F883
:10065000013B013A8B422DD010F0070F42B3F6D187
:10066000F0B441EA012141EA014122F007047FF0A0
:1006700000070023F0E80256083C85EA010586EAF7
:10068000010685FA47F5A3FA87F586FA47F6A5FA33
:1006900087F68EB9EED1F0BC01F0FF0102F007023F
:1006A00032B110F8013B013A83EA010313B1F8D1EA
:1006B0000020704701387047002D06BF35460338CB
:1006C000073815F0010F07D1013015F4807F02BF04
:1006D000013015F4C03F0130F0BC0138704700BF55
:1006E000000000000000000000000000000000000A
:1006F00000000000000000000000000000000000FA
:1007000090F800F06DE9024520F007016FF0000C51
:1007100010F0070491F820F040F049804FF00004F9
:100720006FF00700D1E9002391F840F000F10800D4
:1007300082FA4CF2A4FA8CF283FA4CF3A2FA8CF30C
:100740004BBBD1E9022382FA4CF200F10800A4FA73
:100750008CF283FA4CF3A2FA8CF3E3B9D1E90423C7
:1007600082FA4CF200F10800A4FA8CF283FA4CF3FE
:10077000A2FA8CF37BB9D1E9062301F1200182FAB8
:100780004CF200F10800A4FA8CF283FA4CF3A2FABE
:100790008CF3002BC6D0002A04BF04301A4612BACC
:1007A000B2FA82F2FDE8024500EBD2007047D1E9CF
:1007B000002304F00305C4F100004FEAC50514F05E
:1007C000040F91F840F00CFA05F562EA05021CBF2F
:1007D00063EA050362464FF00004A9E781F0004197
:1007E00002E000BF83F0004330B54FEA41044FEA16
:1007F000430594EA050F08BF90EA020F1FBF54EAB1
:10080000000C55EA020C7FEA645C7FEA655C00F04C
:10081000E2804FEA5454D4EB5555B8BF6D420CDD1D
:100820002C4480EA020281EA030382EA000083EAA0
:10083000010180EA020281EA0303362D88BF30BD40
:1008400011F0004F4FEA01314FF4801C4CEA113196
:1008500002D0404261EB410113F0004F4FEA0333F5
:100860004CEA133302D0524263EB430394EA050F80
:1008700000F0A780A4F10104D5F1200E0DDB02FAEF
:100880000EFC22FA05F2801841F1000103FA0EF283
:10089000801843FA05F359410EE0A5F120050EF149
:1008A000200E012A03FA0EFC28BF4CF0020C43FA7A
:1008B00005F3C01851EBE37101F0004507D54FF087
:1008C000000EDCF1000C7EEB00006EEB0101B1F5D7
:1008D000801F1BD3B1F5001F0CD349085FEA30001D
:1008E0004FEA3C0C04F101044FEA445212F5800F28
:1008F00080F09A80BCF1004F08BF5FEA500C50F1C5
:10090000000041EB045141EA050130BD5FEA4C0CA7
:10091000404141EB0101013C28BFB1F5801FE9D204
:1009200091F0000F04BF01460020B1FA81F308BF27
:100930002033A3F10B03B3F120020CDA0C3208DDF3
:1009400002F1140CC2F10C0201FA0CF021FA02F1CE
:100950000CE002F11402D8BFC2F1200C01FA02F13E
:1009600020FA0CFCDCBF41EA0C019040E41AA2BF63
:1009700001EB0451294330BD6FEA04041F3C1CDA2B
:100980000C340EDC04F11404C4F1200220FA04F04B
:1009900001FA02F340EA030021FA04F345EA0301F5
:1009A00030BDC4F10C04C4F1200220FA02F001FAB7
:1009B00004F340EA0300294630BD21FA04F0294639
:1009C00030BD94F0000F83F4801306BF81F48011D2
:1009D0000134013D4EE77FEA645C18BF7FEA655C45
:1009E00029D094EA050F08BF90EA020F05D054EA17
:1009F000000C04BF1946104630BD91EA030F1EBF1C
:100A00000021002030BD5FEA545C05D1400049411F
:100A100028BF41F0004130BD14F580043CBF01F512
:100A2000801130BD01F0004545F0FE4141F47001F8
:100A30004FF0000030BD7FEA645C1ABF19461046D3
:100A40007FEA655C1CBF0B46024650EA013406BFD4
:100A500052EA033591EA030F41F4002130BD00BF93
:100A600090F0000F04BF0021704730B54FF4806450
:100A700004F132044FF000054FF0000150E700BFD1
:100A800090F0000F04BF0021704730B54FF4806430
:100A900004F1320410F0004548BF40424FF000011D
:100AA0003EE700BF42004FEAE2014FEA31014FEA60
:100AB00002701FBF12F07F4393F07F4F81F06051AF
:100AC000704732F07F4208BF704793F07F4F04BFFA
:100AD00041F40021704730B54FF4607401F00045D7
:100AE00021F000411CE700BF50EA010208BF704737
:100AF00030B54FF000050AE050EA010208BF704728
:100B000030B511F0004502D5404261EB41014FF490
:100B1000806404F132045FEA915C3FF4D8AE4FF098
:100B200003025FEADC0C18BF03325FEADC0C18BF7B
:100B3000033202EBDC02C2F1200300FA03FC20FACC
:100B400002F001FA03FE40EA0E0021FA02F1144419
:100B5000BDE600BF70B54FF0FF0C4CF4E06C1CEA32
:100B600011541DBF1CEA135594EA0C0F95EA0C0FA3
:100B700000F0DEF82C4481EA030621EA4C5123EA16
:100B80004C5350EA013518BF52EA033541F4801145
:100B900043F4801338D0A0FB02CE4FF00005E1FBF8
:100BA00002E506F00042E0FB03E54FF00006E1FB42
:100BB00003569CF0000F18BF4EF0010EA4F1FF0485
:100BC000B6F5007F64F5407404D25FEA4E0E6D41C5
:100BD00046EB060642EAC62141EA55514FEAC520D6
:100BE00040EA5E504FEACE2EB4F1FD0C88BFBCF552
:100BF000E06F1ED8BEF1004F08BF5FEA500E50F103
:100C0000000041EB045170BD06F0004646EA0101C8
:100C100040EA020081EA0301B4EB5C04C2BFD4EBFA
:100C20000C0541EA045170BD41F480114FF0000EF3
:100C3000013C00F3AB8014F1360FDEBF002001F061
:100C4000004170BDC4F10004203C35DA0C341BDCDB
:100C500004F11404C4F1200500FA05F320FA04F0AD
:100C600001FA05F240EA020001F0004221F00041E1
:100C700010EBD37021FA04F642EB06015EEA430E54
:100C800008BF20EAD37070BDC4F10C04C4F1200584
:100C900000FA04F320FA05F001FA04F240EA020037
:100CA00001F0004110EBD37041F100015EEA430E08
:100CB00008BF20EAD37070BDC4F1200500FA05F228
:100CC0004EEA020E20FA04F301FA05F243EA0203A7
:100CD00021FA04F001F0004121FA04F220EA0200B6
:100CE00000EBD3705EEA430E08BF20EAD37070BDFC
:100CF00094F0000F0FD101F00046400041EB0101DC
:100D000011F4801F08BF013CF7D041EA060195F0BD
:100D1000000F18BF704703F00046520043EB030377
:100D200013F4801F08BF013DF7D043EA0603704764
:100D300094EA0C0F0CEA135518BF95EA0C0F0CD06F
:100D400050EA410618BF52EA4306D1D181EA0301B5
:100D500001F000414FF0000070BD50EA410606BFAF
:100D60001046194652EA430619D094EA0C0F02D1F4
:100D700050EA013613D195EA0C0F05D152EA033639
:100D80001CBF104619460AD181EA030101F0004157
:100D900041F0FE4141F470014FF0000070BD41F0A0
:100DA000FE4141F4780170BD70B54FF0FF0C4CF47A
:100DB000E06C1CEA11541DBF1CEA135594EA0C0F99
:100DC00095EA0C0F00F0A7F8A4EB050481EA030EE6
:100DD00052EA03354FEA013100F088804FEA0333CD
:100DE0004FF0805545EA131343EA12634FEA02229B
:100DF00045EA111545EA10654FEA00260EF000415C
:100E00009D4208BF964244F1FD0404F5407402D2AD
:100E10005B084FEA3202B61A65EB03055B084FEA3E
:100E200032024FF480104FF4002CB6EB020E75EB3B
:100E3000030E22BFB61A754640EA0C005B084FEA63
:100E40003202B6EB020E75EB030E22BFB61A7546E0
:100E500040EA5C005B084FEA3202B6EB020E75EB2B
:100E6000030E22BFB61A754640EA9C005B084FEAA3
:100E70003202B6EB020E75EB030E22BFB61A7546B0
:100E800040EADC0055EA060E18D04FEA051545EA9F
:100E900016754FEA06164FEAC30343EA52734FEA48
:100EA000C2025FEA1C1CC0D111F4801F0BD141EAC1
:100EB00000014FF000004FF0004CB6E711F4801F26
:100EC00004BF01430020B4F1FD0C88BFBCF5E06F06
:100ED0003FF6AFAEB5EB030C04BFB6EB020C5FEA16
:100EE000500C50F1000041EB045170BD0EF0004E6B
:100EF0004EEA113114EB5C04C2BFD4EB0C0541EA9D
:100F0000045170BD41F480114FF0000E013C90E699
:100F100045EA060E8DE60CEA135594EA0C0F08BF5D
:100F200095EA0C0F3FF43BAF94EA0C0F0AD150EA5C
:100F300001347FF434AF95EA0C0F7FF425AF1046EF
:100F400019462CE795EA0C0F06D152EA03353FF417
:100F5000FDAE1046194622E750EA410618BF52EA94
:100F600043067FF4C5AE50EA41047FF40DAF52EA68
:100F700043057FF4EBAE12E74FF0FF3C06E000BF05
:100F80004FF0010C02E000BF4FF0010C4DF804CD12
:100F90004FEA410C7FEA6C5C4FEA430C18BF7FEAD2
:100FA0006C5C1BD001B050EA410C0CBF52EA430C00
:100FB00091EA030F02BF90EA020F0020704710F180
:100FC000000F91EA030F58BF994208BF90422CBF0F
:100FD000D8176FEAE37040F0010070474FEA410C08
:100FE0007FEA6C5C02D150EA013C07D14FEA430C26
:100FF0007FEA6C5CD6D152EA033CD3D05DF8040B97
:10100000704700BF8446104662468C4619466346C8
:1010100000E000BF01B5FFF7B7FF002848BF10F19F
:10102000000F01BD4DF808EDFFF7F4FF0CBF0120E4
:1010300000205DF808FB00BF4DF808EDFFF7EAFF60
:1010400034BF012000205DF808FB00BF4DF808ED1B
:10105000FFF7E0FF94BF012000205DF808FB00BF10
:101060004DF808EDFFF7CEFF94BF012000205DF89A
:1010700008FB00BF4DF808EDFFF7C4FF34BF0120A7
:1010800000205DF808FB00BF4FEA410C7FEA6C5C72
:1010900002D150EA013C0AD14FEA430C7FEA6C5C72
:1010A00002D152EA033C02D14FF0000070474FF0EA
:1010B000010070474FEA410212F5001215D211D516
:1010C0006FF47873B3EB625212D94FEAC12343F045
:1010D000004343EA505311F0004F23FA02F018BFC7
:1010E000404270474FF00000704750EA013005D190
:1010F00011F0004008BF6FF0004070474FF0000053
:10110000704700BF2DE9F04385B0002003F026FAB8
:101110000446174B186803F021FA0546154B18686A
:1011200003F01CFA0646144B186803F017FA07463A
:10113000124B186803F012FA8046114B186803F03E
:101140000DFA81460F4B186803F008FA0390CDF8AA
:101150000890CDF80480009733462A4621460A4875
:1011600003F046FD41F2883002F037F8CDE700BFCA
:10117000EC090020F0090020E4090020E00900202B
:10118000DC090020E8090020E8AE000808B54FF4AB
:101190007A7002F022F8FAE708B540F6B83002F0AB
:1011A0001CF8FAE738B535E01B4D01224FF4E05149
:1011B000284600F0DEFDC4F57A7003F001FB002242
:1011C0004FF4E051284600F0D4FD204603F0F8FA31
:1011D0000134B4F57A7FE7D3002414E00E4D0022E9
:1011E0004FF4E051284600F0C4FDC4F57A7003F0D6
:1011F000E7FA01224FF4E051284600F0BAFD2046FC
:1012000003F0DEFA0134B4F57A7FE7D341F2883097
:1012100001F0E3FF0024DCE7001C024008B50FE00A
:1012200000224FF400610D4800F0A3FD0FE0012201
:101230004FF40061094800F09CFD142001F0CDFF3F
:101240004FF40051064800F08DFD0128E8D001213F
:10125000044800F087FD0128E9D0EEE7001C0240B9
:10126000000802400000024000B585B00023009352
:101270000193029303939DF803209DF802100948FF
:1012800003F0B6FC9DF801209DF80010064803F01D
:10129000AFFC684603F028FA41F2883001F09DFF68
:1012A000E9E700BF40AF00084CAF000808B50A21CD
:1012B000084603F08FFB4FF47A7001F08EFFF6E7DB
:1012C000034B0360034B0B6040231360704700BF68
:1012D0009C0D00209C0C002030B5B9B0002536953F
:1012E000484B379336A801F07FFF474B1860474CB7
:1012F0000DF1C80C94E80F008CE80F0029466046F9
:1013000001F07DFF424B18600DF1AC0C04F1100EA2
:10131000BEE80F00ACE80F009EE807008CE807006D
:1013200029462BA801F024FF3A4B18600DF1900CD0
:1013300004F12C0EBEE80F00ACE80F009EE8070099
:101340008CE80700294624A801F012FF324B1860F0
:101350000DF1740C04F1480EBEE80F00ACE80F006C
:101360009EE807008CE8070029461DA801F000FF51
:101370002A4B18600DF1580C04F1640EBEE80F0002
:10138000ACE80F009EE807008CE80700294616A885
:1013900001F0EEFE224B18600DF13C0C04F1800EC2
:1013A000BEE80F00ACE80F009EE807008CE80700DD
:1013B00029460FA801F0DCFE1A4B18600DF1200C35
:1013C00004F19C0EBEE80F00ACE80F009EE8070099
:1013D0008CE80700294608A801F0CAFE124B1860E5
:1013E0000DF1040CB8340FCCACE80F0094E8070002
:1013F0008CE80700294601A801F0BAFE0B4B1860E3
:1014000039B030BDF8090020400A0020E0AD0008E6
:10141000F4090020980C0020EC090020F0090020BD
:10142000E4090020E0090020DC090020E809002090
:101430002DE9F0418AB0002405940694079408949D
:10144000099400943A4B1A6B42F010021A631A6B1B
:1014500002F010020092009A01941A6B42F004020A
:101460001A631A6B02F004020192019A02941A6B39
:1014700042F080021A631A6B02F080020292029A12
:1014800003941A6B42F001021A631A6B02F0010214
:101490000392039A04941A6B42F002021A631B6BC4
:1014A00003F002030493049BDFF894802246042196
:1014B000404600F05EFC1F4E22460621304600F0FA
:1014C00058FC1D4F22464FF4E051384600F051FCC5
:1014D00004230593012506950794089405A9404621
:1014E00000F042FB4FF4005305930694079405A9BE
:1014F000124800F039FB05950694079405A930467B
:1015000000F032FB0623059306950794089405A97D
:10151000304600F029FB4FF4E053059306950794FD
:10152000089405A9384600F01FFB0AB0BDE8F08119
:101530000038024000000240001C02400008024047
:101540000010024008B51348134B0360134B43606F
:1015500000238360C3604FF4804202614361836172
:10156000C361036200F00CFC50B90021094800F08F
:10157000E5FC40B90021074800F002FD30B908BD84
:1015800000F052F8F1E700F04FF8F3E700F04CF804
:10159000F5E700BFF00D002000540040A0860100D8
:1015A00030B589B000230393049305930693079302
:1015B0000268144B9A4201D009B030BD0025019554
:1015C000114C236B43F002032363236B03F00203EC
:1015D0000193019BC02303931223049303230693D7
:1015E0000423079303A9094800F0BEFA0295236C6F
:1015F00043F400132364236C03F400130293029B4F
:10160000DAE700BF00540040003802400004024006
:1016100008B50268034B9A4200D008BD00F026FAD4
:10162000FBE700BF0000014072B6FEE700B595B0D1
:101630003022002108A803F089FA002303930493C1
:101640000593069307930193234A116C41F080514F
:101650001164126C02F080520192019A02931F4BA6
:101660001A6842F440421A601B6803F44043029334
:10167000029B012308934FF48033099302230E93B6
:101680004FF480020F920F221092D82211921293DF
:101690000423139308A800F0D3FCB0B900F092FC27
:1016A000A8B90F23039302230493002305934FF457
:1016B000A05306934FF480530793052103A800F02D
:1016C0000DFF30B915B05DF804FBFFF7ADFFFFF774
:1016D000ABFFFFF7A9FF00BF0038024000700040D9
:1016E00008B500F0A9F9FFF7A1FFFFF7A1FE00F090
:1016F00025F9FFF727FF00F00FF8064803F08CF9F3
:1017000003F098F803F011F9FFF7E6FD01F02BFD67
:10171000FEE700BFE80E002008B50D480D4B036042
:101720004FF48273436000238360C36003614361AD
:101730004FF400728261C3610362436283620A23D1
:10174000C36201F05DF800B908BDFFF76DFFFBE76C
:10175000440E00200030014000B589B000230393FF
:1017600004930593069307930268154B9A4202D09F
:1017700009B05DF804FB0021019103F584335A6C34
:1017800042F480525A645A6C02F480520192019AD7
:1017900002911A6B42F001021A631B6B03F0010302
:1017A0000293029BA0230393022304930323069333
:1017B0000523079303A9034800F0D6F9D8E700BF33
:1017C000003001400000024000B583B000220092CA
:1017D0000D4B596C41F480415964596C01F48041BE
:1017E000009100990192196C41F0805119641B6CB1
:1017F00003F080530193019B0F216FF0010000F073
:101800006DF903B05DF804FB0038024030B589B0D3
:101810000546002401941E4B5A6C42F001025A64A2
:101820005B6C03F001030193019B02A903A800F084
:101830002BFF00F019FF43001648A0FB03239B0C6D
:10184000013B1548154A026040F2E732C26043602E
:1018500004618460846101F079FA044610B1204685
:1018600009B030BD0C4801F007F904460028F6D154
:10187000192000F06BF90F2D01D90124EFE70022A8
:101880002946192000F02AF9054B1D60E7E700BF43
:101890000038024083DE1B439C0E00200000014004
:1018A00008000020FEE7FEE7FEE7FEE7FEE77047E0
:1018B00008B5024801F028F908BD00BF9C0E0020C1
:1018C0000120704708B503F017F9162303604FF0A5
:1018D000FF3008BD08B54FF0FF31FFF7F3FFFEE71B
:1018E00010B503460C4A0D490D48006840B10C483C
:1018F00000680344521A934206D8094A136010BD87
:101900000748084C0460F2E703F0F6F80C23036084
:101910004FF0FF30F3E700BF000003200004000099
:10192000E40E0020D04C0020034AD2F8883043F463
:101930007003C2F88830704700ED00E008B50A482F
:101940000A4B03604FF4E133436000238360C360BC
:1019500003610C2242618361C36101F0F1FA00B9B5
:1019600008BDFFF761FEFBE7E80E00200010014014
:1019700000B589B00023039304930593069307935E
:10198000026803F1804303F588339A4202D009B01C
:101990005DF804FB0021019103F594335A6C42F089
:1019A00010025A645A6C02F010020192019A0291DC
:1019B0001A6B42F001021A631B6B03F001030293DE
:1019C000029B4FF4C0630393022304930323069303
:1019D0000723079303A9024800F0C6F8D7E700BF22
:1019E00000000240DFF834D00D480E490E4A0023B3
:1019F00002E0D458C4500433C4188C42F9D30B4AC3
:101A00000B4C002301E013600432A242FBD3FFF72A
:101A10008BFF03F077F8FFF763FE704700000320A9
:101A200000000020C0090020FCB30008C00900200D
:101A3000D04C0020FEE7000008B50B4B1A6842F4BA
:101A400000721A601A6842F480621A601A6842F4DE
:101A500080721A60032000F02FF80F20FFF7D6FEE7
:101A6000FFF7B2FE002008BD003C0240034A1168A7
:101A7000034B1B780B441360704700BF2C0F0020F2
:101A800004000020014B1868704700BF2C0F002095
:101A900038B50446FFF7F6FF0546B4F1FF3F02D024
:101AA000044B1B781C44FFF7EDFF401BA042FAD308
:101AB00038BD00BF04000020074AD36823F4E06368
:101AC0001B041B0C000200F4E060034343F0BF63FF
:101AD00043F40033D360704700ED00E000B5194BCC
:101AE000DB68C3F30223C3F1070CBCF1040F28BF6A
:101AF0004FF0040C03F1040EBEF1060F18D9033B9E
:101B00004FF0FF3E0EFA0CFC21EA0C0199400EFA50
:101B100003F322EA0303194300280BDB0901C9B2CE
:101B200000F1604000F5614080F800135DF804FBAF
:101B30000023E5E700F00F000901C9B2024B195478
:101B4000F4E700BF00ED00E014ED00E0002807DB43
:101B500000F01F02400901239340024A42F820305E
:101B6000704700BF00E100E000230F2B00F2F1807E
:101B700070B582B061E085685E000324B44025EA58
:101B80000405CC68B4402C438460456825EA02050E
:101B90004C68C4F300129A402A4342605BE0DC08C0
:101BA000083450F8246003F0070295000F22AA4081
:101BB00026EA020E0A69AA4042EA0E0240F82420F0
:101BC0005DE0092200E0002202FA0EF22A4302340C
:101BD000604D45F82420604A94686FEA0C0224EABC
:101BE0000C054E6816F4801F01D04CEA04055A4CCF
:101BF000A560E46802EA04054E6816F4001F01D0EF
:101C00004CEA0405544CE560646802EA04054E6839
:101C100016F4003F01D04CEA04054F4C656024687F
:101C200022404D6815F4803F01D04CEA04024A4C32
:101C3000226001330F2B00F28A8001229A400C6847
:101C400004EA020C32EA0404F3D14C6804F0030401
:101C5000013C012C8FD94A6802F00302032A09D003
:101C6000C4685D000322AA4024EA02048A68AA40EC
:101C70002243C2604A6802F00302022A8FD004683D
:101C80004FEA430E032202FA0EF224EA02044A68E3
:101C900002F0030202FA0EF2224302604A6812F4D2
:101CA000403FC6D0002201922C4A546C44F4804438
:101CB0005464526C02F480420192019A9C08A51C63
:101CC000244A52F8255003F003024FEA820E0F22F5
:101CD00002FA0EF225EA0205214A90423FF473AF60
:101CE00002F58062904222D002F58062904220D0BC
:101CF00002F5806290421ED002F5806290421CD0B4
:101D000002F5806290421AD002F58062904218D0AB
:101D100002F58062904216D002F58062904214D0A3
:101D200002F5806290423FF44CAF0A224CE7012258
:101D30004AE7022248E7032246E7042244E7052255
:101D400042E7062240E707223EE708223CE702B0CE
:101D500070BD704700380140003C0140003802402F
:101D6000000002400369194201D0012070470020A1
:101D700070470AB1816170470904816170470000B2
:101D8000002800F0CC8070B5044690F83D30002B60
:101D900077D0242384F83D302268136823F00103B0
:101DA00013602268136843F40043136022681368C9
:101DB00023F40043136000F047FC62685A4B9A42D8
:101DC00064D85A4B98428CBF00230123002B40F06B
:101DD000A8805749A1FB00318B0C25686A6822F066
:101DE0003F0242EA91426A6021680A6A22F03F0299
:101DF00066684D4DAE424FD8013313430B622168E4
:101E0000CA6922F44F4222F0FF026668464B9E42A6
:101E10004CD8431E7600B3FBF6F3013340F6FC705A
:101E2000034278D0C3F30B031343CB6121680B68E3
:101E300023F0C003E269206A024313430B60216868
:101E40008B6823F4034323F0FF032269E068024315
:101E500013438B602168CB6823F0FF036269A0699C
:101E600002431343CB602268136843F001031360FD
:101E700000202064202384F83D30206384F83E0055
:101E800070BD80F83C30FFF78BFB82E7294B98420E
:101E90008CBF0023012399E74FF4967505FB03F3EC
:101EA000254DA5FB03539B090133A6E7A368BBB9E6
:101EB000451E06EB460CB5FBFCF50135C5F30B05DD
:101EC000B5FA85F56D0945BBC3B9013806EB460384
:101ED000B0FBF3F30133C3F30B0343F40043A3E775
:101EE000451E06EB860C0CEB8C0CB5FBFCF50135A6
:101EF000C5F30B05B5FA85F56D09E4E7013806EB86
:101F0000860303EB8303B0FBF3F30133C3F30B034B
:101F100043F4404388E7042386E7012384E7012054
:101F200070470120ACE700BFA08601007F841E003F
:101F300083DE1B43FF083D00D34D621090F83D3017
:101F4000DBB2202B01D002207047242380F83D30E3
:101F50000268136823F0010313600268536A23F0D8
:101F6000100353620268536A19435162026813688E
:101F700043F001031360202380F83D3000207047B8
:101F800090F83D30DBB2202B01D002207047242393
:101F900080F83D300268136823F001031360026883
:101FA000536A9BB223F00F03194389B2516202684E
:101FB000136843F001031360202380F83D300020B4
:101FC0007047000010B582B000230193194B1A6CC2
:101FD00042F080521A641B6C03F080530193019B02
:101FE000154B01221A64FFF74DFD0446134B5B6845
:101FF00013F4803F08D1FFF745FD001BB0F57A7F51
:10200000F4D9032002B010BD0B4B01225A64FFF734
:1020100039FD0446094B5B6813F4003F07D1FFF715
:1020200031FD001BB0F57A7FF4D90320EAE70020E8
:10203000E8E700BF0038024000000E420070004098
:10204000002800F0E08170B582B00446036813F008
:10205000010F3BD09F4B9B6803F00C03042B2CD04B
:102060009C4B9B6803F00C03082B21D06368B3F5ED
:10207000803F4FD0B3F5A02F52D0964B1A6822F470
:1020800080321A601A6822F480221A606368002B7A
:1020900050D0FFF7F7FC05468E4B1B6813F4003F4A
:1020A00014D1FFF7EFFC401B6428F5D90320B1E100
:1020B000884B5B6813F4800FD8D0864B1B6813F4F1
:1020C000003F03D06368002B00F09F81236813F06A
:1020D000020F54D07F4B9B6813F00C0F3ED07D4B0A
:1020E0009B6803F00C03082B33D0E368002B68D007
:1020F000794B01221A60FFF7C5FC0546754B1B683A
:1021000013F0020F54D1FFF7BDFC401B0228F5D994
:1021100003207FE16F4A136843F480331360B5E70F
:102120006C4B1A6842F480221A601A6842F48032BA
:102130001A60ABE7FFF7A6FC0546664B1B6813F475
:10214000003FC3D0FFF79EFC401B6428F5D9032055
:1021500060E1604B5B6813F4800FC6D15D4B1B6878
:1021600013F0020F03D0E368012B40F05081594A6D
:10217000136823F0F803216943EAC103136023685D
:1021800013F0080F42D063696BB3534B0122C3F8BD
:10219000802EFFF777FC05464E4B5B6F13F0020F66
:1021A00034D1FFF76FFC401B0228F5D9032031E141
:1021B000484A136823F0F803216943EAC103136016
:1021C000DDE7454B00221A60FFF75CFC0546414BFA
:1021D0001B6813F0020FD2D0FFF754FC401B0228FB
:1021E000F5D9032016E13C4B0022C3F8802EFFF7FF
:1021F00049FC0546374B5B6F13F0020F06D0FFF723
:1022000041FC401B0228F5D9032003E1236813F0A9
:10221000040F77D02F4B1B6C13F0805F33D100235A
:1022200001932C4B1A6C42F080521A641B6C03F021
:1022300080530193019B0125284B1B6813F4807F79
:1022400023D0A368012B34D0052B38D0214B1A6F33
:1022500022F001021A671A6F22F004021A67A368BB
:10226000002B3DD0FFF70EFC06461A4B1B6F13F0F8
:10227000020F46D1FFF706FC801B41F288339842DB
:10228000F3D90320C6E00025D6E7144A136843F4C7
:1022900080731360FFF7F6FB0646104B1B6813F4C0
:1022A000807FCED1FFF7EEFB801B0228F5D90320FB
:1022B000B0E0084A136F43F001031367CFE7054B03
:1022C0001A6F42F004021A671A6F42F001021A678D
:1022D000C5E700BF003802400000474200700040E0
:1022E000FFF7D0FB0646524B1B6F13F0020F08D0CE
:1022F000FFF7C8FB801B41F288339842F3D90320D3
:1023000088E0EDB9A369002B00F08380484A926809
:1023100002F00C02082A51D0022B17D0454B0022A4
:102320001A66FFF7AFFB0446414B1B6813F0007FB2
:1023300042D0FFF7A7FB001B0228F5D9032069E074
:102340003B4A136C23F080531364DBE7394B0022C4
:102350001A66FFF797FB0546354B1B6813F0007FA5
:1023600006D0FFF78FFB401B0228F5D9032051E070
:10237000E369226A1343626A43EA8213A26A52083B
:10238000013A43EA0243E26A43EA0263284A53609D
:10239000284B01221A66FFF775FB0446244B1B6885
:1023A00013F0007F06D1FFF76DFB001B0228F5D963
:1023B00003202FE000202DE000202BE0012B2BD06C
:1023C0001B4B5B6803F48001E269914226D103F064
:1023D0003F02216A8A4223D1616A47F6C0721A40DD
:1023E000B2EB811F1ED103F44031A26A5208013AB8
:1023F000B1EB024F18D103F07063E26AB3EB026FE6
:1024000014D1002006E001207047012002E00120E5
:1024100000E0002002B070BD0120FBE70120F9E7D9
:102420000120F7E70120F5E70120F3E70120F1E7BC
:10243000003802400000474208B5254B9B6803F076
:102440000C03042B3FD0082B3FD1214B5A6802F0DC
:102450003F025B6813F4800F12D01D4B5968C1F323
:1024600088111C480023A1FB0001FDF7C9FE184B91
:102470005B68C3F3014301335B00B0FBF3F025E07D
:10248000134B5968C1F3881C4FEA4C11B1EB0C0097
:102490006EEB0E0E4FEA8E1343EA90638101091A28
:1024A00063EB0E03DB0043EA5173C90011EB0C0C24
:1024B00043F10003990200234FEA8C2041EA9C512A
:1024C000FDF79EFED3E7034800E0034808BD00BFC8
:1024D0000038024040787D010024F400002800F01C
:1024E0009B8070B50D4604464F4B1B6803F00F03ED
:1024F0008B4208D2CBB24C4A1370136803F00F031F
:102500008B4240F08B80236813F0020F17D013F03A
:10251000040F04D0454A936843F4E0539360236862
:1025200013F0080F04D0414A936843F4604393606A
:102530003E4A936823F0F003A1680B43936023683D
:1025400013F0010F32D06368012B21D09A1E012AAB
:1025500025D9364A126812F0020F61D033498A68D1
:1025600022F0030213438B60FFF78CFA06462F4BD1
:102570009B6803F00C036268B3EB820F16D0FFF781
:1025800081FA801B41F288339842F0D9032042E05F
:10259000264A126812F4003FE0D101203BE0234AB2
:1025A000126812F0007FD9D1012034E01E4B1B6865
:1025B00003F00F03AB4207D9EAB21B4B1A701B683A
:1025C00003F00F03AB422DD1236813F0040F06D0A4
:1025D000164A936823F4E053E1680B439360236841
:1025E00013F0080F07D0114A936823F46043216960
:1025F00043EAC1039360FFF71FFF0C4B9B68C3F3D3
:1026000003130B4AD35CD8400A4B18600A4B186876
:10261000FFF7FCF8002070BD012070470120FAE7A9
:102620000120F8E70120F6E7003C024000380240B4
:1026300058AF00080000002008000020014B186877
:10264000704700BF0000002008B5FFF7F7FF044BFC
:102650009B68C3F38223034AD35CD84008BD00BF04
:102660000038024068AF000808B5FFF7E7FF044BE9
:102670009B68C3F34233034AD35CD84008BD00BF14
:102680000038024068AF00080F2303600B4B9A68C4
:1026900002F0030242609A6802F0F00282609A68D7
:1026A00002F4E052C2609B68DB0803F4E05303616C
:1026B000034B1B6803F00F030B60704700380240A8
:1026C000003C02402DE9F04782B005468846174697
:1026D0001E46FFF7D7F90A9B1B1A03EB0609FFF703
:1026E000D1F982462B4B1B68C3F3CB3309FB03F3B1
:1026F00001932B689C6838EA04030CBF4FF0010C6F
:102700004FF0000CBC4540D0B6F1FF3FF1D0FFF7D1
:10271000B9F9A0EB0A0048450AD2B9F1000F07D079
:10272000019A02B14A46019B013B01939146E0E7C1
:102730002A68536823F0E00353606B68B3F5827F27
:102740000BD0AB6AB3F5005F14D0012385F851308C
:10275000002385F85030032018E0AB68B3F5004F34
:1027600002D0B3F5806FECD12A68136823F04003E0
:102770001360E6E72A68136823F4005313602A689D
:10278000136843F400531360DFE7002002B0BDE894
:10279000F08700BF0000002010B584B00446164B3F
:1027A0001868164BA3FB0030400D4FF47A7303FBFF
:1027B00000F003906368B3F5827F0BD0039BBBB13D
:1027C000039B013B039323689B6813F0800FF5D1B3
:1027D00000200EE000920B46002280212046FFF7E9
:1027E00071FF30B1636D43F020036365032000E0A7
:1027F000002004B010BD00BF00000020819F5E16C5
:1028000000285AD010B50446436A33B94368B3F57B
:10281000827F05D00023C36102E00023036143618E
:102820000023A36294F85130002B40D0022384F897
:1028300051302268136823F040031360636803F487
:102840008273A26802F404421343E26802F4006255
:102850001343226902F002021343626902F001028B
:102860001343A26902F400721343E26902F03802D2
:102870001343226A02F080021343A26A02F4005258
:10288000216813430B60638B03F00403626A02F058
:102890001002216813434B602268D36923F400635C
:1028A000D36100206065012384F8513010BD84F8A5
:1028B00050302046FEF750FFB8E7012070472DE961
:1028C000F04383B01D4690F85030012B00F0D180CA
:1028D000044688469146012380F85030FFF7D2F82D
:1028E000074694F85160F6B2012E40F0AF80B8F17F
:1028F000000F00F0AC80B9F1000F00F0A8800323B6
:1029000084F8513000236365C4F83080A4F8349013
:10291000A4F83690A363A387E38763642364A36862
:10292000B3F5004F1ED023681A6812F0400F03D190
:102930001A6842F040021A60E368B3F5006F1CD0D9
:10294000636813B1B9F1010F52D1226B2368127879
:102950001A73236B01332363E38E9BB2013B9BB25B
:10296000E38645E02268136823F040031360226881
:10297000136843F480431360D5E7636813B1B9F17A
:10298000010F16D1226B23681288DA60236B0233A1
:102990002363E38E9BB2013B9BB2E38609E0FFF722
:1029A00071F8C01BA84202D3B5F1FF3F59D1002DE9
:1029B00059D0E38E9BB2002B33D023689A6812F073
:1029C000020FECD0226B1288DA60236B0233236390
:1029D000E38E9BB2013B9BB2E386EAE7FFF752F836
:1029E000C01BA84202D3B5F1FF3F3ED1002D3ED01F
:1029F000E38E9BB2ABB123689A6812F0020FEDD060
:102A0000226B12781A73236B01332363B4F836C038
:102A10001FFA8CFC0CF1FF3C1FFA8CFCA4F836C0AA
:102A2000E6E73A4629462046FFF7B6FE08B12023DE
:102A30006365A36833B901932368DA6801929B68E0
:102A40000193019B636D13B9002600E00226012368
:102A500084F85130002384F85030304603B0BDE88C
:102A6000F0830326F3E70326F1E70326EFE70326C7
:102A7000EDE70226F1E7704790F83D30DBB2012B1D
:102A800037D1022380F83D300268D36843F0010358
:102A9000D3600368194A934220D0B3F1804F1DD010
:102AA000A2F57C42934219D002F58062934215D080
:102AB00002F58062934211D002F5784293420DD024
:102AC00002F57052934209D0A2F59432934205D098
:102AD0001A6842F001021A60002070479A6802F0FA
:102AE0000702062A07D01A6842F001021A60002085
:102AF0007047012070470020704700BF0000014070
:102B0000704770477047704710B5044603681A69EC
:102B100012F0020F11D0DA6812F0020F0DD06FF030
:102B200002021A610123037703689B6913F0030F04
:102B300070D0FFF7E6FF0023237723681A6912F0AD
:102B4000040F12D0DA6812F0040F0ED06FF00402F6
:102B50001A610223237723689B6913F4407F5FD0B7
:102B60002046FFF7CEFF0023237723681A6912F06F
:102B7000080F12D0DA6812F0080F0ED06FF00802BA
:102B80001A61042323772368DB6913F0030F4ED007
:102B90002046FFF7B6FF0023237723681A6912F057
:102BA000100F12D0DA6812F0100F0ED06FF0100272
:102BB0001A61082323772368DB6913F4407F3DD033
:102BC0002046FFF79EFF0023237723681A6912F03F
:102BD000010F03D0DA6812F0010F36D123681A69A9
:102BE00012F0800F03D0DA6812F0800F34D123681E
:102BF0001A6912F0400F03D0DA6812F0400F32D198
:102C000023681A6912F0200F03D0DA6812F0200F3F
:102C100030D110BDFFF774FF2046FFF773FF8AE73E
:102C20002046FFF76DFF2046FFF76CFF9BE720462D
:102C3000FFF766FF2046FFF765FFACE72046FFF78A
:102C40005FFF2046FFF75EFFBDE76FF001021A61EC
:102C50002046FEF7DDFCC1E76FF080021A612046D6
:102C600000F0A1F8C3E76FF040021A612046FFF7B9
:102C70004AFFC5E76FF020021A61204600F092F883
:102C8000C7E700000368304A904212D0B0F1804F8D
:102C90000FD0A2F57C4290420BD002F580629042A8
:102CA00007D002F58062904203D002F5784290424C
:102CB00003D123F070034A681343234A90422AD079
:102CC000B0F1804F27D0A2F57C42904223D002F58C
:102CD000806290421FD002F5806290421BD002F5C4
:102CE0007842904217D002F57052904213D002F50C
:102CF000806290420FD002F5806290420BD0A2F524
:102D00009832904207D002F58062904203D002F5DB
:102D10008062904203D123F44073CA68134323F0C6
:102D200080034A69134303608B68C3620B68836244
:102D3000054B984203D003F58063984201D10B699B
:102D400003630123436170470000014040B310B5A5
:102D5000044690F83D30F3B1022384F83D3021461B
:102D600051F8040BFFF78EFF012384F8463084F8F6
:102D70003E3084F83F3084F8403084F8413084F8A5
:102D8000423084F8433084F8443084F8453084F885
:102D90003D30002010BD80F83C30FFF76CFEDBE7D3
:102DA000012070477047704738B5044602681369C0
:102DB00023F44053C1680B431361836802691343D2
:102DC00042691343C2691A430168CB6823F416436E
:102DD00023F00C031343CB600268536923F4407360
:102DE00081690B4353610368314A934206D002F56F
:102DF0008062934202D0FFF727FC01E0FFF734FC2A
:102E0000E369B3F5004F29D00021031849411B188D
:102E100041F10001C90041EA5371DB0018186368F1
:102E20004FEA83024FEA937341F10001FDF7E8F99D
:102E3000204DA5FB00325109642303FB11031B0144
:102E40003233A5FB03235B0903F0F00202EB01120E
:102E500003F00F03216813448B6038BD0023021870
:102E600043EB0301121841F10001C90041EA52711C
:102E7000D200101841F10001626892185B41FDF721
:102E8000BFF90C4DA5FB00325109642303FB11036C
:102E9000DB003233A5FB03235B095A0002F4F8720E
:102EA00002EB011203F00703216813448B60D4E79F
:102EB000001001401F85EB512DE9F84305460F46F0
:102EC00016469946DDF820802C68246837EA04030A
:102ED0000CBF4FF0010C4FF0000CB4452DD1B8F1F0
:102EE000FF3FF1D0B8F1000F05D0FEF7CBFDA0EB0E
:102EF00009004045E8D92A6802F10C0353E8003F75
:102F000023F4D0730C3242E800310029F3D12A684F
:102F100002F1140353E8003F23F00103143242E8A6
:102F200000310029F3D1202385F83D3085F83E306B
:102F3000002385F83C30032000E00020BDE8F88342
:102F400058B310B5044690F83D300BB3242384F8F1
:102F50003D302268D36823F40053D3602046FFF746
:102F600023FF2268136923F4904313612268536995
:102F700023F02A0353612268D36843F40053D360DB
:102F800000202064202384F83D3084F83E3010BDBA
:102F900080F83C30FEF7ECFCD8E7012070472DE9C3
:102FA000F04182B01E4690F83D30DBB2202B54D168
:102FB00004460D469046002953D0002A53D090F87D
:102FC0003C30012B51D0012380F83C3000230364B6
:102FD000212380F83D30FEF755FD0746A4F82480F4
:102FE000A4F82680A368B3F5805F05D04FF00008F1
:102FF000002384F83C3012E0236913B14FF000083D
:10300000F6E7A8460025F3E738F8023B2268C3F349
:1030100008035360E28C92B2013A92B2E284E38CEC
:103020009BB273B100963B46002280212046FFF7F9
:1030300043FFE0B9002DE7D015F8012B23685A6053
:10304000E8E700963B46002240212046FFF734FF88
:1030500078B9202384F83D3000E0022002B0BDE8BA
:10306000F0810120FAE70120F8E70220F6E70320CB
:10307000F4E70320F2E72DE9F04182B01E4690F814
:103080003E30DBB2202B5CD104460D469046002931
:103090005BD0002A5BD090F83C30012B59D0012343
:1030A00080F83C3000230364222280F83E20036332
:1030B000FEF7E8FC0746A4F82C80A4F82E80A3684D
:1030C000B3F5805F05D04FF00008002384F83C3052
:1030D00017E0236913B14FF00008F6E7A846002572
:1030E000F3E723685B68C3F3080328F8023B03E0B7
:1030F00023685B682B700135E28D92B2013A92B27F
:10310000E285E38D9BB2BBB100963B4600222021B5
:103110002046FFF7D1FEF0B9002DE2D0A368B3F549
:10312000805FE5D013B92369002BE1D023685B6889
:1031300003F07F032B70DEE7202384F83E3000206D
:1031400000E0022002B0BDE8F0810120FAE7012092
:10315000F8E70220F6E70320F4E7842801D00330E3
:1031600070470020704708B500F08AFF002008BDB6
:103170002DE9F04387B004460F464569BDB1866925
:10318000AEB1D0F80480D0F80090B0F90800FFF795
:10319000E4FF0296019500903B462269494640466D
:1031A00000F0FEFE0590059807B0BDE8F083656865
:1031B0002668D4F81080B4F90800FFF7CEFF05ABFD
:1031C000019300903B461FFA88F23146284600F0F2
:1031D00022FF0128E7D00020E6E708B500B901206A
:1031E00001F098F8002008BD08B5416819B1012028
:1031F00000F028FD08BD012000F019FDFAE700B538
:1032000083B0826842B1C36833B100210091416844
:10321000006800F0CEFB04E000224168006800F086
:1032200012FC03B05DF804FB00F1080343604FF0AB
:10323000FF328260C3600361002303607047002394
:103240000361704743684B609A688A605160996077
:103250000861036801330360704730B40D68B5F14D
:10326000FF3F11D000F108031C465B681A68AA42B0
:10327000FAD963684B6099608C606160086103688B
:103280000133036030BC70470469F2E703694168A9
:1032900082688A60416851605A68824206D0002282
:1032A00002611A68013A1A601868704782685A60A9
:1032B000F5E7000082B0002301930D4B1B68B3F1CA
:1032C000FF3F08D04FF0500383F31188BFF36F8F97
:1032D000BFF34F8FFEE74FF0500383F31188BFF326
:1032E0006F8FBFF34F8F019B002BFCD002B0704754
:1032F0000C00002008480068006880F308884FF040
:10330000000080F3148862B661B6BFF34F8FBFF33D
:103310006F8F00DF00BF000008ED00E0DFF80C0059
:10332000016841F4700101607047000088ED00E021
:103330004FF0807340F8043C21F0010140F8081C74
:10334000054B40F80C3C40F8202C6FF0020340F88D
:10335000243C4438704700BFB5320008000000002C
:10336000074B19680868B0E8F04F80F30988BFF38D
:103370006F8F4FF0000080F311887047AFF300802B
:10338000584B00204FF0500383F31188BFF36F8F29
:10339000BFF34F8F0B4A136801331360012B00D02A
:1033A00070474FF0E023D3F8043D13F0FF0FF7D040
:1033B0004FF0500383F31188BFF36F8FBFF34F8F2C
:1033C000FEE700BF0C000020094B1B6843B94FF01B
:1033D000500383F31188BFF36F8FBFF34F8FFEE766
:1033E000013B034A13600BB983F31188704700BF98
:1033F0000C000020000000000000000000000000A1
:10340000EFF30980BFF36F8F154B1A681EF0100F92
:1034100008BF20ED108A20E9F04F10602DE9090067
:103420004FF0500080F31188BFF34F8FBFF36F8FC1
:1034300000F096FF4FF0000080F3118809BC196876
:103440000868B0E8F04F1EF0100F08BFB0EC108A0B
:1034500080F30988BFF36F8F704700BFAFF3008020
:10346000584B002008B54FF0500383F31188BFF389
:103470006F8FBFF34F8F00F045FE28B14FF0E02370
:103480004FF08052C3F8042D002383F3118808BD48
:103490004FF0E022002313619361054B1B6805493F
:1034A000A1FB03139B09013B536107231361704781
:1034B00000000020D34D62104FF0E023D3F8002D20
:1034C0003D4B9A421CD04FF0E023D3F8002D3B4BEC
:1034D0009A421ED030B583B0394B1A78D2B20192DD
:1034E000FF221A701B78DBB28DF803309DF8033091
:1034F00003F05003334A1370334B07221A601BE06A
:103500004FF0500383F31188BFF36F8FBFF34F8FDA
:10351000FEE74FF0500383F31188BFF36F8FBFF3C3
:103520004F8FFEE7284A1368013B13609DF8033074
:103530005B00DBB28DF803309DF8033013F0800F91
:10354000F0D1214B1B68032B08D04FF0500383F3BD
:103550001188BFF36F8FBFF34F8FFEE71B021A4A2C
:10356000136003F4E0631360019BDBB2144A137031
:103570004FF0E024D4F8203D43F47003C4F8203D1C
:10358000D4F8203D43F07043C4F8203DFFF780FF9E
:1035900000250E4B1D60FFF7C1FED4F8343F43F009
:1035A0004043C4F8343FFFF7A5FE00F0D9FEFFF713
:1035B00081FE284603B030BD71C20F4170C20F4179
:1035C00000E400E0300F0020340F00200C00002049
:1035D000124A12F0070F1ED0D11D21F00701C1F5CC
:1035E000705313440A460E480260002141601344A0
:1035F000083B23F007030B48036059601960991AD0
:1036000051601360084B1960084B1960084B4FF06C
:1036100000421A6070474FF47053E4E73C0F0020FB
:10362000504B0020380F0020444B0020404B00201E
:103630003C4B0020164B1A461B688342FBD3516853
:1036400002EB010C844509D0416800EB010C634595
:1036500009D00360904219D010607047406801445F
:1036600051601046F0E710B40A4C2468A3420BD016
:103670005B681944416013681B680360904200D086
:1036800010605DF8044B70470460F7E7704700BFB7
:10369000504B0020380F002070B5054600F02AFD81
:1036A000364B1B68A3B1364B1B681D424ED135B15A
:1036B000083515F0070F02D025F007050835002D55
:1036C00046D0304B1B68AB4251D32F4A146804E0FC
:1036D000FFF77EFFE7E722461C466368AB4202D253
:1036E0002368002BF7D1254B1B68A34241D01668F5
:1036F00008362368136063685B1B102B10D96019B0
:1037000010F0070F08D04FF0500383F31188BFF378
:103710006F8FBFF34F8FFEE743606560FFF78AFF4F
:10372000626818490B689B1A0B60184909688B423C
:1037300001D216490B60124B1B68134363600023D0
:103740002360134A13680133136002E0002600E08F
:10375000002600F063FD16F0070F0CD04FF0500369
:1037600083F31188BFF36F8FBFF34F8FFEE70026FF
:10377000EFE70026EDE7304670BD00BF380F0020B0
:103780003C4B0020404B0020504B0020444B00207D
:10379000484B0020002834D038B50446A0F1080575
:1037A00050F8043C174A1268134208D14FF05003F6
:1037B00083F31188BFF36F8FBFF34F8FFEE750F88D
:1037C000081C41B14FF0500383F31188BFF36F8F92
:1037D000BFF34F8FFEE723EA020340F8043C00F0FA
:1037E00089FC54F8041C084A13680B4413602846EB
:1037F000FFF720FF054A13680133136000F00EFD48
:1038000038BD70473C4B0020404B00204C4B002003
:1038100010B50446FFF7B6FDA26BE36B9A4204D0E5
:103820000024FFF7D1FD204610BD0124F9E770B553
:1038300004461546866B026C5AB903681BB100201A
:103840000136A66370BD806800F0A4FE0023A3606B
:10385000F6E76DB94068FCF755FE226C63681344C7
:103860006360A268934219D3236863602846E7E740
:10387000C068FCF747FE226C5142E3689B1AE36084
:103880002268934202D2A3680B44E360022D01D068
:103890000020D5E726B1013E0020D1E72846CFE73A
:1038A0000020CDE738B50546FFF76CFD95F845409B
:1038B00064B201E0013C64B2002C0ADD6B6A43B1E2
:1038C00005F1240000F0B0FD0028F3D000F040FE28
:1038D000F0E7FF2385F84530FFF776FDFFF752FD4F
:1038E00095F8444064B201E0013C64B2002C0ADD6A
:1038F0002B6943B105F1100000F096FD0028F3D0CC
:1039000000F026FEF0E7FF2385F84430FFF75CFD6A
:1039100038BD38B5E0B10D460446FFF733FD2368E6
:10392000E26B216C01FB0230A0600020A0636360A9
:10393000013A02FB0133E360FF2384F8443084F84A
:103940004530FDB9236963B9FFF73EFD012038BD5D
:103950004FF0500383F31188BFF36F8FBFF34F8F86
:10396000FEE704F1100000F05FFD0028ECD04FF0FE
:10397000E0234FF08052C3F8042DBFF34F8FBFF305
:103980006F8FE1E704F11000FFF74EFC04F1240013
:10399000FFF74AFCD8E710B5034602980C4631B948
:1039A0000060C36304640121FFF7B3FF10BD026030
:1039B000F7E740B94FF0500383F31188BFF36F8FDF
:1039C000BFF34F8FFEE710B584B01C46844653B159
:1039D00092B189B94FF0500383F31188BFF36F8F11
:1039E000BFF34F8FFEE74FF0500383F31188BFF30F
:1039F0006F8FBFF34F8FFEE76AB148230393039B9A
:103A0000482B13D04FF0500383F31188BFF36F8F0F
:103A1000BFF34F8FFEE70029EFD04FF0500383F341
:103A20001188BFF36F8FBFF34F8FFEE7039B012316
:103A300084F8463000949DF818306046FFF7ABFFDD
:103A4000204604B010BD40B94FF0500383F31188F5
:103A5000BFF36F8FBFF34F8FFEE7F0B583B00D4616
:103A60001446064601FB00F04830FFF715FE0746F6
:103A700050B1002380F846300090234600F1480200
:103A800029463046FFF787FF384603B0F0BDF0B552
:103A900085B0019288B10F461D460446B1B1022D92
:103AA00020D1E36B012B1DD04FF0500383F311881D
:103AB000BFF36F8FBFF34F8FFEE74FF0500383F3D9
:103AC0001188BFF36F8FBFF34F8FFEE7036C002B9E
:103AD000E5D04FF0500383F31188BFF36F8FBFF32E
:103AE0004F8FFEE700F046FD064658B9019B002BBC
:103AF00048D04FF0500383F31188BFF36F8FBFF3AB
:103B00004F8FFEE700263DE02A4639462046FFF764
:103B10008EFE636A7BB948B14FF0E0234FF08052CC
:103B2000C3F8042DBFF34F8FBFF36F8FFFF74CFC2B
:103B3000012005B0F0BD04F1240000F075FC002860
:103B4000F4D04FF0E0234FF08052C3F8042DBFF3C0
:103B50004F8FBFF36F8FE9E7FFF736FC0020E8E7F0
:103B600002A800F0A7FC012619E0002384F84430E5
:103B700021E0002384F8453023E02046FFF792FE41
:103B800000F04CFBFFF7FEFBA26BE36B9A42BBD34A
:103B9000022DB9D0019B002BDED0002EE0D0FFF724
:103BA00013FC00F0A7FAFFF7EDFB94F8442052B2A3
:103BB000B2F1FF3FD9D094F8452052B2B2F1FF3FA5
:103BC000D7D0FFF701FC01A902A800F07FFCD8B90B
:103BD0002046FFF71DFE0028CFD0019904F1100008
:103BE00000F00AFC2046FFF75DFE00F017FB0028FE
:103BF000C8D14FF0E0234FF08052C3F8042DBFF33B
:103C00004F8FBFF36F8FBDE72046FFF74BFE00F0ED
:103C100005FB00208DE748B108B5002181600160F7
:103C2000C1600B460A46FFF732FF08BD704710B56A
:103C3000024600210120FFF706FF0446FFF7EBFFD5
:103C4000204610BD10B582B00B46009000221146F0
:103C50000120FFF7AEFE0446FFF7DDFF204602B06D
:103C600010BD002301E0013001330278A52AFAD00B
:103C7000C3F38F0070470000084B1B681B6823B913
:103C8000074B4FF0FF321A607047044B1B68DB682C
:103C9000DB685A68024B1A60704700BF5C4B00201B
:103CA000304C00202DE9F04780460D4617469946D6
:103CB000089EDDF824A00A9C9200A521206B00F04C
:103CC00045FF236B07F18042013A03EB820727F09F
:103CD0000707B5B34FF0000CBCF10F0F0BD815F868
:103CE0000C2004EB0C0383F8342015F80C3013B1CE
:103CF0000CF1010CF0E7002384F84330062E00D9C4
:103D00000626E66266640025A564201DFFF797FA83
:103D100004F11800FFF793FA2461C6F10706A661C3
:103D20006462E56484F850504A4641463846FFF7DD
:103D3000FFFA2060BAF1000F01D0CAF80040BDE8D8
:103D4000F087002384F83430D8E7000038B5002429
:103D500007E004EB840293000E481844FFF764FA6E
:103D60000134062CF5D90C4D2846FFF75DFA0B4CB3
:103D70002046FFF759FA0A48FFF756FA0948FFF7B5
:103D800053FA0948FFF750FA084B1D60084B1C60B6
:103D900038BD00BF644B0020044C0020184C0020AC
:103DA0003C4C0020684C0020544C00205C4B002010
:103DB000604B002010B50446FFF7E4FA214A13686F
:103DC00001331360204B1B685BB1204B1B686BB940
:103DD0001D4B1B68DA6AE36A9A4207D81A4B1C60CB
:103DE00004E0194B1C601368012B28D0184A136893
:103DF00001331360E06A01238340164A11680B43C4
:103E0000136000EB8000211D134B03EB8000FFF7D4
:103E100019FAFFF7D9FA0D4B1B687BB10A4B1B68E7
:103E2000DA6AE36A9A4209D24FF0E0234FF08052F7
:103E3000C3F8042DBFF34F8FBFF36F8F10BDFFF793
:103E400085FFD3E7F04B0020584B0020504C00205A
:103E5000FC4B0020004C0020644B002010B50446B1
:103E600090F8513063B1012B11D0022B0ED04FF0DE
:103E7000500383F31188BFF36F8FBFF34F8FFEE7BB
:103E8000006BFFF787FC2046FFF784FC10BDFFF7AF
:103E900081FCFBE70F4B1B68D3B110B5FFF772FA3B
:103EA0000D4BDB68DC68201DFFF7F0F90B4A136847
:103EB000013B1360074A1368013B1360FFF784FA64
:103EC0002046FFF7CBFF034B1B68002BE6D110BD4C
:103ED000704700BFF44B0020684C0020F04B0020DE
:103EE00008B5FFF7D7FF074B1B68012BF9D94FF037
:103EF000E0234FF08052C3F8042DBFF34F8FBFF380
:103F00006F8FEEE7644B002070B504460D461D4BE5
:103F10001E681D4B18680430FFF7B8F950B91A4BEA
:103F20001B68DA6A012303FA02F218490B6823EAD4
:103F300002030B60B4F1FF3F0DD03444124B1B68F9
:103F40005C60A64210D9124B18680F4B19680431F7
:103F5000FFF783F970BD002DEFD00B4B19680431CA
:103F60000C48FFF76FF9F5E70B4B1868064B19681B
:103F70000431FFF772F9094B1B68A342EAD9074BDA
:103F80001C60E7E77C4C0020584B0020004C0020D0
:103F9000604B0020544C00205C4B0020304C002033
:103FA00030B587B00B9C7CB10C9DB5B15425049500
:103FB000049D542D1AD04FF0500383F31188BFF3A2
:103FC0006F8FBFF34F8FFEE74FF0500383F31188DD
:103FD000BFF36F8FBFF34F8FFEE74FF0500383F3B4
:103FE0001188BFF36F8FBFF34F8FFEE7049D0C9DC9
:103FF0002C63022485F8514000240394029505ACFB
:1040000001940A9C0094FFF74DFE0C98FFF7D2FE36
:10401000059807B030BD2DE9F04385B007468846C6
:1040200014461E469000FFF737FB00B3814654202C
:10403000FFF732FB0546B0B1C0F83090E5B1002380
:1040400085F85130039302950D9B01930C9B0093CF
:104050003346224641463846FFF724FE2846FFF7FE
:10406000A9FE012005E04846FFF794FBE6E74FF084
:10407000FF3005B0BDE8F0834FF0FF30F9E70000F6
:1040800010B588B000240594069407AA06A905A8CF
:10409000FDF716F9059B0293069B019300942346B6
:1040A000079A0E490E48FFF77BFF0E4B186090B140
:1040B0004FF0500383F31188BFF36F8FBFF34F8F1F
:1040C000094B4FF0FF321A60084B01221A60084B6F
:1040D0001C60FFF7F1F908B010BD00BF70AF000819
:1040E000E13E00082C4C0020304C0020504C0020B9
:1040F0007C4C0020024A136801331360704700BFF4
:10410000F84B0020F8B53A4B1B68002B69D1394BAE
:104110001D6801351D60C5B9374B1B681B6843B16D
:104120004FF0500383F31188BFF36F8FBFF34F8FAE
:10413000FEE7314A1168314B186810601960304A47
:10414000136801331360FFF797FD2E4B1B68AB42DA
:104150003DD900272C4B1B68DB6A03EB83039A00D5
:104160002A4B9B58012B00D90127294B1B68002B98
:104170003CD001273AE001271F4B1B681B6843B363
:104180001D4B1B68DB68DC6863689D4226D3261DD7
:104190003046FFF77BF8A36A1BB104F11800FFF764
:1041A00075F8E36A01229A401A49086802430A60D6
:1041B00003EB83039A00314614481044FFF742F89A
:1041C000E26A114B1B68DB6A9A42D4D2D4E700271B
:1041D000D2E70C4B4FF0FF321A60BBE7094A13607D
:1041E000B8E70D4A13680133136000273846F8BD5D
:1041F000F84B00207C4C00205C4B0020604B0020E2
:10420000344C0020304C0020584B0020644B0020E0
:10421000804C0020004C0020384C002038B5354B35
:104220001B6843B94FF0500383F31188BFF36F8FBE
:10423000BFF34F8FFEE7FFF7A5F82E4B1A68013A40
:104240001A601B68002B4FD12B4B1B680BB9002445
:104250004BE00024294B1B681BB3284BDB68DC6850
:1042600004F11800FFF712F8251D2846FFF70EF895
:10427000E06A01238340224A11680B43136000EB7C
:10428000800029461F4B03EB8000FEF7DBFFE26A4C
:104290001D4B1B68DB6A9A42DCD31C4B01221A605F
:1042A000D8E70CB1FFF7E8FC194B1C6884B9174B31
:1042B0001C68D4B14FF0E0234FF08052C3F8042DB6
:1042C000BFF34F8FBFF36F8F01240EE0013C07D087
:1042D000FFF718FF0028F9D00C4B01221A60F5E710
:1042E0000B4B00221A60E2E70024FFF76DF820462E
:1042F00038BD00BFF84B0020F04B00203C4C0020A4
:10430000004C0020644B0020584B0020804C0020C3
:10431000384C002010B5A8B10446104B1B6843B1BF
:104320004FF0500383F31188BFF36F8FBFF34F8FAC
:10433000FEE7FFF7DFFE00212046FFF7E5FDFFF770
:104340006DFF48B94FF0E0234FF08052C3F8042DC1
:10435000BFF34F8FBFF36F8F10BD00BFF84B00202E
:10436000204B1B681BB1204B01221A6070471E4B6B
:1043700000221A601D4B1B68B3FA83F3DBB2C3F152
:104380001F0303EB83018A0019498A5842B94FF091
:10439000500383F31188BFF36F8FBFF34F8FFEE796
:1043A000134903EB830082000A4450684068506060
:1043B00003EB830C4FEA8C0208321144884209D087
:1043C00003EB83039A000A4B13445B68DA68094BDA
:1043D0001A607047406862469100054A0A4450607E
:1043E000EEE700BFF84B0020804C0020004C00207E
:1043F000644B0020584B002058B110B50C46094AB8
:1044000011681831FEF729FF01212046FFF77CFDD6
:1044100010BD4FF0500383F31188BFF36F8FBFF3CC
:104420004F8FFEE7584B002038B5C368DC6824B3D3
:1044300004F118052846FEF729FF184B1B682BBB13
:10444000251D2846FEF722FFE06A01238340144A17
:1044500011680B43136000EB80002946114B03EBFE
:104460008000FEF7EFFEE26A0F4B1B68DB6A9A42A0
:1044700011D901200D4B186038BD4FF0500383F364
:104480001188BFF36F8FBFF34F8FFEE729460848AF
:10449000FEF7D8FEE7E70020EEE700BFF84B00206C
:1044A000004C0020644B0020584B0020804C002022
:1044B0003C4C0020034B1B680360034B1B684360AC
:1044C000704700BF344C00207C4C0020F8B5C8B1C8
:1044D0000C460546F9B1FEF755FF1B4B19686B6892
:1044E000C81A2268B2F1FF3F26D0184E36682F68EE
:1044F000B74201D08B4224D9824215D800232360D1
:1045000001241AE04FF0500383F31188BFF36F8F3B
:10451000BFF34F8FFEE74FF0500383F31188BFF3D3
:104520006F8FBFF34F8FFEE75B1A1344236028465B
:10453000FFF7C0FF002400E00024FEF745FF2046FF
:10454000F8BD0124F9E700BF7C4C0020344C00206A
:10455000014B01221A607047804C002008B50346C9
:1045600018B1186BFFF77DFB08BD014B1B68F8E71E
:10457000584B0020054B1B6833B1054B1B680BB132
:10458000002070470220704701207047504C0020E7
:10459000F84B002000284CD038B50446274B1B6848
:1045A000834208D04FF0500383F31188BFF36F8F1D
:1045B000BFF34F8FFEE7836C43B94FF0500383F393
:1045C0001188BFF36F8FBFF34F8FFEE7013B83640A
:1045D000C16A426C91422ED00BB1002038BD051D3E
:1045E0002846FEF753FE70B9E26A02EB82039B0095
:1045F0001349CB583BB9012303FA02F211490B6866
:1046000023EA02030B60606CE062C0F10703A36160
:10461000012404FA00F30B4A11680B43136000EB0A
:1046200080002946064B03EB8000FEF70BFE204678
:10463000D4E7002070470020D0E700BF584B00208F
:10464000644B0020004C002000B587B0002301938C
:10465000029303930493059301280AD00423019342
:104660000123029301A90748FDF77EFA07B05DF820
:1046700004FB042301930DEB03010248FDF774FAD8
:10468000F4E700BF0010024038B500250120FFF715
:10469000DBFF2C460CE004211248FDF763FB0128E8
:1046A000F9D0C4F1070201239340DBB21D4301346A
:1046B000072C15DC04210B48FDF754FB0028F9D02A
:1046C000282000F07DF804210648FDF74BFB002868
:1046D000E1D1C4F107020123934025EA0305E6E78F
:1046E000284638BD0010024038B504460020FFF7C8
:1046F000ABFF324D002204212846FDF73AFB122081
:1047000000F08CF8012204212846FDF732FB1E2020
:1047100000F056F80120FFF797FF04212846FDF727
:1047200021FB0546002846D104212448FDF71AFB49
:104730000028F9D004212148FDF714FB0128F9D005
:10474000FFF7A2FF2070FFF79FFF6070FFF79CFF4D
:10475000A070FFF799FFE070FFF796FF20712378B4
:1047600007EE903AF8EE677A617807EE101AB8EE25
:10477000476AB2EE047AC6EE076A77EEA67AC4ED0F
:10478000027AA27807EE902AF8EE677A94F803C0CE
:1047900006EE90CAB8EE666AC6EE076A77EEA67AAB
:1047A000C4ED037A19440A4402EB0C03984200D08A
:1047B0000125284638BD0125FBE700BF0010024057
:1047C00038B505464FF0E0231B6913F0010F0ED0FA
:1047D0004FF0E02254690F4B1B680F49A1FB033CCB
:1047E0004FEA9C4C05FB0CFC9369002107E0FEF7A7
:1047F0004FFEEDE7E01A02441144614509D21A4622
:104800004FF0E0239B699A42FAD0F3D9D21A1144AF
:10481000F3E738BD0000002083DE1B4310B504E041
:104820004FF47A70FFF7CCFF2046441E0028F7D1E2
:1048300010BD000008B501224FF4E0510148FDF71A
:1048400098FA08BD001C024010B5074C0022022156
:104850002046FDF78EFA3220FDF71AF901220221D7
:104860002046FDF786FA10BD0000024000B583B077
:104870008DF80700012204210648FDF77AFAFF238C
:1048800001220DF107010448FEF719F803B05DF8A5
:1048900004FB00BF00000240440E002000B583B0BE
:1048A0008DF80700002204210648FDF762FAFF2375
:1048B00001220DF107010448FEF701F803B05DF88D
:1048C00004FB00BF00000240440E002010B5044667
:1048D000A1F15000C0B2FFF7E1FF04F00F00FFF7B5
:1048E000DDFF04F00F0040F01000FFF7D7FF10BD10
:1048F00038B5002509E00020FFF7B8FF0134E4B225
:1049000014F0800FF7D00135EDB2072D0CD8A5F1CA
:104910005000C0B2FFF7C2FF0120FFF7BFFF102019
:10492000FFF7BCFF0024EBE738BD08B5FFF78CFFAD
:10493000AE20FFF7B3FFD520FFF7B0FF8020FFF7D1
:10494000ADFFA820FFF7AAFF3F20FFF7A7FFD32066
:10495000FFF7A4FF0020FFF7A1FF4020FFF79EFF15
:104960008D20FFF79BFF1420FFF798FF2020FFF713
:1049700095FF0220FFF792FFA120FFF78FFFC020D5
:10498000FFF78CFFDA20FFF789FF1220FFF786FF81
:104990008120FFF783FFEF20FFF780FFD920FFF78B
:1049A0007DFFF120FFF77AFFDB20FFF777FF302054
:1049B000FFF774FFA420FFF771FFA620FFF76EFF3B
:1049C000AF20FFF76BFFFFF793FF00210846FFF7CB
:1049D0007DFF08BD10B52220FFF760FF0020FFF724
:1049E0005DFF0720FFF75AFF2120FFF757FF022046
:1049F000FFF754FF7D20FFF751FF002406E0054B31
:104A00002344187CFFF732FF0134E4B20F2CF6D9AF
:104A100010BD00BF78AF000808B5054B1860054B06
:104A20001868002302221946806800F0F5F808BDD6
:104A3000844C002010000020022801D8012070477B
:104A400008B500F059F809230360002008BD0000F4
:104A500010B5013801280AD814464FF0FF3392B23E
:104A600007480068FEF79BFA40B9204610BD00F0E9
:104A700043F8092303604FF0FF30F7E70520F5E71F
:104A8000844C0020022801D80020704708B500F0AF
:104A900033F8092303604FF0FF3008BD08B500F07C
:104AA0002BF8092303604FF0FF3008BD08B548B963
:104AB0004FF0FF33012208480068FEF7DCFA40B9E6
:104AC000012008BD00F018F8092303604FF0FF3003
:104AD000F7E70520F5E700BF844C002008B5022861
:104AE00004D84FF400534B60002008BD00F004F8D8
:104AF00009230360F8E70000014B1868704700BF06
:104B00001000002070B50D4E0D4D761BB61006D06E
:104B1000002455F8043B01349847A642F9D1094EC8
:104B2000094D761B06F050F9B61006D0002455F852
:104B3000043B01349847A642F9D170BDF0B3000898
:104B4000F0B30008F8B30008F0B30008830730B5ED
:104B500048D0541E002A3FD0CAB2034601E0013CAF
:104B60003AD303F8012B9D07F9D1032C2DD9CDB2EF
:104B700045EA05250F2C45EA054536D9A4F1100272
:104B800022F00F0C03F1200EE6444FEA121C03F151
:104B9000100242E9045542E9025510327245F8D13B
:104BA0000CF1010214F00C0F03EB021204F00F0CD5
:104BB00013D0ACF1040323F003030433134442F88D
:104BC000045B9342FBD10CF003042CB1CAB21C4429
:104BD00003F8012B9C42FBD130BD64461346002CE8
:104BE000F4D1F9E703461446BFE71A46A446E0E7C6
:104BF0000FB400B5074983B004AB086853F8042B21
:104C00008168019300F0E0F803B05DF804EB04B0B4
:104C1000704700BF100000202DE9F043694CD4F824
:104C2000008083B004460E4617461D46B8F1000FBB
:104C300003D0D8F83830002B77D0022F05D0012FC1
:104C400000F2AC80002DC0F2A980636EDA0752D565
:104C50002146404603F006F8216B41B104F14003C0
:104C6000994202D0404603F029F900232363B4F9A6
:104C70000CC000231CF0800FA361636064D12CF48E
:104C80004A6C2CF0030C022FA4F80CC06AD001ABC4
:104C90006A462146404603F0B7FAA3891843A0812B
:104CA000002D2FD0002E2ED0D8F83830002B38D041
:104CB000009B2660AB42B4F90C301CBF43F4006388
:104CC000A381012F04BF43F00103A3819AB213F023
:104CD0000803C4E904652CD0D1075DD56D42A561F8
:104CE000656E002315F00105A36027D00025284636
:104CF00003B0BDE8F083A3899B05A9D4A06D03F0A0
:104D00000FFAA5E7009D284603F0AEFA06460028F4
:104D100047D0A38943F08003A381D8F83830002B13
:104D2000C6D1404602F0D2FFC2E7404602F0CEFFB5
:104D300083E7A360656E15F00105D7D1930524D5EF
:104D4000284603B0BDE8F0832169404603F0B6F879
:104D5000B4F90CC02CF44A6C2CF0030C022FA4F80C
:104D60000CC094D10025002204F14303A26001226B
:104D7000C4E904322360636E4CF0020CD807A4F837
:104D80000CC0DDD41CF4007FDAD1A06D03F0CAF9A9
:104D9000284603B0BDE8F083A560CBE74FF0FF35B0
:104DA000CEE7DDF80090A94504D0484603F05CFA50
:104DB000064620B9B4F90CC04FF0FF35D3E74D4695
:104DC000A7E700BF100000202DE9F04F2DED0A8B62
:104DD000CFB01C460AEE101A91460AEE900A05461C
:104DE00003F096F90368139318460994FBF788FCBF
:104DF00012901DB1AB6B002B00F048821AEE102A06
:104E0000536EDB0740F14781B2F90C309AB2960439
:104E100009D41AEE101A43F400538B819AB24B6EE8
:104E200023F400534B66150740F1CC801AEE103A7C
:104E30001B69002B00F0C68002F01A030A2B00F059
:104E4000D2804D469FED9C7B2B78002425AACDE98E
:104E50002344CDE91544CDE917448DED107B1AEEBE
:104E6000909A0E942292904614940694002B00F08F
:104E7000B081AB4604E01BF8013F002B00F0CD8071
:104E8000252BF8D1BBEB050640F0CB809BF800301A
:104E9000002B00F09E8100234FF0FF329BF8017041
:104EA0008DF86B3005930BF1010B04929A462B247D
:104EB00020210BF1010BA7F120035A2B00F20081F6
:104EC000DFE813F00A03FE00FE000503FE00FE000B
:104ED000FE006A00FE00FE0076029E02FE008102D5
:104EE000A802FE00A3025B005B005B005B005B00AE
:104EF0005B005B005B005B00FE00FE00FE00FE004E
:104F0000FE00FE00FE008E01FE001602ED018E0185
:104F10008E018E01FE00FE00FE00FE000003FE007A
:104F2000FE004502FE00FE00FE002002FE00C2025E
:104F3000FE00FE009907FE00FE00FE00FE00FE00DF
:104F4000FE00FE00FE008E01FE001602EF018E0143
:104F50008E018E01E602EF01E801FE00F302FE0081
:104F600086024702D402E801FE0020027D00750798
:104F7000FE00FE007907FE007D00A7F1300300224D
:104F80001BF8017B02EB820203EB4202A7F1300324
:104F9000092BF5D905928EE7484603F0B9F8436826
:104FA00017931846FBF7ACFB18900646484603F0EB
:104FB000AFF8836815932021002E40F0E9869BF816
:104FC000007076E71AEE101A1AEE900A1AEE105ACE
:104FD00001F002FD002841F02783AA8902F01A039C
:104FE0000A2B7FF42EAF1AEE101AB1F90E30002BF7
:104FF000FFF627AF4B6ED90702D4920541F15A81D3
:105000001AEE101A1AEE900A23464A464FB0BDEC2B
:105010000A8BBDE8F04F01F09FBCBBEB050600F02A
:10502000D880249B33442493239B0133072BC8E966
:105030000056239305DC08F10808069B33440693C9
:1050400024E71AEE101A22AA484604F085F890B90F
:105050000DF19408F1E71AEE101A22AA484604F05E
:105060007BF8002800F0A680089B23B11AEE900A76
:10507000194602F023FF1AEE102A536ED80740F1AA
:10508000FA8093895A0601F1D88206984FB0BDEC98
:105090000A8BBDE8F08FB2F90C309F059AB23FF54C
:1050A000B6AE1AEE105AA86D03F03AF8B5F90C3006
:1050B0009AB2ACE6AFF300800000000000000000F0
:1050C000002F00F0868000238DF8D4708DF86B30AF
:1050D0000122CDE90723039204930C930F930D93C0
:1050E00035AD1AF002020A9202D0039A02320392FC
:1050F0001AF084020B9205D1059A0399561A002ED4
:1051000000F36883249C8BB1239B0DF16B02013368
:105110000134C8F80020072B4FF001022494239398
:10512000C8F8042000F39F8308F108080A9B83B1A4
:10513000239B1BAA01330234C8F80020072B4FF031
:10514000020224942393C8F8042000F3998308F101
:1051500008080B9B802B00F06A82049B079A9E1A1A
:10516000002E00F3AB821AF4807F40F00682079B8A
:10517000C8F804301C44239BC8F800500133072BA7
:105180002494239300F3198308F108081AF0040FFC
:1051900005D0059B039A9D1A002D00F38583DDE958
:1051A000052303998A42ACBF9B185B180693002C19
:1051B0007FF451AF00232393089B1BB10899484605
:1051C00002F07CFE0DF194085D462B78002B7FF4F5
:1051D00050AE249B002B41F01B82002323934AE70F
:1051E000099B073323F00703B3EC027B8DED107BA3
:1051F000DDE91012099322F000430BEE101A0BEEBA
:10520000903A4FF0FF32B0EE4B9AF0EE6B9AB74BFC
:1052100051EC190BFBF738FF002840F0E884B34B42
:1052200051EC190B4FF0FF32FBF710FF002840F054
:10523000DE84DDE9100100220023FBF7FDFE0028DB
:1052400040F067879DF86B30A94DAA4A2AF0800A82
:105250000321472FC8BF15460022089203910791EA
:1052600004920C920F920D92002B3FF43AAF039AE6
:105270000132039235E7938999053FF503AF1AEEA2
:10528000104A906D02F04EFFA389FBE6284602F01B
:105290001DFDB3E59BF800704AF0200A09E64AF0CC
:1052A000100A1AF0200F099B00F04084073323F006
:1052B00007031A465B6852F8084B09921E46002BFA
:1052C000C0F24384049B013300F0BC822AF08003C7
:1052D000039354EA060340F0B782049B002B40F08E
:1052E000B882DDF80CA00023049307934EAD1FE1B4
:1052F000099A002352F8041B8DF86B308DF8D410F6
:105300000992E5E6099C54F8045B00268DF86B6071
:10531000002D00F08F85049B5A1C00F051861A4620
:1053200031462846FBF78CF90890002801F02F81C0
:10533000089B0496591B079121EAE1719DF86B3097
:105340000994039108960C960F960D968CE74AF0F7
:10535000100A1AF0200600F0C983099B073323F0D6
:1053600007035E6853F8084B09932AF4806303939C
:10537000002300228DF86B20049A551C00F0C08099
:10538000039921F0800A54EA060140F0B780002A10
:1053900040F00786002BA6D1039B13F0010307936F
:1053A00000F0148430238DF837310DF23715BFE04B
:1053B000099B53F8042B0592002A80F2D583059AA5
:1053C0000993524205929BF800704AF0040A70E576
:1053D0001AF0200F40F0D1841AF0100F40F0E7854A
:1053E0001AF0400F40F0A9861AF4007F00F0DF8524
:1053F000099B069953F8042B099311705D46E4E666
:105400009BF800708DF86B4053E59BF800704AF0F4
:10541000800A4EE55A4612F8017B2A2F01F06F826E
:10542000A7F13003092B934698BF002201F2EC80CC
:105430001BF8017B02EB820203EB4202A7F130036F
:10544000092BF5D9049236E54AF010030393039B28
:1054500013F0200600F05983099B073323F007035C
:105460005E6853F8084B0993012382E7099B53F8C0
:10547000044B099330234AF0020278278DF86C30F0
:105480001D4B149303928DF86D700026022370E774
:105490009BF80070682F03BF9BF801704AF4007AF4
:1054A0000BF1010B4AF0400A03E59BF800706C2FEA
:1054B00003BF9BF801704AF0200A0BF1010B4AF080
:1054C000100AF6E49BF800704AF0080AF1E49BF831
:1054D00000704AF0010AECE49DF86B30002B7FF479
:1054E0006EAD9BF800708DF86B10E2E4FFFFEF7F6C
:1054F000ECAF0008F0AF0008FCAF0008CDF80CA03E
:10550000012B00F0A181022B4EAD20D1149A04F0A2
:105510000F032409D35C05F8013D44EA06743609FB
:1055200054EA0603F3D14EAB5B1BDDF80CA00793E6
:10553000049907989DF86B3081424FF00002B8BF84
:105540000146089203910C920F920D928CE604F0A2
:105550000703E40844EA4674F608303354EA0601C7
:105560002A4605F8013DF2D10399CC0700F1758276
:105570004EAB5B1B8A460793DAE7652F40F3D78073
:10558000DDE9100100220023FBF74CFD002800F0AC
:10559000C681239BC14AC8F800200133013401228F
:1055A000072B24942393C8F8042000F3DE8408F129
:1055B00008081C9B0E9A934280F2D182129B139A88
:1055C0001C44C8E90023239B24940133072B239315
:1055D00000F3228408F108080E9B5D1E002D7FF762
:1055E000D5AD102D239B41F36981AD4F0A9722461B
:1055F00010261AEE104A05E008F10808103D102D9B
:1056000040F3C18401331032072BC8E90076CDE99D
:105610002332F1DD22AA2146484603F09DFD0028F1
:105620007FF422ADDDE923320DF19408E6E7059B16
:10563000039A9E1A002E7FF790AD102E239B41F304
:105640003F8097490B9522461AEE105A0A910C4654
:1056500004E0103E102E08F1080819DD0133103265
:105660001021072BCDE92332C8F80040C8F80410F8
:10567000EFDD22AA294648460DF1940803F06CFD9F
:1056800000287FF4F1AC103E102EDDE92332E5DC7A
:105690000B9D144601330A9AC8F800203444072BA6
:1056A000CDE92334C8F8046000F3A883049B079A6B
:1056B0009E1A002E08F108087FF755AD102E239B87
:1056C00040F30F8576480A90424621461AEE108A2A
:1056D000044604E0103E102E02F1080216DD0133EC
:1056E00010311020072BCDE9233114605060F1DD1B
:1056F00022AA4146484603F02FFD00287FF4B4ACAF
:10570000103E102EDDE9233125AAE8DC90460C4638
:1057100001330A9AC8F800203444072BCDE923341A
:10572000C8F8046000F3D48108F108081BE50E9B5B
:10573000012B40F37381239EC8F8005001360134D9
:105740000123072E24942396C8F8043000F396838F
:1057500008F10808129B139A01361C44072EC8E969
:105760000023CDE9236400F3978308F10808DDE9FD
:10577000100100220023FBF755FC002840F07B813C
:105780000E9B0136013B01351C44072EC8F8005022
:105790002396C8F80430249400F3518108F10808D6
:1057A000169BC8F8043001361C44072E1EABCDE909
:1057B0002364C8F800307FF7E7AC1AEE101A22AA6B
:1057C000484603F0C9FC00287FF44EAC249C0DF140
:1057D0009408DBE4102EDDE9233222DD1995102434
:1057E0001AEE105A04E0103E102E08F1080817DDDA
:1057F00001332C491032072BC8E90014CDE92332BC
:10580000F1DD22AA294648460DF1940803F0A4FCD4
:1058100000287FF429AC103E102EDDE92332E7DCAE
:10582000199DC8F804600133B418072B1D4AC8F845
:105830000020CDE9233400F37D839DF86B3008F11F
:10584000080860E4CDF80CA00A2C76F1000380F083
:10585000318330340123DDF80CA08DF837410793F4
:105860000DF2371564E61AEE101A22AA484603F024
:1058700073FC00287FF4F8AB249C0DF1940855E4E8
:105880001AEE101A22AA484603F066FC00287FF49C
:10589000EBAB249C0DF194085BE400BF2CB0000836
:1058A00040B0000830B00008102D239B20DD1AEE18
:1058B000107A102604E0103D102D08F1080817DDBD
:1058C0000133AC4A1034072BC8E90026CDE9233454
:1058D000F1DD22AA394648460DF1940803F03CFC5C
:1058E00000287FF4C1AB103D102DDDE92334E7DC47
:1058F0000133A04AC8F804502C44072BCDE92334C7
:10590000C8F800207FF74BAC1AEE101A22AA4846BE
:1059100003F022FC00287FF4A7AB249C3FE41C9AF0
:10592000002A40F32B81DDE90D739F42A8BF1F467B
:10593000002F0BDD239B01333C44072BC8E90057A4
:105940002494239300F3D58508F108080D9E002FB9
:10595000A8BFF61B002E00F344830D9B1AF4806F42
:105960002B44079340F0E3841C9B0E9A934203DB85
:105970001AF0010F00F0D283129A13991444C8E967
:105980000012239A24940132072A239200F3BF8540
:1059900008F108080E9A0799AE18761AD51AAE4281
:1059A000A8BF2E46002E0DDD239BC8F80010013342
:1059B0003444072BC8F804602494239300F3098629
:1059C00008F10808002EA8BFAD1B002D7FF7DEAB45
:1059D000102D239B40F37287674F0A9722461026AB
:1059E0001AEE104A05E008F10808103D102D40F3AA
:1059F000CA8201331032072BC8E90076CDE9233281
:105A0000F1DD22AA2146484603F0A6FB00287FF4D8
:105A10002BABDDE923320DF19408E6E71AF0010F14
:105A20007FF489AE239EC8F800500136013401236B
:105A3000072E24942396C8F804307FF7AFAE1AEEF1
:105A4000101A22AA484603F087FB00287FF40CAB0B
:105A5000DDE923640DF19408A2E6302B3FF463AD39
:105A60003023023A05F8013C4EAB9B1ADDF80CA03E
:105A7000079315465CE50E9B5D1E002D7FF790AEEB
:105A8000102D40F321873C4ACDF810A023461AEE92
:105A900010AA0A921027144605E008F10808103DE4
:105AA000102D40F3E38201361033072EC8E900477A
:105AB000CDE92363F1DD22AA5146484603F04CFBB1
:105AC00000287FF4D1AADDE923630DF19408E6E70D
:105AD0001AEE101A22AA484603F03EFB00287FF473
:105AE000C3AA249C0DF19408FFF73DBB1AF01003E4
