:020000040800F2
:1000000000000320D50C0008B50B0008B70B000852
:10001000B90B0008BB0B0008BD0B00080000000076
:100020000000000000000000000000004120000867
:10003000BF0B000800000000E12000084521000877
:10004000250D0008250D0008250D0008250D0008C8
:10005000250D0008250D0008250D0008250D0008B8
:10006000250D0008250D0008250D0008250D0008A8
:10007000250D0008250D0008250D0008250D000898
:10008000250D0008250D0008250D0008250D000888
:10009000250D0008250D0008250D0008250D000878
:1000A000250D0008C10B0008250D0008250D0008CE
:1000B000250D0008250D0008250D0008250D000858
:1000C000250D0008250D0008250D0008250D000848
:1000D000250D0008250D0008250D0008250D000838
:1000E000250D0008250D0008250D0008250D000828
:1000F000250D0008250D0008250D0008250D000818
:10010000250D0008250D0008250D0008250D000807
:10011000250D0008250D0008250D0008250D0008F7
:10012000250D0008250D0008250D0008250D0008E7
:10013000250D0008250D0008250D0008250D0008D7
:10014000250D0008250D0008250D0008250D0008C7
:10015000250D0008250D0008250D0008250D0008B7
:10016000250D0008250D0008250D0008250D0008A7
:10017000250D0008250D0008250D000800000000D1
:10018000250D0008250D0008250D0008250D000887
:10019000250D0008250D0008250D0008250D000877
:0C01A000250D0008250D0008250D0008A5
:1001C00010B5054C237833B9044B13B10448AFF391
:1001D00000800123237010BD54080020000000009F
:1001E0000450000808B5034B1BB103490348AFF3A3
:1001F000008008BD000000005808002004500008DE
:1002000053B94AB9002908BF00281CBF4FF0FF317D
:100210004FF0FF3000F074B9ADF1080C6DE904CE79
:1002200000F006F8DDF804E0DDE9022304B07047D1
:100230002DE9F047089D04468E46002B4DD18A4299
:10024000944669D9B2FA82F252B101FA02F3C2F1CC
:10025000200120FA01F10CFA02FC41EA030E94405D
:100260004FEA1C48210CBEFBF8F61FFA8CF708FB7E
:1002700016E341EA034306FB07F199420AD91CEB56
:10028000030306F1FF3080F01F81994240F21C8188
:10029000023E63445B1AA4B2B3FBF8F008FB1033D0
:1002A00044EA034400FB07F7A7420AD91CEB040405
:1002B00000F1FF3380F00A81A74240F207816444D5
:1002C000023840EA0640E41B00261DB1D44000235A
:1002D000C5E900433146BDE8F0878B4209D9002DBE
:1002E00000F0EF800026C5E9000130463146BDE848
:1002F000F087B3FA83F6002E4AD18B4202D38242B2
:1003000000F2F980841A61EB030301209E46002D60
:10031000E0D0C5E9004EDDE702B9FFDEB2FA82F2B5
:10032000002A40F09280A1EB0C014FEA1C471FFA13
:100330008CFE0126200CB1FBF7F307FB131140EAFA
:1003400001410EFB03F0884208D91CEB010103F1C7
:10035000FF3802D2884200F2CB804346091AA4B289
:10036000B1FBF7F007FB101144EA01440EFB00FE5D
:10037000A64508D91CEB040400F1FF3102D2A645C2
:1003800000F2BB800846A4EB0E0440EA03409CE761
:10039000C6F12007B34022FA07FC4CEA030C20FA0E
:1003A00007F401FA06F31C43F9404FEA1C4900FA2E
:1003B00006F3B1FBF9F8200C1FFA8CFE09FB1811AB
:1003C00040EA014108FB0EF0884202FA06F20BD91E
:1003D0001CEB010108F1FF3A80F08880884240F26E
:1003E0008580A8F102086144091AA4B2B1FBF9F0B2
:1003F00009FB101144EA014100FB0EFE8E4508D9AD
:100400001CEB010100F1FF346CD28E456AD9023831
:10041000614440EA0840A0FB0294A1EB0E01A14216
:10042000C846A64656D353D05DB1B3EB080261EB84
:100430000E0101FA07F722FA06F3F1401F43C5E95E
:10044000007100263146BDE8F087C2F12003D84094
:100450000CFA02FC21FA03F3914001434FEA1C47D6
:100460001FFA8CFEB3FBF7F007FB10360B0C43EAC8
:10047000064300FB0EF69E4204FA02F408D91CEB78
:10048000030300F1FF382FD29E422DD90238634476
:100490009B1B89B2B3FBF7F607FB163341EA034116
:1004A00006FB0EF38B4208D91CEB010106F1FF3865
:1004B00016D28B4214D9023E6144C91A46EA00465C
:1004C00038E72E46284605E70646E3E61846F8E6EE
:1004D0004B45A9D2B9EB020864EB0C0E0138A3E737
:1004E0004646EAE7204694E74046D1E7D0467BE718
:1004F000023B614432E7304609E76444023842E790
:10050000704700BF844641EA000313F003036DD136
:10051000403A41D351F8043B40F8043B51F8043BC6
:1005200040F8043B51F8043B40F8043B51F8043BCD
:1005300040F8043B51F8043B40F8043B51F8043BBD
:1005400040F8043B51F8043B40F8043B51F8043BAD
:1005500040F8043B51F8043B40F8043B51F8043B9D
:1005600040F8043B51F8043B40F8043B51F8043B8D
:1005700040F8043B51F8043B40F8043B51F8043B7D
:1005800040F8043B51F8043B40F8043B51F8043B6D
:1005900040F8043B403ABDD2303211D351F8043B0D
:1005A00040F8043B51F8043B40F8043B51F8043B4D
:1005B00040F8043B51F8043B40F8043B103AEDD2BC
:1005C0000C3205D351F8043B40F8043B043AF9D20D
:1005D000043208D0D2071CBF11F8013B00F8013BE0
:1005E00001D30B8803806046704700BF082A13D3ED
:1005F0008B078DD010F003038AD0C3F10403D21A05
:10060000DB071CBF11F8013B00F8013B80D331F838
:10061000023B20F8023B7BE7043AD9D3013A11F8B8
:10062000013B00F8013BF9D20B7803704B78437023
:100630008B78837060467047000000000000000067
:1006400090F800F06DE9024520F007016FF0000C12
:1006500010F0070491F820F040F049804FF00004BA
:100660006FF00700D1E9002391F840F000F1080095
:1006700082FA4CF2A4FA8CF283FA4CF3A2FA8CF3CD
:100680004BBBD1E9022382FA4CF200F10800A4FA34
:100690008CF283FA4CF3A2FA8CF3E3B9D1E9042388
:1006A00082FA4CF200F10800A4FA8CF283FA4CF3BF
:1006B000A2FA8CF37BB9D1E9062301F1200182FA79
:1006C0004CF200F10800A4FA8CF283FA4CF3A2FA7F
:1006D0008CF3002BC6D0002A04BF04301A4612BA8D
:1006E000B2FA82F2FDE8024500EBD2007047D1E990
:1006F000002304F00305C4F100004FEAC50514F01F
:10070000040F91F840F00CFA05F562EA05021CBFEF
:1007100063EA050362464FF00004A9E70000000009
:1007200001F0FF01102A2BDB10F0070F08D010F8A2
:10073000013B013A8B422DD010F0070F42B3F6D1A6
:10074000F0B441EA012141EA014122F007047FF0BF
:1007500000070023F0E80256083C85EA010586EA16
:10076000010685FA47F5A3FA87F586FA47F6A5FA52
:1007700087F68EB9EED1F0BC01F0FF0102F007025E
:1007800032B110F8013B013A83EA010313B1F8D109
:100790000020704701387047002D06BF35460338EA
:1007A000073815F0010F07D1013015F4807F02BF23
:1007B000013015F4C03F0130F0BC0138704700BF74
:1007C00008B5012001F075FBFBE708B54FF4FA60AE
:1007D00001F06FFBFAE7000010B507E04FF47A7004
:1007E00002F08AFD0134B4F57A7FF7DB024802F0AB
:1007F000F5FE0024F7E700BFC050000808B54FF42D
:100800008051044800F018FC4FF47A7001F051FB5D
:10081000F5E700BF001C0240034B0360034B0B6075
:1008200080231360704700BF240D0020240B00209C
:1008300030B5A3B0002520952E4B219320A801F0C0
:100840003FFB2D4B18602D4C0DF1700C94E80F0000
:100850008CE80F002946604601F03DFB284B1860EC
:100860000DF1540C04F1100EBEE80F00ACE80F00BF
:100870009EE807008CE80700294615A801F0E4FA75
:10088000204B18600DF1380C04F12C0EBEE80F005F
:10089000ACE80F009EE807008CE8070029460EA888
:1008A00001F0D2FA184B18600DF11C0C04F1480E3F
:1008B000BEE80F00ACE80F009EE807008CE80700D8
:1008C000294607A801F0C0FA104B1860EE4604F163
:1008D000640CBCE80F00AEE80F009CE807008EE84F
:1008E00007002946684601F0AFFA094B186023B0AB
:1008F00030BD00BF7C080020C40800201C50000848
:10090000780800201C0B002074080020200B002019
:1009100070080020F0B58BB000240594069407946D
:100920000894099400942A4B1A6B42F010021A633F
:100930001A6B02F010020092009A01941A6B42F0B6
:1009400004021A631A6B02F004020192019A0294E3
:100950001A6B42F080021A631A6B02F08002029254
:10096000029A03941A6B42F001021A631A6B02F0A6
:1009700001020392039A04941A6B42F002021A6372
:100980001B6B03F002030493049B124F22460421C5
:10099000384600F04BFB104D22464FF4E0512846FC
:1009A00000F044FB0423059301260696079408945F
:1009B00005A9384600F03CFA4FF4E053059306963B
:1009C0000794089405A9284600F032FA0BB0F0BD50
:1009D0000038024000100240001C024008B50268C6
:1009E000034B9A4200D008BD00F0B8F9FBE700BF06
:1009F0000000014072B6FEE700B595B0302200213C
:100A000008A802F04BFD002303930493059306937B
:100A100007930193234A116C41F080511164126CC9
:100A200002F080520192019A02931F4B1A6842F41D
:100A300040421A601B6803F440430293029B012367
:100A400008934FF48033099302230E934FF48002EE
:100A50000F920F221092D822119212930423139313
:100A600008A800F031FBB0B900F0F0FAA8B90F23E4
:100A7000039302230493002305934FF4A05306939A
:100A80004FF480530793052103A800F06BFD30B9A4
:100A900015B05DF804FBFFF7ADFFFFF7ABFFFFF705
:100AA000A9FF00BF003802400070004008B500F008
:100AB0003BF9FFF7A1FFFFF72DFF00F0B7F805485E
:100AC00002F052FC02F046FCFFF7B2FE01F0B7F96B
:100AD000FEE700BFC40D002000B583B000220092E5
:100AE0000D4B596C41F480415964596C01F48041BB
:100AF000009100990192196C41F0805119641B6CAE
:100B000003F080530193019B0F216FF0010000F06F
:100B100049F903B05DF804FB0038024030B589B0F4
:100B20000546002401941E4B5A6C42F001025A649F
:100B30005B6C03F001030193019B02A903A800F081
:100B4000E7FD00F0D5FD43001648A0FB03239B0CF6
:100B5000013B1548154A026040F2E732C26043602B
:100B600004618460846100F05DFF044610B120469A
:100B700009B030BD0C4800F0EBFD04460028F6D16A
:100B8000192000F047F90F2D01D90124EFE70022C9
:100B90002946192000F006F9054B1D60E7E700BF64
:100BA0000038024083DE1B43780D00200000014026
:100BB00008000020FEE7FEE7FEE7FEE7FEE77047DD
:100BC00008B5024800F00CFE08BD00BF780D0020FB
:100BD00010B503460C4A0D490D48006840B10C4859
:100BE00000680344521A934206D8094A136010BDA4
:100BF0000748084C0460F2E702F026FC0C2303606F
:100C00004FF0FF30F3E700BF0000032000040000B6
:100C1000C00D0020B04B0020034AD2F8883043F4C6
:100C20007003C2F88830704700ED00E008B50A484C
:100C30000A4B03604FF4E133436000238360C360D9
:100C400003610C2242618361C36100F0E5FF00B9DA
:100C500008BDFFF7CFFEFBE7C40D002000100140E8
:100C600000B589B00023039304930593069307937B
:100C7000026803F1804303F588339A4202D009B039
:100C80005DF804FB0021019103F594335A6C42F0A6
:100C900010025A645A6C02F010020192019A0291F9
:100CA0001A6B42F001021A631B6B03F001030293FB
:100CB000029B4FF4C0630393022304930323069320
:100CC0000723079303A9024800F0B2F8D7E700BF53
:100CD00000000240DFF834D00D480E490E4A0023D0
:100CE00002E0D458C4500433C4188C42F9D30B4AE0
:100CF0000B4C002301E013600432A242FBD3FFF748
:100D00008BFF02F0A7FBFFF7D1FE70470000032026
:100D1000000000205408002008510008540800205A
:100D2000AC4B0020FEE7000008B50B4B1A6842F4FC
:100D300000721A601A6842F480621A601A6842F4FB
:100D400080721A60032000F01BF80F20FFF7E6FE08
:100D5000FFF7C2FE002008BD003C0240034A1168B4
:100D6000034B1B780B441360704700BF080E002034
:100D700004000020014B1868704700BF080E0020D7
:100D8000074AD36823F4E0631B041B0C000200F441
:100D9000E060034343F0BF6343F40033D360704724
:100DA00000ED00E000B5194BDB68C3F30223C3F18B
:100DB000070CBCF1040F28BF4FF0040C03F1040E24
:100DC000BEF1060F18D9033B4FF0FF3E0EFA0CFCA4
:100DD00021EA0C0199400EFA03F322EA03031943B6
:100DE00000280BDB0901C9B200F1604000F5614049
:100DF00080F800135DF804FB0023E5E700F00F0026
:100E00000901C9B2024B1954F4E700BF00ED00E03C
:100E100014ED00E0002807DB00F01F024009012369
:100E20009340024A42F82030704700BF00E100E0E2
:100E300000230F2B00F2F18070B582B061E085686D
:100E40005E000324B44025EA0405CC68B4402C437A
:100E50008460456825EA02054C68C4F300129A4094
:100E60002A4342605BE0DC08083450F8246003F059
:100E7000070295000F22AA4026EA020E0A69AA403C
:100E800042EA0E0240F824205DE0092200E0002240
:100E900002FA0EF22A430234604D45F82420604ADB
:100EA00094686FEA0C0224EA0C054E6816F4801F61
:100EB00001D04CEA04055A4CA560E46802EA040536
:100EC0004E6816F4001F01D04CEA0405544CE5604E
:100ED000646802EA04054E6816F4003F01D04CEA4B
:100EE00004054F4C6560246822404D6815F4803F2E
:100EF00001D04CEA04024A4C226001330F2B00F26D
:100F00008A8001229A400C6804EA020C32EA040446
:100F1000F3D14C6804F00304013C012C8FD94A68DA
:100F200002F00302032A09D0C4685D000322AA402C
:100F300024EA02048A68AA402243C2604A6802F096
:100F40000302022A8FD004684FEA430E032202FAFA
:100F50000EF224EA02044A6802F0030202FA0EF2D8
:100F6000224302604A6812F4403FC6D00022019238
:100F70002C4A546C44F480445464526C02F4804211
:100F80000192019A9C08A51C244A52F8255003F0AE
:100F900003024FEA820E0F2202FA0EF225EA020540
:100FA000214A90423FF473AF02F58062904222D012
:100FB00002F58062904220D002F5806290421ED0FD
:100FC00002F5806290421CD002F5806290421AD0F5
:100FD00002F58062904218D002F58062904216D0ED
:100FE00002F58062904214D002F5806290423FF494
:100FF0004CAF0A224CE701224AE7022248E70322CB
:1010000046E7042244E7052242E7062240E707229A
:101010003EE708223CE702B070BD7047003801404F
:10102000003C014000380240000002400AB18161EA
:101030007047090481617047436901EA030221EAAC
:10104000030141EA024181617047000010B582B09E
:1010500000230193194B1A6C42F080521A641B6CE6
:1010600003F080530193019B154B01221A64FFF793
:1010700081FE0446134B5B6813F4803F08D1FFF7F1
:1010800079FE001BB0F57A7FF4D9032002B010BDC1
:101090000B4B01225A64FFF76DFE0446094B5B6857
:1010A00013F4003F07D1FFF765FE001BB0F57A7F10
:1010B000F4D90320EAE70020E8E700BF0038024047
:1010C00000000E4200700040002800F0E08170B582
:1010D00082B00446036813F0010F3BD09F4B9B681E
:1010E00003F00C03042B2CD09C4B9B6803F00C03E7
:1010F000082B21D06368B3F5803F4FD0B3F5A02F04
:1011000052D0964B1A6822F480321A601A6822F480
:1011100080221A606368002B50D0FFF72BFE054633
:101120008E4B1B6813F4003F14D1FFF723FE401BC6
:101130006428F5D90320B1E1884B5B6813F4800F74
:10114000D8D0864B1B6813F4003F03D06368002B94
:1011500000F09F81236813F0020F54D07F4B9B68EF
:1011600013F00C0F3ED07D4B9B6803F00C03082B53
:1011700033D0E368002B68D0794B01221A60FFF767
:10118000F9FD0546754B1B6813F0020F54D1FFF7AC
:10119000F1FD401B0228F5D903207FE16F4A136857
:1011A00043F480331360B5E76C4B1A6842F4802235
:1011B0001A601A6842F480321A60ABE7FFF7DAFD72
:1011C0000546664B1B6813F4003FC3D0FFF7D2FD02
:1011D000401B6428F5D9032060E1604B5B6813F481
:1011E000800FC6D15D4B1B6813F0020F03D0E3687C
:1011F000012B40F05081594A136823F0F80321690C
:1012000043EAC1031360236813F0080F42D06369F7
:101210006BB3534B0122C3F8802EFFF7ABFD05469D
:101220004E4B5B6F13F0020F34D1FFF7A3FD401B51
:101230000228F5D9032031E1484A136823F0F80366
:10124000216943EAC1031360DDE7454B00221A60C0
:10125000FFF790FD0546414B1B6813F0020FD2D0FB
:10126000FFF788FD401B0228F5D9032016E13C4B0F
:101270000022C3F8802EFFF77DFD0546374B5B6FDC
:1012800013F0020F06D0FFF775FD401B0228F5D9B9
:10129000032003E1236813F0040F77D02F4B1B6C5E
:1012A00013F0805F33D1002301932C4B1A6C42F072
:1012B00080521A641B6C03F080530193019B01253B
:1012C000284B1B6813F4807F23D0A368012B34D0F4
:1012D000052B38D0214B1A6F22F001021A671A6FC2
:1012E00022F004021A67A368002B3DD0FFF742FDED
:1012F00006461A4B1B6F13F0020F46D1FFF73AFD5B
:10130000801B41F288339842F3D90320C6E00025C0
:10131000D6E7144A136843F480731360FFF72AFD7D
:101320000646104B1B6813F4807FCED1FFF722FDD9
:10133000801B0228F5D90320B0E0084A136F43F060
:1013400001031367CFE7054B1A6F42F004021A67D7
:101350001A6F42F001021A67C5E700BF0038024069
:101360000000474200700040FFF704FD0646524B64
:101370001B6F13F0020F08D0FFF7FCFC801B41F23B
:1013800088339842F3D9032088E0EDB9A369002B94
:1013900000F08380484A926802F00C02082A51D07B
:1013A000022B17D0454B00221A66FFF7E3FC0446D8
:1013B000414B1B6813F0007F42D0FFF7DBFC001BA2
:1013C0000228F5D9032069E03B4A136C23F08053CF
:1013D0001364DBE7394B00221A66FFF7CBFC0546A6
:1013E000354B1B6813F0007F06D0FFF7C3FC401B92
:1013F0000228F5D9032051E0E369226A1343626AA7
:1014000043EA8213A26A5208013A43EA0243E26ABB
:1014100043EA0263284A5360284B01221A66FFF709
:10142000A9FC0446244B1B6813F0007F06D1FFF78C
:10143000A1FC001B0228F5D903202FE000202DE09D
:1014400000202BE0012B2BD01B4B5B6803F48001A9
:10145000E269914226D103F03F02216A8A4223D1F8
:10146000616A47F6C0721A40B2EB811F1ED103F4C5
:101470004031A26A5208013AB1EB024F18D103F091
:101480007063E26AB3EB026F14D1002006E0012022
:101490007047012002E0012000E0002002B070BD92
:1014A0000120FBE70120F9E70120F7E70120F5E73C
:1014B0000120F3E70120F1E7003802400000474235
:1014C00008B5254B9B6803F00C03042B3FD0082B79
:1014D0003FD1214B5A6802F03F025B6813F4800F42
:1014E00012D01D4B5968C1F388111C480023A1FB81
:1014F0000001FEF785FE184B5B68C3F3014301331F
:101500005B00B0FBF3F025E0134B5968C1F3881C76
:101510004FEA4C11B1EB0C006EEB0E0E4FEA8E133E
:1015200043EA90638101091A63EB0E03DB0043EA8F
:101530005173C90011EB0C0C43F100039902002315
:101540004FEA8C2041EA9C51FEF75AFED3E703484C
:1015500000E0034808BD00BF0038024040787D012C
:101560000024F400002800F09B8070B50D4604466E
:101570004F4B1B6803F00F038B4208D2CBB24C4A8F
:101580001370136803F00F038B4240F08B802368C5
:1015900013F0020F17D013F0040F04D0454A9368DC
:1015A00043F4E0539360236813F0080F04D0414ADA
:1015B000936843F4604393603E4A936823F0F003DA
:1015C000A1680B439360236813F0010F32D0636866
:1015D000012B21D09A1E012A25D9364A126812F011
:1015E000020F61D033498A6822F0030213438B60F3
:1015F000FFF7C0FB06462F4B9B6803F00C036268A5
:10160000B3EB820F16D0FFF7B5FB801B41F2883396
:101610009842F0D9032042E0264A126812F4003FB3
:10162000E0D101203BE0234A126812F0007FD9D1BB
:10163000012034E01E4B1B6803F00F03AB4207D9B7
:10164000EAB21B4B1A701B6803F00F03AB422DD19B
:10165000236813F0040F06D0164A936823F4E0536E
:10166000E1680B439360236813F0080F07D0114A19
:10167000936823F46043216943EAC1039360FFF751
:101680001FFF0C4B9B68C3F303130B4AD35CD8407A
:101690000A4B18600A4B1868FFF740FA002070BD2B
:1016A000012070470120FAE70120F8E70120F6E762
:1016B000003C024000380240CC50000800000020EE
:1016C00008000020014B1868704700BF0000002090
:1016D00008B5FFF7F7FF044B9B68C3F38223034A67
:1016E000D35CD84008BD00BF00380240DC50000881
:1016F00008B5FFF7E7FF044B9B68C3F34233034A87
:10170000D35CD84008BD00BF00380240DC50000860
:101710000F2303600B4B9A6802F0030242609A6841
:1017200002F0F00282609A6802F4E052C2609B68A4
:10173000DB0803F4E0530361034B1B6803F00F0362
:101740000B60704700380240003C024070470000C8
:1017500090F83D30DBB2012B37D1022380F83D30C9
:101760000268D36843F00103D3600368194A9342C7
:1017700020D0B3F1804F1DD0A2F57C42934219D006
:1017800002F58062934215D002F58062934211D037
:1017900002F5784293420DD002F57052934209D07F
:1017A000A2F59432934205D01A6842F001021A6001
:1017B000002070479A6802F00702062A07D01A68CC
:1017C00042F001021A60002070470120704700209B
:1017D000704700BF00000140704770477047704776
:1017E00010B5044603681A6912F0020F11D0DA68C6
:1017F00012F0020F0DD06FF002021A61012303777D
:1018000003689B6913F0030F70D0FFF7E6FF002316
:10181000237723681A6912F0040F12D0DA6812F0E5
:10182000040F0ED06FF004021A610223237723689D
:101830009B6913F4407F5FD02046FFF7CEFF002363
:10184000237723681A6912F0080F12D0DA6812F0B1
:10185000080F0ED06FF008021A6104232377236863
:10186000DB6913F0030F4ED02046FFF7B6FF0023CD
:10187000237723681A6912F0100F12D0DA6812F079
:10188000100F0ED06FF010021A610823237723681F
:10189000DB6913F4407F3DD02046FFF79EFF002315
:1018A000237723681A6912F0010F03D0DA6812F067
:1018B000010F36D123681A6912F0800F03D0DA685D
:1018C00012F0800F34D123681A6912F0400F03D050
:1018D000DA6812F0400F32D123681A6912F0200F33
:1018E00003D0DA6812F0200F30D110BDFFF774FF7B
:1018F0002046FFF773FF8AE72046FFF76DFF20467B
:10190000FFF76CFF9BE72046FFF766FF2046FFF7D7
:1019100065FFACE72046FFF75FFF2046FFF75EFF5D
:10192000BDE76FF001021A612046FFF757F8C1E7E3
:101930006FF080021A61204600F0A1F8C3E76FF053
:1019400040021A612046FFF74AFFC5E76FF0200208
:101950001A61204600F092F8C7E700000368304A99
:10196000904212D0B0F1804F0FD0A2F57C4290424D
:101970000BD002F58062904207D002F5806290425F
:1019800003D002F57842904203D123F070034A68F5
:101990001343234A90422AD0B0F1804F27D0A2F5BA
:1019A0007C42904223D002F5806290421FD002F523
:1019B000806290421BD002F57842904217D002F527
:1019C0007052904213D002F5806290420FD002F51F
:1019D000806290420BD0A2F59832904207D002F577
:1019E0008062904203D002F58062904203D123F4DA
:1019F0004073CA68134323F080034A6913430360AA
:101A00008B68C3620B688362054B984203D003F571
:101A10008063984201D10B690363012343617047DE
:101A20000000014040B310B5044690F83D30F3B1DA
:101A3000022384F83D30214651F8040BFFF78EFF56
:101A4000012384F8463084F83E3084F83F3084F82F
:101A5000403084F8413084F8423084F8433084F8D0
:101A6000443084F8453084F83D30002010BD80F8C3
:101A70003C30FFF76BFEDBE7012070477047704793
:101A800038B504460268136923F44053C1680B4318
:101A9000136183680269134342691343C2691A439D
:101AA0000168CB6823F4164323F00C031343CB6087
:101AB0000268536923F4407381690B4353610368DF
:101AC000314A934206D002F58062934202D0FFF77A
:101AD000FFFD01E0FFF70CFEE369B3F5004F29D0ED
:101AE0000021031849411B1841F10001C90041EAD6
:101AF0005371DB00181863684FEA83024FEA93734F
:101B000041F10001FEF77CFB204DA5FB003251099D
:101B1000642303FB11031B013233A5FB03235B0981
:101B200003F0F00202EB011203F00F0321681344EB
:101B30008B6038BD0023021843EB0301121841F1FA
:101B40000001C90041EA5271D200101841F10001B0
:101B5000626892185B41FEF753FB0C4DA5FB003207
:101B60005109642303FB1103DB003233A5FB03237C
:101B70005B095A0002F4F87202EB011203F007034A
:101B8000216813448B60D4E7001001401F85EB519E
:101B90002DE9F84305460F4616469946DDF82080A4
:101BA0002C68246837EA04030CBF4FF0010C4FF097
:101BB000000CB4452DD1B8F1FF3FF1D0B8F1000FC2
:101BC00005D0FFF7D7F8A0EB09004045E8D92A680F
:101BD00002F10C0353E8003F23F4D0730C3242E8C7
:101BE00000310029F3D12A6802F1140353E8003FC1
:101BF00023F00103143242E800310029F3D12023FD
:101C000085F83D3085F83E30002385F83C300320D0
:101C100000E00020BDE8F88358B310B5044690F802
:101C20003D300BB3242384F83D302268D36823F47D
:101C30000053D3602046FFF723FF2268136923F483
:101C4000904313612268536923F02A035361226889
:101C5000D36843F40053D36000202064202384F829
:101C60003D3084F83E3010BD80F83C30FEF7F8FF80
:101C7000D8E7012070472DE9F04182B01E4690F868
:101C80003D30DBB2202B54D104460D46904600294E
:101C900053D0002A53D090F83C30012B51D001236F
:101CA00080F83C3000230364212380F83D30FFF7A7
:101CB00061F80746A4F82480A4F82680A368B3F549
:101CC000805F05D04FF00008002384F83C3012E01C
:101CD000236913B14FF00008F6E7A8460025F3E7A3
:101CE00038F8023B2268C3F308035360E28C92B2D7
:101CF000013A92B2E284E38C9BB273B100963B4608
:101D0000002280212046FFF743FFE0B9002DE7D0F5
:101D100015F8012B23685A60E8E700963B4600223D
:101D200040212046FFF734FF78B9202384F83D3066
:101D300000E0022002B0BDE8F0810120FAE70120B6
:101D4000F8E70220F6E70320F4E70320F2E72DE9A5
:101D5000F04182B01E4690F83E30DBB2202B5CD1C1
:101D600004460D46904600295BD0002A5BD090F8CF
:101D70003C30012B59D0012380F83C300023036410
:101D8000222280F83E200363FEF7F4FF0746A4F802
:101D90002C80A4F82E80A368B3F5805F05D04FF0A7
:101DA0000008002384F83C3017E0236913B14FF09A
:101DB0000008F6E7A8460025F3E723685B68C3F34D
:101DC000080328F8023B03E023685B682B700135A9
:101DD000E28D92B2013A92B2E285E38D9BB2BBB141
:101DE00000963B46002220212046FFF7D1FEF0B9A5
:101DF000002DE2D0A368B3F5805FE5D013B9236965
:101E0000002BE1D023685B6803F07F032B70DEE7D3
:101E1000202384F83E30002000E0022002B0BDE81C
:101E2000F0810120FAE70120F8E70220F6E703201D
:101E3000F4E7842801D0033070470020704708B5CC
:101E400000F082FF002008BD2DE9F04387B0044672
:101E50000F464569BDB18669AEB1D0F80480D0F8AF
:101E60000090B0F90800FFF7E4FF0296019500909A
:101E70003B4622694946404600F0F6FE059005982B
:101E800007B0BDE8F08365682668D4F81080B4F91F
:101E90000800FFF7CEFF05AB019300903B461FFA09
:101EA00088F23146284600F01AFF0128E7D00020CA
:101EB000E6E708B500B9012001F090F8002008BD60
:101EC00008B5416819B1012000F02CFD08BD0120C2
:101ED00000F01DFDFAE700B583B0826842B1C36827
:101EE00033B1002100914168006800F0D2FB04E0AA
:101EF00000224168006800F016FC03B05DF804FBA6
:101F000000F1080343604FF0FF328260C360036159
:101F100000230360704700230361704743684B60F0
:101F20009A688A60516099600861036801330360B0
:101F3000704730B40D68B5F1FF3F11D000F10803D0
:101F40001C465B681A68AA42FAD963684B609960BC
:101F50008C606160086103680133036030BC7047C6
:101F60000469F2E70369416882688A6041685160E8
:101F70005A68824206D0002202611A68013A1A6049
:101F80001868704782685A60F5E7000082B0002345
:101F900001930D4B1B68B3F1FF3F08D04FF0500386
:101FA00083F31188BFF36F8FBFF34F8FFEE74FF0BE
:101FB000500383F31188BFF36F8FBFF34F8F019BE3
:101FC000002BFCD002B070470C00002008480068CD
:101FD000006880F308884FF0000080F3148862B630
:101FE00061B6BFF34F8FBFF36F8F00DF00BF0000FC
:101FF00008ED00E0DFF80C00016841F470010160B9
:102000007047000088ED00E04FF0807340F8043C1A
:1020100021F0010140F8081C054B40F80C3C40F849
:10202000202C6FF0020340F8243C4438704700BF76
:102030008D1F0008000000000000000000000000EC
:10204000074B19680868B0E8F04F80F30988BFF3C0
:102050006F8F4FF0000080F311887047AFF300805E
:10206000344A00204FF0500383F31188BFF36F8F81
:10207000BFF34F8F0B4A136801331360012B00D05D
:1020800070474FF0E023D3F8043D13F0FF0FF7D073
:102090004FF0500383F31188BFF36F8FBFF34F8F5F
:1020A000FEE700BF0C000020094B1B6843B94FF04E
:1020B000500383F31188BFF36F8FBFF34F8FFEE799
:1020C000013B034A13600BB983F31188704700BFCB
:1020D0000C000020000000000000000000000000D4
:1020E000EFF30980BFF36F8F154B1A681EF0100FC6
:1020F00008BF20ED108A20E9F04F10602DE909009B
:102100004FF0500080F31188BFF34F8FBFF36F8FF4
:1021100000F08AFF4FF0000080F3118809BC1968B5
:102120000868B0E8F04F1EF0100F08BFB0EC108A3E
:1021300080F30988BFF36F8F704700BFAFF3008053
:10214000344A002008B54FF0500383F31188BFF3E1
:102150006F8FBFF34F8F00F039FE28B14FF0E023AF
:102160004FF08052C3F8042D002383F3118808BD7B
:102170004FF0E022002313619361054B1B68054972
:10218000A1FB03139B09013B5361072313617047B4
:1021900000000020D34D62104FF0E023D3F8002D53
:1021A0003D4B9A421CD04FF0E023D3F8002D3B4B1F
:1021B0009A421ED030B583B0394B1A78D2B2019210
:1021C000FF221A701B78DBB28DF803309DF80330C4
:1021D00003F05003334A1370334B07221A601BE09D
:1021E0004FF0500383F31188BFF36F8FBFF34F8F0E
:1021F000FEE74FF0500383F31188BFF36F8FBFF3F7
:102200004F8FFEE7284A1368013B13609DF80330A7
:102210005B00DBB28DF803309DF8033013F0800FC4
:10222000F0D1214B1B68032B08D04FF0500383F3F0
:102230001188BFF36F8FBFF34F8FFEE71B021A4A5F
:10224000136003F4E0631360019BDBB2144A137064
:102250004FF0E024D4F8203D43F47003C4F8203D4F
:10226000D4F8203D43F07043C4F8203DFFF780FFD1
:1022700000250E4B1D60FFF7BDFED4F8343F43F040
:102280004043C4F8343FFFF7A1FE00F0CDFEFFF756
:102290007DFE284603B030BD71C20F4170C20F41B0
:1022A00000E400E00C0E0020100E00200C000020C6
:1022B000124A12F0070F1ED0D11D21F00701C1F5FF
:1022C000705313440A460E480260002141601344D3
:1022D000083B23F007030B48036059601960991A03
:1022E00051601360084B1960084B1960084B4FF0A0
:1022F00000421A6070474FF47053E4E7180E002054
:102300002C4A0020140E0020204A00201C4A0020E5
:10231000184A0020164B1A461B688342FBD35168AB
:1023200002EB010C844509D0416800EB010C6345C8
:1023300009D00360904219D0106070474068014492
:1023400051601046F0E710B40A4C2468A3420BD049
:102350005B681944416013681B680360904200D0B9
:1023600010605DF8044B70470460F7E7704700BFEA
:102370002C4A0020140E002070B5054600F01EFD0A
:10238000364B1B68A3B1364B1B681D424ED135B18D
:10239000083515F0070F02D025F007050835002D88
:1023A00046D0304B1B68AB4251D32F4A146804E02F
:1023B000FFF77EFFE7E722461C466368AB4202D286
:1023C0002368002BF7D1254B1B68A34241D0166828
:1023D00008362368136063685B1B102B10D96019E3
:1023E00010F0070F08D04FF0500383F31188BFF3AC
:1023F0006F8FBFF34F8FFEE743606560FFF78AFF83
:10240000626818490B689B1A0B60184909688B426F
:1024100001D216490B60124B1B6813436360002303
:102420002360134A13680133136002E0002600E0C2
:10243000002600F057FD16F0070F0CD04FF05003A8
:1024400083F31188BFF36F8FBFF34F8FFEE7002632
:10245000EFE70026EDE7304670BD00BF140E002008
:10246000184A00201C4A00202C4A0020204A002044
:10247000244A0020002834D038B50446A0F10805CD
:1024800050F8043C174A1268134208D14FF0500329
:1024900083F31188BFF36F8FBFF34F8FFEE750F8C0
:1024A000081C41B14FF0500383F31188BFF36F8FC5
:1024B000BFF34F8FFEE723EA020340F8043C00F02D
:1024C0007DFC54F8041C084A13680B44136028462A
:1024D000FFF720FF054A13680133136000F002FD87
:1024E00038BD7047184A00201C4A0020284A0020A6
:1024F00010B50446FFF7B6FDA26BE36B9A4204D019
:102500000024FFF7D1FD204610BD0124F9E770B586
:1025100004461546866B026C5AB903681BB100204D
:102520000136A66370BD806800F08CFE0023A360B6
:10253000F6E76DB94068FDF7E5FF226C6368134468
:102540006360A268934219D3236863602846E7E773
:10255000C068FDF7D7FF226C5142E3689B1AE36025
:102560002268934202D2A3680B44E360022D01D09B
:102570000020D5E726B1013E0020D1E72846CFE76D
:102580000020CDE738B50546FFF76CFD95F84540CE
:1025900064B201E0013C64B2002C0ADD6B6A43B115
:1025A00005F1240000F0A4FD0028F3D000F034FE73
:1025B000F0E7FF2385F84530FFF776FDFFF752FD82
:1025C00095F8444064B201E0013C64B2002C0ADD9D
:1025D0002B6943B105F1100000F08AFD0028F3D00B
:1025E00000F01AFEF0E7FF2385F84430FFF75CFDAA
:1025F00038BD38B5E0B10D460446FFF733FD23681A
:10260000E26B216C01FB0230A0600020A0636360DC
:10261000013A02FB0133E360FF2384F8443084F87D
:102620004530FDB9236963B9FFF73EFD012038BD90
:102630004FF0500383F31188BFF36F8FBFF34F8FB9
:10264000FEE704F1100000F053FD0028ECD04FF03D
:10265000E0234FF08052C3F8042DBFF34F8FBFF338
:102660006F8FE1E704F11000FFF74AFC04F124004A
:10267000FFF746FCD8E710B5034602980C4631B97F
:102680000060C36304640121FFF7B3FF10BD026063
:10269000F7E740B94FF0500383F31188BFF36F8F12
:1026A000BFF34F8FFEE710B584B01C46844653B18C
:1026B00092B189B94FF0500383F31188BFF36F8F44
:1026C000BFF34F8FFEE74FF0500383F31188BFF342
:1026D0006F8FBFF34F8FFEE76AB148230393039BCD
:1026E000482B13D04FF0500383F31188BFF36F8F43
:1026F000BFF34F8FFEE70029EFD04FF0500383F375
:102700001188BFF36F8FBFF34F8FFEE7039B012349
:1027100084F8463000949DF818306046FFF7ABFF10
:10272000204604B010BD40B94FF0500383F3118828
:10273000BFF36F8FBFF34F8FFEE7F0B583B00D4649
:102740001446064601FB00F04830FFF715FE074629
:1027500050B1002380F846300090234600F1480233
:1027600029463046FFF787FF384603B0F0BDF0B585
:1027700085B0019288B10F461D460446B1B1022DC5
:1027800020D1E36B012B1DD04FF0500383F3118850
:10279000BFF36F8FBFF34F8FFEE74FF0500383F30C
:1027A0001188BFF36F8FBFF34F8FFEE7036C002BD1
:1027B000E5D04FF0500383F31188BFF36F8FBFF361
:1027C0004F8FFEE700F02EFD064658B9019B002B07
:1027D00048D04FF0500383F31188BFF36F8FBFF3DE
:1027E0004F8FFEE700263DE02A4639462046FFF798
:1027F0008EFE636A7BB948B14FF0E0234FF0805200
:10280000C3F8042DBFF34F8FBFF36F8FFFF74CFC5E
:10281000012005B0F0BD04F1240000F069FC00289F
:10282000F4D04FF0E0234FF08052C3F8042DBFF3F3
:102830004F8FBFF36F8FE9E7FFF736FC0020E8E723
:1028400002A800F09BFC012619E0002384F8443024
:1028500021E0002384F8453023E02046FFF792FE74
:1028600000F040FBFFF7FEFBA26BE36B9A42BBD389
:10287000022DB9D0019B002BDED0002EE0D0FFF757
:1028800013FC00F09BFAFFF7EDFB94F8442052B2E2
:10289000B2F1FF3FD9D094F8452052B2B2F1FF3FD8
:1028A000D7D0FFF701FC01A902A800F073FCD8B94A
:1028B0002046FFF71DFE0028CFD0019904F110003B
:1028C00000F0FEFB2046FFF75DFE00F00BFB00284A
:1028D000C8D14FF0E0234FF08052C3F8042DBFF36E
:1028E0004F8FBFF36F8FBDE72046FFF74BFE00F021
:1028F000F9FA00208DE748B108B500218160016038
:10290000C1600B460A46FFF732FF08BD704710B59D
:10291000024600210120FFF706FF0446FFF7EBFF08
:10292000204610BD10B582B00B4600900022114623
:102930000120FFF7AEFE0446FFF7DDFF204602B0A0
:1029400010BD0000084B1B681B6823B9074B4FF0F4
:10295000FF321A607047044B1B68DB68DB685A68FB
:10296000024B1A60704700BF384A00200C4B002011
:102970002DE9F04707469846089DDDF824900A9C0B
:10298000266B02F18042013A06EB820626F007062A
:1029900000293AD08E464FF0000CBCF10F0F0BD837
:1029A0001EF80C2004EB0C0383F834201EF80C30C6
:1029B00013B10CF1010CF0E7002384F84330062D2D
:1029C00000D90625E56265644FF0000AC4F848A006
:1029D000201DFFF7A0FA04F11800FFF79CFA24610C
:1029E000C5F10705A5616462C4F84CA084F850A045
:1029F000424639463046FFF707FB2060B9F1000F29
:102A000001D0C9F80040BDE8F087002384F83430D5
:102A1000D5E7000038B5002407E004EB84029300FA
:102A20000E481844FFF76CFA0134062CF5D90C4D0A
:102A30002846FFF765FA0B4C2046FFF761FA0A4873
:102A4000FFF75EFA0948FFF75BFA0948FFF758FA03
:102A5000084B1D60084B1C6038BD00BF404A002079
:102A6000E04A0020F44A0020184B0020444B00208C
:102A7000304B0020384A00203C4A002010B5044664
:102A8000FFF7F0FA214A136801331360204B1B68EB
:102A90005BB1204B1B686BB91D4B1B68DA6AE36A9C
:102AA0009A4207D81A4B1C6004E0194B1C6013684B
:102AB000012B28D0184A136801331360E06A012300
:102AC0008340164A11680B43136000EB8000211D00
:102AD000134B03EB8000FFF721FAFFF7E5FA0D4BEC
:102AE0001B687BB10A4B1B68DA6AE36A9A4209D217
:102AF0004FF0E0234FF08052C3F8042DBFF34F8F07
:102B0000BFF36F8F10BDFFF785FFD3E7CC4A0020DE
:102B1000344A00202C4B0020D84A0020DC4A0020F8
:102B2000404A002010B5044690F8513063B1012BA3
:102B300011D0022B0ED04FF0500383F31188BFF356
:102B40006F8FBFF34F8FFEE7006BFFF793FC2046BC
:102B5000FFF790FC10BDFFF78DFCFBE70F4B1B68E8
:102B6000D3B110B5FFF77EFA0D4BDB68DC68201D92
:102B7000FFF7F8F90B4A1368013B1360074A136823
:102B8000013B1360FFF790FA2046FFF7CBFF034BA2
:102B90001B68002BE6D110BD704700BFD04A002053
:102BA000444B0020CC4A002008B5FFF7D7FF074B65
:102BB0001B68012BF9D94FF0E0234FF08052C3F886
:102BC000042DBFF34F8FBFF36F8FEEE7404A002015
:102BD00070B504460D461D4B1E681D4B1868043029
:102BE000FFF7C0F950B91A4B1B68DA6A012303FAE0
:102BF00002F218490B6823EA02030B60B4F1FF3FAD
:102C00000DD03444124B1B685C60A64210D9124BA5
:102C100018680F4B19680431FFF78BF970BD002D50
:102C2000EFD00B4B196804310C48FFF777F9F5E743
:102C30000B4B1868064B19680431FFF77AF9094BFA
:102C40001B68A342EAD9074B1C60E7E7584B0020FA
:102C5000344A0020DC4A00203C4A0020304B00204F
:102C6000384A00200C4B002030B587B00B9C7CB15B
:102C70000C9DB5B154250495049D542D1AD04FF0E8
:102C8000500383F31188BFF36F8FBFF34F8FFEE7BD
:102C90004FF0500383F31188BFF36F8FBFF34F8F53
:102CA000FEE74FF0500383F31188BFF36F8FBFF33C
:102CB0004F8FFEE7049D0C9D2C63022485F8514044
:102CC00000240394029505AC01940A9C0094FFF73C
:102CD0004FFE0C98FFF7D2FE059807B030BD2DE9E6
:102CE000F04385B00746884614461E469000FFF71D
:102CF00043FB00B381465420FFF73EFB0546B0B1CD
:102D0000C0F83090E5B1002385F851300393029567
:102D10000D9B01930C9B0093334622464146384657
:102D2000FFF726FE2846FFF7A9FE012005E04846EA
:102D3000FFF7A0FBE6E74FF0FF3005B0BDE8F083FA
:102D40004FF0FF30F9E7000010B588B0002405947B
:102D5000069407AA06A905A8FDF75EFD059B029348
:102D6000069B019300942346079A0E490E48FFF7ED
:102D70007BFF0E4B186090B14FF0500383F3118826
:102D8000BFF36F8FBFF34F8F094B4FF0FF321A60C5
:102D9000084B01221A60084B1C60FFF7FDF908B0D0
:102DA00010BD00BFE4500008A92B0008084B00200C
:102DB0000C4B00202C4B0020584B0020024A13687B
:102DC00001331360704700BFD44A0020F8B53A4B76
:102DD0001B68002B69D1394B1D6801351D60C5B9D1
:102DE000374B1B681B6843B14FF0500383F31188C6
:102DF000BFF36F8FBFF34F8FFEE7314A1168314B3E
:102E0000186810601960304A136801331360FFF7C7
:102E100099FD2E4B1B68AB423DD900272C4B1B68FC
:102E2000DB6A03EB83039A002A4B9B58012B00D9E2
:102E30000127294B1B68002B3CD001273AE00127D2
:102E40001F4B1B681B6843B31D4B1B68DB68DC68AA
:102E500063689D4226D3261D3046FFF783F8A36A98
:102E60001BB104F11800FFF77DF8E36A01229A40D4
:102E70001A49086802430A6003EB83039A0031464B
:102E800014481044FFF74AF8E26A114B1B68DB6AEA
:102E90009A42D4D2D4E70027D2E70C4B4FF0FF324E
:102EA0001A60BBE7094A1360B8E70D4A136801339B
:102EB000136000273846F8BDD44A0020584B002044
:102EC000384A00203C4A0020104B00200C4B0020C8
:102ED000344A0020404A00205C4B0020DC4A00209D
:102EE000144B002038B5354B1B6843B94FF05003E5
:102EF00083F31188BFF36F8FBFF34F8FFEE7FFF7A8
:102F0000B1F82E4B1A68013A1A601B68002B4FD19A
:102F10002B4B1B680BB900244BE00024294B1B688A
:102F20001BB3284BDB68DC6804F11800FFF71AF8C4
:102F3000251D2846FFF716F8E06A01238340224A40
:102F400011680B43136000EB800029461F4B03EB15
:102F50008000FEF7E3FFE26A1D4B1B68DB6A9A42C2
:102F6000DCD31C4B01221A60D8E70CB1FFF7EAFC56
:102F7000194B1C6884B9174B1C68D4B14FF0E0237F
:102F80004FF08052C3F8042DBFF34F8FBFF36F8F04
:102F900001240EE0013C07D0FFF718FF0028F9D00C
:102FA0000C4B01221A60F5E70B4B00221A60E2E796
:102FB0000024FFF779F8204638BD00BFD44A00202E
:102FC000CC4A0020184B0020DC4A0020404A002058
:102FD000344A00205C4B0020144B002010B5A8B1EF
:102FE0000446104B1B6843B14FF0500383F3118824
:102FF000BFF36F8FBFF34F8FFEE7FFF7DFFE0021B8
:103000002046FFF7E5FDFFF76DFF48B94FF0E023DD
:103010004FF08052C3F8042DBFF34F8FBFF36F8F73
:1030200010BD00BFD44A0020204B1B681BB1204BB1
:1030300001221A6070471E4B00221A601D4B1B684C
:10304000B3FA83F3DBB2C3F11F0303EB83018A00FE
:1030500019498A5842B94FF0500383F31188BFF3DE
:103060006F8FBFF34F8FFEE7134903EB830082009E
:103070000A4450684068506003EB830C4FEA8C02AE
:1030800008321144884209D003EB83039A000A4BAB
:1030900013445B68DA68094B1A60704740686246FF
:1030A0009100054A0A445060EEE700BFD44A002070
:1030B0005C4B0020DC4A0020404A0020344A0020BB
:1030C00058B110B50C46094A11681831FEF731FFA6
:1030D00001212046FFF77CFD10BD4FF0500383F324
:1030E0001188BFF36F8FBFF34F8FFEE7344A002084
:1030F00038B5C368DC6824B304F118052846FEF728
:1031000031FF184B1B682BBB251D2846FEF72AFFF5
:10311000E06A01238340144A11680B43136000EBFB
:1031200080002946114B03EB8000FEF7F7FEE26AB0
:103130000F4B1B68DB6A9A4211D901200D4B1860B6
:1031400038BD4FF0500383F31188BFF36F8FBFF387
:103150004F8FFEE729460848FEF7E0FEE7E700202C
:10316000EEE700BFD44A0020DC4A0020404A00209D
:10317000344A00205C4B0020184B0020034B1B6896
:103180000360034B1B684360704700BF104B002077
:10319000584B0020F8B5C8B10C460546F9B1FEF70A
:1031A00061FF1B4B19686B68C81A2268B2F1FF3FB8
:1031B00026D0184E36682F68B74201D08B4224D9EA
:1031C000824215D80023236001241AE04FF05003F7
:1031D00083F31188BFF36F8FBFF34F8FFEE74FF07C
:1031E000500383F31188BFF36F8FBFF34F8FFEE758
:1031F0005B1A134423602846FFF7C0FF002400E059
:103200000024FEF751FF2046F8BD0124F9E700BF76
:10321000584B0020104B0020014B01221A607047D0
:103220005C4B0020054B1B6833B1054B1B680BB191
:103230000020704702207047012070472C4B00206F
:10324000D44A002000284CD038B50446274B1B68D0
:10325000834208D04FF0500383F31188BFF36F8F80
:10326000BFF34F8FFEE7836C43B94FF0500383F3F6
:103270001188BFF36F8FBFF34F8FFEE7013B83646D
:10328000C16A426C91422ED00BB1002038BD051DA1
:103290002846FEF767FE70B9E26A02EB82039B00E4
:1032A0001349CB583BB9012303FA02F211490B68C9
:1032B00023EA02030B60606CE062C0F10703A361C4
:1032C000012404FA00F30B4A11680B43136000EB6E
:1032D00080002946064B03EB8000FEF71FFE2046C8
:1032E000D4E7002070470020D0E700BF344A002018
:1032F000404A0020DC4A002038B505464FF0E02364
:103300001B6913F0010F0ED04FF0E02254690F4BF0
:103310001B680F49A1FB033C4FEA9C4C05FB0CFCCE
:103320009369002107E0FEF723FFEDE7E01A02446E
:103330001144614509D21A464FF0E0239B699A4235
:10334000FAD0F3D9D21A1144F3E738BD00000020B7
:1033500083DE1B4308B501224FF4E0510148FDF71D
:1033600065FE08BD001C024008B5054B1860054B02
:103370001868002302221946806800F037F908BD5A
:10338000604B002010000020022801D80120704767
:1033900008B500F059F809230360002008BD0000BB
:1033A00010B5013801280AD814464FF0FF3392B205
:1033B00007480068FEF75FFC40B9204610BD00F0EA
:1033C00043F8092303604FF0FF30F7E70520F5E7E6
:1033D000604B0020022801D80020704708B500F09B
:1033E00033F8092303604FF0FF3008BD08B500F043
:1033F0002BF8092303604FF0FF3008BD08B548B92A
:103400004FF0FF33012208480068FEF7A0FC40B9E6
:10341000012008BD00F018F8092303604FF0FF30C9
:10342000F7E70520F5E700BF604B002008B502284C
:1034300004D84FF400534B60002008BD00F004F89E
:1034400009230360F8E70000014B1868704700BFCC
:103450001000002070B50D4E0D4D761BB61006D035
:10346000002455F8043B01349847A642F9D1094E8F
:10347000094D761B01F0C6FDB61006D0002455F8A4
:10348000043B01349847A642F9D170BDFC500008B6
:10349000FC50000804510008FC500008830730B5B8
:1034A00048D0541E002A3FD0CAB2034601E0013C76
:1034B0003AD303F8012B9D07F9D1032C2DD9CDB2B6
:1034C00045EA05250F2C45EA054536D9A4F1100239
:1034D00022F00F0C03F1200EE6444FEA121C03F118
:1034E000100242E9045542E9025510327245F8D102
:1034F0000CF1010214F00C0F03EB021204F00F0C9C
:1035000013D0ACF1040323F003030433134442F853
:10351000045B9342FBD10CF003042CB1CAB21C44EF
:1035200003F8012B9C42FBD130BD64461346002CAE
:10353000F4D1F9E703461446BFE71A46A446E0E78C
:1035400070B5054688B008460C46FDF779F8224E5E
:10355000AA6B059001214318CDE9066104A8022158
:1035600004940393AC680190029122B3636E13F04C
:10357000010FB4F90C309AB201D1980525D5910408
:1035800006D4626E43F4005322F40052A3816266B3
:10359000284601AA214600F0DBFB636E002814BF19
:1035A0004FF0FF350A25DA0702D4A3899B0506D51B
:1035B000284608B070BD284600F0CCF9D6E7A06DCB
:1035C00000F068FD284608B070BDA06D00F060FDF9
:1035D000B4F90C309AB2D2E7F0500008024B014621
:1035E0001868FFF7ADBF00BF100000202DE9F043C1
:1035F000694CD4F8008083B004460E4617461D4639
:10360000B8F1000F03D0D8F83830002B77D0022F54
:1036100005D0012F00F2AC80002DC0F2A980636EAE
:10362000DA0752D52146404600F060F9216B41B1DE
:1036300004F14003994202D0404600F083FA00238F
:103640002363B4F90CC000231CF0800FA3616360F6
:1036500064D12CF44A6C2CF0030C022FA4F80CC09B
:103660006AD001AB6A462146404600F085FDA38939
:103670001843A081002D2FD0002E2ED0D8F838303E
:10368000002B38D0009B2660AB42B4F90C301CBF35
:1036900043F40063A381012F04BF43F00103A3811E
:1036A0009AB213F00803C4E904652CD0D1075DD5A4
:1036B0006D42A561656E002315F00105A36027D05A
:1036C0000025284603B0BDE8F083A3899B05A9D453
:1036D000A06D00F0DDFCA5E7009D284600F07CFD14
:1036E0000646002847D0A38943F08003A381D8F879
:1036F0003830002BC6D1404600F02CF9C2E74046D6
:1037000000F028F983E7A360656E15F00105D7D1B5
:10371000930524D5284603B0BDE8F08321694046CF
:1037200000F010FAB4F90CC02CF44A6C2CF0030C25
:10373000022FA4F80CC094D10025002204F1430309
:10374000A2600122C4E904322360636E4CF0020CD3
:10375000D807A4F80CC0DDD41CF4007FDAD1A06D2A
:1037600000F098FC284603B0BDE8F083A560CBE7E5
:103770004FF0FF35CEE7DDF80090A94504D048466C
:1037800000F02AFD064620B9B4F90CC04FF0FF3511
:10379000D3E74D46A7E700BF10000020024B13B14E
:1037A000024800F005B8704700000000793A0008B0
:1037B000002301461A46184601F012BBB1F90C204D
:1037C0002DE9F0410C461107804647D4636842F466
:1037D0000062002BA2815EDDA56A002D58D0002377
:1037E000D8F80060C8F8003093B212F4805256D175
:1037F0000123E1694046A847431C67D0A389A56A15
:103800005F0705D56368C01A236B0BB1E36BC01A61
:10381000E169024600234046A847411C41D1D8F83F
:103820000030002B3DD01D2B01D0162B56D1A38983
:103830002269226023F4006300216160A381216B6F
:10384000C8F8006021B304F14003994202D0404619
:1038500000F078F900202063BDE8F0812669BEB150
:1038600093B2256826609A070CBF63690023AD1BDD
:10387000A3600BE02B463246E169676A4046B847D1
:10388000B0F1000CA5EB0C05664417DD002DF1DC52
:103890000020BDE8F081E36B002B9DDCF8E7206D94
:1038A000AEE7B4F90C302269226023F40063A381EF
:1038B0000022DB046260C2D52065C0E7A38943F023
:1038C00040034FF0FF30A381BDE8F081D8F800300D
:1038D000002B93D01D2B06D0162B04D0A38943F0C8
:1038E0004003A381D5E7C8F80060D1E738B50C469E
:1038F000054608B1836BA3B1B4F90C00B8B1636E8F
:10390000DB0701D4810515D528462146FFF756FF70
:10391000636EDA07054602D4A3899B050ED52846B7
:1039200038BD00F017F8B4F90C000028E7D10546BF
:10393000284638BDA06D00F0ABFBE5E7A06D00F0B8
:10394000A9FB284638BD00BF014900F079BB00BF84
:10395000914E00082DE9F0478246394800F098FB67
:10396000DAF83840002C66D1DAF80450354ACAF843
:103970003C200323CAE9B843DFF8DC90DFF8DC80A1
:10398000314F324E04230AF53B72CAF8E822214631
:10399000C5E90243C5E90044C5E904446C66082250
:1039A000AC6105F15C00FFF779FDC5E90759C5E990
:1039B0000987EE6205F1580000F066FBDAF808505E
:1039C000234BEB602146C5E90044C5E904446C661D
:1039D000AC60AC61082205F15C00FFF75FFDC5E952
:1039E0000759C5E90987EE6205F1580000F04CFB64
:1039F000DAF80C50174BEB602146C5E90044C5E9E5
:103A000004446C66AC60AC61082205F15C00FFF711
:103A100045FD05F15800C5E90759C5E90A76C5F81D
:103A2000248000F031FB0123CAF838300448BDE897
:103A3000F04700F02FBBBDE8F047014800F02ABB7B
:103A4000704B002049390008B94C0008D94C0008D7
:103A50000900010012000200554C0008794C0008D2
:103A6000014800F015BB00BF6C4B0020014800F07E
:103A700011BB00BF6C4B002038B5084B084D5B1BD9
:103A80009C1007D0043B1D44013C55F8043998476D
:103A9000002CF9D1BDE8384001F0BABA085100084D
:103AA00004510008F8B5244F0C46064600F0C8FE45
:103AB000BA685568C4F57E630F3325F003052B44BF
:103AC00023F47F6323F00F03A3F58054B4F5805FE4
:103AD00007DB0021304601F0ABF8BB682B4498426D
:103AE00004D0304600F0B2FE0020F8BD61423046FE
:103AF00001F09EF801300DD0104ABB682D1B45F037
:103B000001055D60136830461B1B136000F09EFECC
:103B10000120F8BD0021304601F08AF8BA68831A06
:103B20000F2BDEDD43F001035360054B03491B6897
:103B3000C01A0860D5E700BF44040020744B002081
:103B40004C080020002961D0F8B50C46064600F06C
:103B500077FE54F8042C7B4FA4F1080522F00101F4
:103B600005EB010CB868DCF80430604523F0030372
:103B700000F08B80D207CCF8043032D454F8082CF3
:103B8000AD1A1144AA6807F1080082426AD00CEB12
:103B90000304D4F804E0EC68D4601EF0010FA260C6
:103BA00000F0978041F001036B60CCF80010B1F594
:103BB000007F35D27A68CB08480901210133814062
:103BC0001143796007EBC30257F83310083AC5E98F
:103BD000021247F83350CD603046BDE8F84000F09F
:103BE00035BE0CEB03025268D00710D4194407F11C
:103BF0000800DCF80830834273D0DCF80C20DA606F
:103C0000936041F001036B606950D0E7704741F069
:103C10000103B1F5007F44F8043CCCF80010C9D38F
:103C2000B1F5206F4FEA512348D28B0903F13900D7
:103C300003F13802C300F818FB580838984259D0ED
:103C40005A6822F003028A4202D99B689842F7D14F
:103C5000D868C5E902308560DD603046BDE8F840CF
:103C600000F0F4BD0CEB03025268D20763D40B449E
:103C7000DCE90212CA60916043F001026A603046DA
:103C8000EB50BDE8F84000F0E1BD0B44D10707D48C
:103C900054F8082CAD1A1344D5E90212CA60916099
:103CA00043F001026A60284ABD6012689A4293D8C4
:103CB000264B30461968FFF7F5FE8DE7142B0AD91D
:103CC000542B1FD80B0B03F16F0003F16E02C300DE
:103CD000B1E719448DE703F15C0003F15B02C30017
:103CE000A9E741F00103C7E90455C5E902006B608B
:103CF000695071E779689210012404FA02F20A43CC
:103D00007A60A6E7B3F5AA7F06D8CB0B03F178005B
:103D100003F17702C3008EE740F25452934206D873
:103D20008B0C03F17D0003F17C02C30083E74FF4A9
:103D30007E737E227FE741F001036B60CCF80010B8
:103D40004AE700BF4404002050080020A44B002094
:103D50009368002B00F085802DE9F04FB1F90C300D
:103D60000C461907804683B0174698B225D52369BB
:103D70001BB310F002033D682DD04FF0000ADFF8AE
:103D8000BCB25646B9465E453346524628BF5B46EE
:103D90004046002E52D0E169676AB847002856DDD8
:103DA000D9F808301B1A8244361AC9F80830002B9B
:103DB000E9D1002003B0BDE8F08F2146404600F075
:103DC000A5FF002840F03681B4F90C303D6898B268
:103DD00010F00203D1D110F0010944D14E460097F2
:103DE00046B38205D4F808B040F18380B3455A4603
:103DF00000F2B28010F4906F40F0BF802068019212
:103E0000494600F0A1FCA368019AA3EB0B012368CB
:103E1000A1601344B24623600026009B9868A0EB83
:103E20000A00D14498600028C3D0B4F90C0080B2D5
:103E3000002ED6D1D5E900960835D1E7D5E900A600
:103E40000835A0E721464046FFF750FD80B3B4F99E
:103E50000C3043F040034FF0FF30A38103B0BDE8C6
:103E6000F08F002070471E46AA46994618461D4608
:103E7000009756B388B34A46D4E904132068B24287
:103E800028BF3246884205D9A16803EB010B5A4589
:103E900000F3A680934263DCE169676A2A464046E4
:103EA000B847B0F1000BD2DDB9EB0B09CAD0012045
:103EB000009A9368A3EB0B035D44A6EB0B0693609B
:103EC000002B3FF476AF002ED4D10AF1080353E95A
:103ED00002569A460833002EF9D032460A21284667
:103EE000FCF71EFC002800F09C800130A0EB0509C7
:103EF000C1E720682369984216D86369B34213D892
:103F00006FF00042B24228BF3246E16992FBF3F201
:103F1000676A02FB03F340464A46B847B0F1000A1D
:103F200095DDA6EB0A0678E7B345DA4628BFB24628
:103F30005246494600F008FCA3682268A3EB0A0336
:103F40005244A3602260002BEBD121464046FFF78C
:103F5000CDFC0028E5D07AE72068B34632464EE72C
:103F60002946019200F0F0FB019AA3689B1AA36016
:103F7000236813442360934696E723682169A3EBE3
:103F8000010B636903EB430A0AEBDA7A0BF10103D5
:103F90004FEA6A0A33445345524684BF9A46524612
:103FA00043052CD51146404600F01EF900283BD0B1
:103FB0005A4621690190FCF7A5FAA289019B22F4D7
:103FC000906242F08002A28103EB0B002361AAEB16
:103FD0000B03C4F814A0A3602060B34632460EE77A
:103FE00029465A4600F0B0FB23685B442360214613
:103FF0004046FFF77BFC00283FF456AF27E74046DA
:1040000000F02AFC03460028DED121694046FFF774
:1040100099FDB4F90C300C2223F08003C8F800207D
:1040200017E7721C914627E70C22B4F90C30C8F848
:1040300000200EE74FF0FF30BCE600BF00FCFF7F22
:104040002DE9F8430746884600F538764FF0000919
:10405000D6E90154013D11D4A389012B05F1FF35A7
:1040600008D9B4F90E300133214603D03846C04791
:1040700049EA00096B1C04F16804EDD13668002E92
:10408000E6D14846BDE8F883704700BF704700BFDF
:10409000704700BF704700BF2DE9F0418B890C4687
:1040A000990796B008D504F143030122C4E904320C
:1040B000236016B0BDE8F081B4F90E100029064661
:1040C00027DB6A4600F04AFF002821DB019D05F44A
:1040D0007045A5F50055B5FA85F54FF480686D0972
:1040E0004FF400674146304600F07EF8B4F90C30DA
:1040F000F0B1204AF26343F08003C4F81480A38136
:104100002060206135BB3B43A38116B0BDE8F08140
:10411000A38913F0800519D04FF04008414630467E
:1041200000F062F80025B4F90C302F460028E0D1E9
:104130009A05BED423F0030304F1430243F00203C3
:104140000121C4E90421A3812260B2E74FF4806811
:104150002F46C7E7B4F90E10304600F015FF10B92E
:10416000B4F90C30CFE7A38923F0030343F0010334
:104170001BB2C8E74939000870B50C46B1F90E10FA
:10418000002996B015461E4614DB6A4600F0E6FE8E
:1041900000280FDB019A02F47042A2F50052B2FA35
:1041A00082F24FF4806352094FF4006032602B605A
:1041B00016B070BDB4F90C10002311F0800033600C
:1041C00004D0402218462A6016B070BD4FF48063B8
:1041D0002B6016B070BD00BF024B0146186800F09E
:1041E00003B800BF100000202DE9F04F01F10B06CD
:1041F000162E83B0044624D8102900F2BA8000F0AD
:104200001FFB102618220220B54F3A44A2F10801E4
:1042100053688B4200F0BA805A68D96822F00302D2
:104220001A449D68E9608D60516841F001012046A3
:10423000516003F1080500F009FB284603B0BDE812
:10424000F08F36F0070600F19480B14200F29180C1
:1042500000F0F6FAB6F5FC7FC0F09A81730A00F020
:104260008F80042B00F26F81B30903F1390003F151
:10427000380CC3009A4F3B44A3F108055B689D428C
:1042800006D10CE0002980F22781DB689D4206D030
:104290005A6822F00302911B0F29F3DD60463D6945
:1042A000DFF850C265457CD06A6822F00302931B98
:1042B0000F2B00F37B81002BC7E904CC80F26C81CB
:1042C000B2F5007F80F01A81D308796801334FEA94
:1042D000521E012202FA0EF20A4357F833E0C5F8E3
:1042E00008E007EBC3010839E9607A6047F833500A
:1042F000CEF80C50831001219940914257D81142B9
:1043000006D120F003004900114200F10400FAD068
:1043100007EBC0094D468646D5F80C80454508D1C7
:104320001DE1002B80F22481D8F80C80454500F077
:104330001681D8F8042022F00302931B0F2BF0DD26
:104340002046D8E9025408EB060146F00106C8F8F9
:104350000460EC60A56043F00104C7E90411C1E901
:1043600002CC4C6048F8023000F070FA08F1080501
:1043700002E00C2323600025284603B0BDE8F08F3F
:104380004FF4007340204FF03F0C73E7D3689A421C
:1043900008BF02307FF440AF3D69DFF858C1654582
:1043A00082D17A688310012199409142A7D9BD68D2
:1043B0006B6823F003094E4503D8A9EB06030F2BC6
:1043C0007ADCDFF834B1474BDBF800201B680132A0
:1043D000334405EB090A00F0338103F580530F33B2
:1043E00023F47F6828F00F084146204600F020FCA7
:1043F000411C024600F0F380824500F2EE803A4B09
:10440000196841441960084600F04E81DBF800103D
:10441000019301311BBFA2EB0A0A5044CBF80020E4
:10442000186012F0070B00F01781CBF108010A4465
:10443000CBF5805190440831A1EB0801C1F30B0A80
:1044400051462046009200F0F3FB421CDDE90023B8
:1044500000F04F81801A00EB0A081968BA6048F032
:1044600001005144BD425060196000F02981B9F14A
:104470000F0F40F227816868A9F10C0C2CF0070C93
:1044800000F0010040EA0C0068604FF0050E05EBFB
:104490000C00BCF10F0FC0E901EE00F23281506850
:1044A0001546124B1A688A4238BF1960104B1A68B9
:1044B0008A4238BF196094E0AA1943F0010346F01C
:1044C00001066E602046BA60536000F0BFF90835FF
:1044D000284603B0BDE8F08FD9681A44A1E600BFB2
:1044E00044040020A44B0020744B00209C4B00206F
:1044F000A04B00204C0400204C080020B2F5206F97
:104500004FEA522363D3142B00F2B78003F15C010E
:10451000C9005B3307EB010E7958AEF1080E8E45EA
:1045200000F091804B6823F00303934202D989681D
:104530008E45F7D1D1F80CE07A68C5E9021ECEF8B5
:104540000850CD60D6E6142B59D9542B00F29D802B
:10455000330B03F16F0003F16E0CC3008AE60EF11A
:10456000010E1EF0030F05F108057FF4D5AE51E0F2
:10457000424445465368D8F80C1043F00103536099
:1045800055F8083F2046D9608B6000F05FF9F3E6EC
:10459000F00806F1080237E62A442046536843F043
:1045A00001035360083500F051F9E5E6A9192046EA
:1045B00046F0010643F001046E60C7E90411C1E949
:1045C00002CC4C60AB5000F041F90835D4E69309B9
:1045D00003F13901C90038339CE7BD425FD0BD68A3
:1045E000686820F003084645A8EB060302D80F2BA5
:1045F0003FF762AF204600F029F90025BCE603F141
:104600005C0003F15B0CC30034E659F808394B45F4
:1046100040F0968010F0030F00F1FF30F5D17B6879
:1046200023EA01037B60490099423FF6C0AE19B905
:10463000BDE649000EF1040E1942FAD0704667E655
:1046400003F11008D0E69A104FF001087B6808FAD1
:1046500002F21A437A6070E702EB08014942C1F3A3
:104660000B0A51462046009200F0E2FA431CDDE9B5
:1046700000237FF4EFAEDA46EFE6542B25D8130B78
:1046800003F16F01C9006E3344E7B3F5AA7F25D863
:10469000F30B03F1780003F1770CC300EAE5294B33
:1046A000186840441860B1E6CAF30B0CBCF1000F67
:1046B0007FF4ACAEBD68C84448F001006860F0E625
:1046C0001546EEE60123536094E7B3F5AA7F23D89D
:1046D000D30B03F17801C90077331BE740F2545242
:1046E000934223D8B30C03F17D0003F17C0CC3008B
:1046F000C0E5ABF1080BD844A8EB02084FF0000A64
:10470000ABE605F1080120460093FFF71BFABD68F0
:10471000009B68681968C4E640F254518B420BD87C
:10472000930C03F17D01C9007C33F3E64FF47E73F3
:104730007F204FF07E0C9DE54FF47E717E23E9E6ED
:104740007B6870E7744B002088420DD98B18834238
:104750000AD900EB020CBAB1624613F801CD02F897
:1047600001CD9942F9D170470F2A0ED8034602F1C4
:10477000FF3C4AB10CF1010C013B8C4411F8012BB8
:1047800003F8012F6145F9D1704740EA01039B0707
:1047900050D1A2F1100370B501F1200C23F00F05E8
:1047A00001F1100E00F11004AC441B095EF8105C1E
:1047B00044F8105C5EF80C5C44F80C5C5EF8085C35
:1047C00044F8085C5EF8045C44F8045C0EF1100EDA
:1047D000E64504F11004E9D1013312F00C0F01EBAE
:1047E000031102F00F0400EB031327D0043C24F064
:1047F00003064FEA940C1E441C1F8E465EF8045BB1
:1048000044F8045FB442F9D10CF1010402F0030250
:1048100003EB840301EB840102F1FF3C4AB10CF18C
:10482000010C013B8C4411F8012B03F8012F614569
:10483000F9D170BD02F1FF3C03469BE72246EBE74E
:104840000148FFF725BC00BF684B00200148FFF777
:1048500021BC00BF684B00202DE9F84F1746002906
:1048600000F0988007F10B0580460C46FFF7E8FF43
:10487000162D5DD810252A46AF425ED854F8041C88
:1048800021F003069642A4F1080962DABC4BD3F882
:1048900008C009EB0600844500F09780D0F804C0FA
:1048A0002CF0010303445B68DB0768D42CF0030C95
:1048B00006EB0C03934247DACB0710D454F8083CBC
:1048C000A9EB030ADAF8043023F003018C44B44462
:1048D000944580F211817318934280F2E880394642
:1048E0004046FFF781FC0746E0B154F8043C23F052
:1048F00001034B44A0F10802934200F0D280321F22
:10490000242A00F2F580132A00F2AC8003462246E6
:10491000116819605168596092689A602146404652
:10492000FFF710F94046FFF791FF3846BDE8F88FD2
:1049300025F00705002D2A469EDA0C23C8F8003022
:1049400000273846BDE8F88F1E46D0E90223D36021
:104950009A60731B0F2B22D8D9F8043003F001039F
:1049600033434E44C9F80430736843F00103736065
:1049700040462746FFF76AFF3846BDE8F88FC9076B
:10498000ADD454F8083CA9EB030ADAF8041021F07E
:104990000301A0E7BDE8F84F1146FFF725BCD9F8A1
:1049A000041001F001012943C9F8041009EB0501C5
:1049B0004E4443F001034B60736843F00103083138
:1049C00073604046FFF7BEF8D2E7DCF8040020F041
:1049D000030B06EB0B0C05F1100084454DDAC907FB
:1049E0003FF57DAF54F8081CA9EB010ADAF8041072
:1049F00021F003018B44B34458453FF76CAF574651
:104A0000DAF80C1057F8080F321F242AC1608860AA
:104A100000F2DB80132A40F2D6802168CAF8081021
:104A20006168CAF80C101B2A00F2DF8008340AF112
:104A300010022168116061685160A16891600AEB01
:104A40000501ABEB050242F0010299604A60DAF819
:104A5000043003F001031D434046CAF80450FFF739
:104A6000F5FE6EE723680360636843601B2A68D81D
:104A700004F1080200F108034AE709EB05029A6015
:104A8000ACEB050343F00103536054F8043C03F01E
:104A900001031D43404644F8045CFFF7D7FE274658
:104AA0004FE750F8043C23F003031E4451E75746F8
:104AB000DAF80C1057F8080F321F242AC1608860FA
:104AC0004CD8132A48D92168CAF808106168CAF876
:104AD0000C101B2A56D808340AF110021E4623680F
:104AE000136063685360A3689360D1463C4630E727
:104AF0002146FFF729FE11E7D0E902135746CB60A4
:104B0000996057F8081FDAF80C30CB60321F242A5E
:104B100099602DD8132A29D92368CAF80830636808
:104B2000CAF80C301B2A42D808340AF11003226854
:104B30001A6062685A60A2689A606646D1463C462E
:104B400007E7A3688360E368C360242A26D004F1E2
:104B5000100200F11003DBE63A46BFE72146384673
:104B60001E46D146FFF7F0FD3C46F2E63B46DEE747
:104B7000214638466646D146FFF7E6FD3C46E8E664
:104B800044040020A168CAF81010E168CAF81410A3
:104B9000242A20D010340AF118029FE72369036108
:104BA0006169416104F1180200F11803B0E6A368DD
:104BB000CAF81030E368CAF81430242A21D010341F
:104BC0000AF11803B3E73A4633E721463846FFF7C0
:104BD000BBFD164B33E72269CAF818206269CAF890
:104BE0001C2018340AF1200278E7A168CAF81010D6
:104BF000E168CAF81410242A0DD010340AF1180202
:104C000017E72369CAF818306369CAF81C301834EA
:104C10000AF120038BE72269CAF818206269CAF8F2
:104C20001C2018340AF1200203E700BF44040020CE
:104C300038B5074D0022044608462A60FBF7C8FF36
:104C4000431C00D038BD2B68002BFBD0236038BD3F
:104C5000A84B002010B50C46B1F90E1000F0BCF9BD
:104C6000002803DB236D0344236510BDA38923F4CF
:104C70008053A38110BD00BF2DE9F0410C46B1F96E
:104C80000C101F46CB05054616460BD421F4805167
:104C9000A1813B46B4F90E1032462846BDE8F041EA
:104CA00000F01EB8B4F90E100223002200F07EF9C5
:104CB000B4F90C10EAE700BF10B50C46B1F90E10BC
:104CC00000F074F9A389421C0EBF23F4805343F40F
:104CD00080532065A38110BDB1F90E1000F0C6B855
:104CE00038B50C46084D8446114620461A46002326
:104CF0002B606446FEF754FB431C00D038BD2B6884
:104D0000002BFBD0236038BDA84B002038B5334BB7
:104D10001B6805460C460BB19A6B12B3B4F90C3004
:104D200018079AB225D5216900292DD012F001006B
:104D300007D00020A06060694042A06139B1002026
:104D400038BD950758BF6069A0600029F7D11206E9
:104D500058BF0846F4D543F04003A3814FF0FF301D
:104D600038BD1846FEF7F6FDB4F90C3018079AB2B4
:104D7000D9D4D1062AD5520714D4216943F00803A7
:104D8000A3819AB20029D1D102F42070B0F5007F3E
:104D9000CCD021462846FFF77FF9B4F90C302169C1
:104DA0009AB2C3E7216B51B104F14002914204D0A1
:104DB0002846FEF7C7FEB4F90C30002222632169B1
:104DC0000022C4E9001223F02403D7E7092243F0AC
:104DD00040032A604FF0FF30A38138BD100000204F
:104DE0002DE9F047DFF880A00646DAF80000984683
:104DF0000F469146FFF74CF91A4B1B68D3F8484110
:104E000024B365681F2D26DC5EB96B1C0235DAF809
:104E10000000636044F82570FFF73CF90020BDE80E
:104E2000F08704EB85010123C1F88890D4F888212C
:104E3000AB401A43022EC4F88821C1F80881E4D19E
:104E4000D4F88C211343C4F88C31DEE703F5A67443
:104E5000C3F84841D5E7DAF80000FFF71BF94FF037
:104E6000FF30DCE7EC5000084004002038B5074D67
:104E70000022044608462A60FEF7ACFA431C00D024
:104E800038BD2B68002BFBD0236038BDA84B002019
:104E900070B500294BD006460C4610B1836B002B31
:104EA00048D0636ED80734D5B4F90C30002B3ED00F
:104EB00021463046FEF782FCE36A054633B1E169DC
:104EC000304698470028B8BF4FF0FF35A3891A062F
:104ED0003BD4216B41B104F14003994202D03046EA
:104EE000FEF730FE00232363616C21B13046FEF7EC
:104EF00029FE00236364FEF7B3FD636E0022DB0727
:104F0000A28127D5A06DFFF7C1F8FEF7AFFD2846B7
:104F100070BDA3899905CBD4A06DFFF7B9F8B4F99A
:104F20000C30002BC4D1656E15F0010508D00025AA
:104F3000284670BDFEF70EFD636ED807B4D4E8E7CF
:104F4000A06DFFF7A7F8284670BD21693046FEF72F
:104F5000F9FDBEE7A06DFFF79DF8D3E770B50C46ED
:104F6000084D03460026204611461C462E60FEF7DB
:104F70005DFA431C00D070BD2B68002BFBD0236072
:104F800070BD00BFA84B002038B5074D0022044675
:104F900008462A60FEF7F8F9431C00D038BD2B689C
:104FA000002BFBD0236038BDA84B002038B50C4641
:104FB000084D8446114620461A4600232B6064465D
:104FC000FEF714FA431C00D038BD2B68002BFBD031
:104FD000236038BDA84B002038B50C46084D8446E8
:104FE000114620461A4600232B606446FEF706FA57
:104FF000431C00D038BD2B68002BFBD0236038BD8C
:10500000A84B0020F8B500BFF8BC08BC9E4670470E
:0C501000F8B500BFF8BC08BC9E46704715
:10501C001000000002000000000000000000000072
:10502C009C500008C10700080000000000000000B0
:10503C0080000000C8080020C80A0020A850000802
:10504C00D9070008FDFF000000000000000100006F
:10505C000000000000000000B0500008CB07000862
:10506C00FDFF000000000000000200000000000036
:10507C0000000000BC500008FD070008FDFF000008
:10508C000000000000020000000000000000000012
:10509C0064656661756C745461736B005072696EF3
:1050AC00743100006D795072696E7432000000002A
:1050BC004C45440053746172745072696E743100C3
:1050CC0000000000000000000102030406070809AC
:1050DC00000000000102030449444C45000000009C
:0850EC00180000200A0000007A
:0850F4003CB1FF7F0100000048
:0850FC009D370008E5010008E2
:04510400C1010008DD
:105108000024F4000100000010000000AAAAAAAAC6
:105118001800002000000000000000000403002028
:105128006C030020D40300200000000000000000F1
:105138000000000000000000000000000000000067
:105148000000000000000000000000000000000057
:105158000000000000000000000000000000000047
:105168000000000000000000000000000000000037
:105178000000000000000000000000000000000027
:105188000000000000000000000000000000000017
:105198000000000000000000000000000000000007
:1051A80000000000000000000000000000000000F7
:1051B80000000000000000000000000000000000E7
:1051C80001000000000000000E33CDAB34126DE684
:1051D800ECDE05000B0000000000000000000000ED
:1051E80000000000000000000000000000000000B7
:1051F80000000000000000000000000000000000A7
:105208000000000000000000000000000000000096
:105218000000000000000000000000000000000086
:10554800644B00200000000000000000440400201C
:10555800440400204C0400204C0400205404002083
:10556800540400205C0400205C0400206404002033
:10557800640400206C0400206C04002074040020E3
:10558800740400207C0400207C0400208404002093
:10559800840400208C0400208C0400209404002043
:1055A800940400209C0400209C040020A4040020F3
:1055B800A4040020AC040020AC040020B4040020A3
:1055C800B4040020BC040020BC040020C404002053
:1055D800C4040020CC040020CC040020D404002003
:1055E800D4040020DC040020DC040020E4040020B3
:1055F800E4040020EC040020EC040020F404002063
:10560800F4040020FC040020FC0400200405002011
:10561800040500200C0500200C05002014050020BE
:10562800140500201C0500201C050020240500206E
:10563800240500202C0500202C050020340500201E
:10564800340500203C0500203C05002044050020CE
:10565800440500204C0500204C050020540500207E
:10566800540500205C0500205C050020640500202E
:10567800640500206C0500206C05002074050020DE
:10568800740500207C0500207C050020840500208E
:10569800840500208C0500208C050020940500203E
:1056A800940500209C0500209C050020A4050020EE
:1056B800A4050020AC050020AC050020B40500209E
:1056C800B4050020BC050020BC050020C40500204E
:1056D800C4050020CC050020CC050020D4050020FE
:1056E800D4050020DC050020DC050020E4050020AE
:1056F800E4050020EC050020EC050020F40500205E
:10570800F4050020FC050020FC050020040600200C
:10571800040600200C0600200C06002014060020B9
:10572800140600201C0600201C0600202406002069
:10573800240600202C0600202C0600203406002019
:10574800340600203C0600203C06002044060020C9
:10575800440600204C0600204C0600205406002079
:10576800540600205C0600205C0600206406002029
:10577800640600206C0600206C06002074060020D9
:10578800740600207C0600207C0600208406002089
:10579800840600208C0600208C0600209406002039
:1057A800940600209C0600209C060020A4060020E9
:1057B800A4060020AC060020AC060020B406002099
:1057C800B4060020BC060020BC060020C406002049
:1057D800C4060020CC060020CC060020D4060020F9
:1057E800D4060020DC060020DC060020E4060020A9
:1057F800E4060020EC060020EC060020F406002059
:10580800F4060020FC060020FC0600200407002007
:10581800040700200C0700200C07002014070020B4
:10582800140700201C0700201C0700202407002064
:10583800240700202C0700202C0700203407002014
:10584800340700203C0700203C07002044070020C4
:10585800440700204C0700204C0700205407002074
:10586800540700205C0700205C0700206407002024
:10587800640700206C0700206C07002074070020D4
:10588800740700207C0700207C0700208407002084
:10589800840700208C0700208C0700209407002034
:1058A800940700209C0700209C070020A4070020E4
:1058B800A4070020AC070020AC070020B407002094
:1058C800B4070020BC070020BC070020C407002044
:1058D800C4070020CC070020CC070020D4070020F4
:1058E800D4070020DC070020DC070020E4070020A4
:1058F800E4070020EC070020EC070020F407002054
:10590800F4070020FC070020FC0700200408002002
:10591800040800200C0800200C08002014080020AF
:10592800140800201C0800201C080020240800205F
:10593800240800202C0800202C080020340800200F
:10594800340800203C0800203C080020FFFFFFFF2F
:045958000000020049
:0400000508000CD50E
:00000001FF
