:020000040800F2
:1000000000000320A91C00087D1A00087F1A0008C0
:10001000811A0008831A0008851A000800000000F1
:10002000000000000000000000000000A13B0008EC
:10003000871A000800000000413C0008A53C0008A9
:10004000F91C0008F91C0008F91C0008F91C00083C
:10005000F91C0008F91C0008F91C0008F91C00082C
:10006000F91C0008F91C0008F91C0008F91C00081C
:10007000F91C0008F91C0008F91C0008F91C00080C
:10008000F91C0008F91C0008F91C0008F91C0008FC
:10009000F91C0008F91C0008F91C0008F91C0008EC
:1000A000F91C0008891A0008F91C0008F91C00084E
:1000B000F91C0008F91C0008F91C0008F91C0008CC
:1000C000F91C0008F91C0008F91C0008F91C0008BC
:1000D000F91C0008991A0008A91A0008F91C000860
:1000E000F91C0008F91C0008F91C0008F91C00089C
:1000F000F91C0008F91C0008F91C0008F91C00088C
:10010000F91C0008F91C0008F91C0008F91C00087B
:10011000F91C0008F91C0008F91C0008F91C00086B
:10012000F91C0008F91C0008F91C0008F91C00085B
:10013000F91C0008F91C0008F91C0008F91C00084B
:10014000F91C0008F91C0008F91C0008F91C00083B
:10015000F91C0008F91C0008F91C0008F91C00082B
:10016000F91C0008F91C0008F91C0008F91C00081B
:10017000F91C0008F91C0008F91C00080000000028
:10018000F91C0008F91C0008F91C0008F91C0008FB
:10019000F91C0008F91C0008F91C0008F91C0008EB
:0C01A000F91C0008F91C0008F91C0008FC
:1001C00010B5054C237833B9044B13B10448AFF391
:1001D00000800123237010BD400B002000000000B0
:1001E00090B8000808B5034B1BB103490348AFF3AF
:1001F000008008BD00000000440B002090B80008FB
:1002000053B94AB9002908BF00281CBF4FF0FF317D
:100210004FF0FF3000F074B9ADF1080C6DE904CE79
:1002200000F006F8DDF804E0DDE9022304B07047D1
:100230002DE9F047089D04468E46002B4DD18A4299
:10024000944669D9B2FA82F252B101FA02F3C2F1CC
:10025000200120FA01F10CFA02FC41EA030E94405D
:100260004FEA1C48210CBEFBF8F61FFA8CF708FB7E
:1002700016E341EA034306FB07F199420AD91CEB56
:10028000030306F1FF3080F01F81994240F21C8188
:10029000023E63445B1AA4B2B3FBF8F008FB1033D0
:1002A00044EA034400FB07F7A7420AD91CEB040405
:1002B00000F1FF3380F00A81A74240F207816444D5
:1002C000023840EA0640E41B00261DB1D44000235A
:1002D000C5E900433146BDE8F0878B4209D9002DBE
:1002E00000F0EF800026C5E9000130463146BDE848
:1002F000F087B3FA83F6002E4AD18B4202D38242B2
:1003000000F2F980841A61EB030301209E46002D60
:10031000E0D0C5E9004EDDE702B9FFDEB2FA82F2B5
:10032000002A40F09280A1EB0C014FEA1C471FFA13
:100330008CFE0126200CB1FBF7F307FB131140EAFA
:1003400001410EFB03F0884208D91CEB010103F1C7
:10035000FF3802D2884200F2CB804346091AA4B289
:10036000B1FBF7F007FB101144EA01440EFB00FE5D
:10037000A64508D91CEB040400F1FF3102D2A645C2
:1003800000F2BB800846A4EB0E0440EA03409CE761
:10039000C6F12007B34022FA07FC4CEA030C20FA0E
:1003A00007F401FA06F31C43F9404FEA1C4900FA2E
:1003B00006F3B1FBF9F8200C1FFA8CFE09FB1811AB
:1003C00040EA014108FB0EF0884202FA06F20BD91E
:1003D0001CEB010108F1FF3A80F08880884240F26E
:1003E0008580A8F102086144091AA4B2B1FBF9F0B2
:1003F00009FB101144EA014100FB0EFE8E4508D9AD
:100400001CEB010100F1FF346CD28E456AD9023831
:10041000614440EA0840A0FB0294A1EB0E01A14216
:10042000C846A64656D353D05DB1B3EB080261EB84
:100430000E0101FA07F722FA06F3F1401F43C5E95E
:10044000007100263146BDE8F087C2F12003D84094
:100450000CFA02FC21FA03F3914001434FEA1C47D6
:100460001FFA8CFEB3FBF7F007FB10360B0C43EAC8
:10047000064300FB0EF69E4204FA02F408D91CEB78
:10048000030300F1FF382FD29E422DD90238634476
:100490009B1B89B2B3FBF7F607FB163341EA034116
:1004A00006FB0EF38B4208D91CEB010106F1FF3865
:1004B00016D28B4214D9023E6144C91A46EA00465C
:1004C00038E72E46284605E70646E3E61846F8E6EE
:1004D0004B45A9D2B9EB020864EB0C0E0138A3E737
:1004E0004646EAE7204694E74046D1E7D0467BE718
:1004F000023B614432E7304609E76444023842E790
:10050000704700BF844641EA000313F003036DD136
:10051000403A41D351F8043B40F8043B51F8043BC6
:1005200040F8043B51F8043B40F8043B51F8043BCD
:1005300040F8043B51F8043B40F8043B51F8043BBD
:1005400040F8043B51F8043B40F8043B51F8043BAD
:1005500040F8043B51F8043B40F8043B51F8043B9D
:1005600040F8043B51F8043B40F8043B51F8043B8D
:1005700040F8043B51F8043B40F8043B51F8043B7D
:1005800040F8043B51F8043B40F8043B51F8043B6D
:1005900040F8043B403ABDD2303211D351F8043B0D
:1005A00040F8043B51F8043B40F8043B51F8043B4D
:1005B00040F8043B51F8043B40F8043B103AEDD2BC
:1005C0000C3205D351F8043B40F8043B043AF9D20D
:1005D000043208D0D2071CBF11F8013B00F8013BE0
:1005E00001D30B8803806046704700BF082A13D3ED
:1005F0008B078DD010F003038AD0C3F10403D21A05
:10060000DB071CBF11F8013B00F8013B80D331F838
:10061000023B20F8023B7BE7043AD9D3013A11F8B8
:10062000013B00F8013BF9D20B7803704B78437023
:100630008B78837060467047000000000000000067
:1006400001F0FF01102A2BDB10F0070F08D010F883
:10065000013B013A8B422DD010F0070F42B3F6D187
:10066000F0B441EA012141EA014122F007047FF0A0
:1006700000070023F0E80256083C85EA010586EAF7
:10068000010685FA47F5A3FA87F586FA47F6A5FA33
:1006900087F68EB9EED1F0BC01F0FF0102F007023F
:1006A00032B110F8013B013A83EA010313B1F8D1EA
:1006B0000020704701387047002D06BF35460338CB
:1006C000073815F0010F07D1013015F4807F02BF04
:1006D000013015F4C03F0130F0BC0138704700BF55
:1006E000000000000000000000000000000000000A
:1006F00000000000000000000000000000000000FA
:1007000090F800F06DE9024520F007016FF0000C51
:1007100010F0070491F820F040F049804FF00004F9
:100720006FF00700D1E9002391F840F000F10800D4
:1007300082FA4CF2A4FA8CF283FA4CF3A2FA8CF30C
:100740004BBBD1E9022382FA4CF200F10800A4FA73
:100750008CF283FA4CF3A2FA8CF3E3B9D1E90423C7
:1007600082FA4CF200F10800A4FA8CF283FA4CF3FE
:10077000A2FA8CF37BB9D1E9062301F1200182FAB8
:100780004CF200F10800A4FA8CF283FA4CF3A2FABE
:100790008CF3002BC6D0002A04BF04301A4612BACC
:1007A000B2FA82F2FDE8024500EBD2007047D1E9CF
:1007B000002304F00305C4F100004FEAC50514F05E
:1007C000040F91F840F00CFA05F562EA05021CBF2F
:1007D00063EA050362464FF00004A9E781F0004197
:1007E00002E000BF83F0004330B54FEA41044FEA16
:1007F000430594EA050F08BF90EA020F1FBF54EAB1
:10080000000C55EA020C7FEA645C7FEA655C00F04C
:10081000E2804FEA5454D4EB5555B8BF6D420CDD1D
:100820002C4480EA020281EA030382EA000083EAA0
:10083000010180EA020281EA0303362D88BF30BD40
:1008400011F0004F4FEA01314FF4801C4CEA113196
:1008500002D0404261EB410113F0004F4FEA0333F5
:100860004CEA133302D0524263EB430394EA050F80
:1008700000F0A780A4F10104D5F1200E0DDB02FAEF
:100880000EFC22FA05F2801841F1000103FA0EF283
:10089000801843FA05F359410EE0A5F120050EF149
:1008A000200E012A03FA0EFC28BF4CF0020C43FA7A
:1008B00005F3C01851EBE37101F0004507D54FF087
:1008C000000EDCF1000C7EEB00006EEB0101B1F5D7
:1008D000801F1BD3B1F5001F0CD349085FEA30001D
:1008E0004FEA3C0C04F101044FEA445212F5800F28
:1008F00080F09A80BCF1004F08BF5FEA500C50F1C5
:10090000000041EB045141EA050130BD5FEA4C0CA7
:10091000404141EB0101013C28BFB1F5801FE9D204
:1009200091F0000F04BF01460020B1FA81F308BF27
:100930002033A3F10B03B3F120020CDA0C3208DDF3
:1009400002F1140CC2F10C0201FA0CF021FA02F1CE
:100950000CE002F11402D8BFC2F1200C01FA02F13E
:1009600020FA0CFCDCBF41EA0C019040E41AA2BF63
:1009700001EB0451294330BD6FEA04041F3C1CDA2B
:100980000C340EDC04F11404C4F1200220FA04F04B
:1009900001FA02F340EA030021FA04F345EA0301F5
:1009A00030BDC4F10C04C4F1200220FA02F001FAB7
:1009B00004F340EA0300294630BD21FA04F0294639
:1009C00030BD94F0000F83F4801306BF81F48011D2
:1009D0000134013D4EE77FEA645C18BF7FEA655C45
:1009E00029D094EA050F08BF90EA020F05D054EA17
:1009F000000C04BF1946104630BD91EA030F1EBF1C
:100A00000021002030BD5FEA545C05D1400049411F
:100A100028BF41F0004130BD14F580043CBF01F512
:100A2000801130BD01F0004545F0FE4141F47001F8
:100A30004FF0000030BD7FEA645C1ABF19461046D3
:100A40007FEA655C1CBF0B46024650EA013406BFD4
:100A500052EA033591EA030F41F4002130BD00BF93
:100A600090F0000F04BF0021704730B54FF4806450
:100A700004F132044FF000054FF0000150E700BFD1
:100A800090F0000F04BF0021704730B54FF4806430
:100A900004F1320410F0004548BF40424FF000011D
:100AA0003EE700BF42004FEAE2014FEA31014FEA60
:100AB00002701FBF12F07F4393F07F4F81F06051AF
:100AC000704732F07F4208BF704793F07F4F04BFFA
:100AD00041F40021704730B54FF4607401F00045D7
:100AE00021F000411CE700BF50EA010208BF704737
:100AF00030B54FF000050AE050EA010208BF704728
:100B000030B511F0004502D5404261EB41014FF490
:100B1000806404F132045FEA915C3FF4D8AE4FF098
:100B200003025FEADC0C18BF03325FEADC0C18BF7B
:100B3000033202EBDC02C2F1200300FA03FC20FACC
:100B400002F001FA03FE40EA0E0021FA02F1144419
:100B5000BDE600BF70B54FF0FF0C4CF4E06C1CEA32
:100B600011541DBF1CEA135594EA0C0F95EA0C0FA3
:100B700000F0DEF82C4481EA030621EA4C5123EA16
:100B80004C5350EA013518BF52EA033541F4801145
:100B900043F4801338D0A0FB02CE4FF00005E1FBF8
:100BA00002E506F00042E0FB03E54FF00006E1FB42
:100BB00003569CF0000F18BF4EF0010EA4F1FF0485
:100BC000B6F5007F64F5407404D25FEA4E0E6D41C5
:100BD00046EB060642EAC62141EA55514FEAC520D6
:100BE00040EA5E504FEACE2EB4F1FD0C88BFBCF552
:100BF000E06F1ED8BEF1004F08BF5FEA500E50F103
:100C0000000041EB045170BD06F0004646EA0101C8
:100C100040EA020081EA0301B4EB5C04C2BFD4EBFA
:100C20000C0541EA045170BD41F480114FF0000EF3
:100C3000013C00F3AB8014F1360FDEBF002001F061
:100C4000004170BDC4F10004203C35DA0C341BDCDB
:100C500004F11404C4F1200500FA05F320FA04F0AD
:100C600001FA05F240EA020001F0004221F00041E1
:100C700010EBD37021FA04F642EB06015EEA430E54
:100C800008BF20EAD37070BDC4F10C04C4F1200584
:100C900000FA04F320FA05F001FA04F240EA020037
:100CA00001F0004110EBD37041F100015EEA430E08
:100CB00008BF20EAD37070BDC4F1200500FA05F228
:100CC0004EEA020E20FA04F301FA05F243EA0203A7
:100CD00021FA04F001F0004121FA04F220EA0200B6
:100CE00000EBD3705EEA430E08BF20EAD37070BDFC
:100CF00094F0000F0FD101F00046400041EB0101DC
:100D000011F4801F08BF013CF7D041EA060195F0BD
:100D1000000F18BF704703F00046520043EB030377
:100D200013F4801F08BF013DF7D043EA0603704764
:100D300094EA0C0F0CEA135518BF95EA0C0F0CD06F
:100D400050EA410618BF52EA4306D1D181EA0301B5
:100D500001F000414FF0000070BD50EA410606BFAF
:100D60001046194652EA430619D094EA0C0F02D1F4
:100D700050EA013613D195EA0C0F05D152EA033639
:100D80001CBF104619460AD181EA030101F0004157
:100D900041F0FE4141F470014FF0000070BD41F0A0
:100DA000FE4141F4780170BD70B54FF0FF0C4CF47A
:100DB000E06C1CEA11541DBF1CEA135594EA0C0F99
:100DC00095EA0C0F00F0A7F8A4EB050481EA030EE6
:100DD00052EA03354FEA013100F088804FEA0333CD
:100DE0004FF0805545EA131343EA12634FEA02229B
:100DF00045EA111545EA10654FEA00260EF000415C
:100E00009D4208BF964244F1FD0404F5407402D2AD
:100E10005B084FEA3202B61A65EB03055B084FEA3E
:100E200032024FF480104FF4002CB6EB020E75EB3B
:100E3000030E22BFB61A754640EA0C005B084FEA63
:100E40003202B6EB020E75EB030E22BFB61A7546E0
:100E500040EA5C005B084FEA3202B6EB020E75EB2B
:100E6000030E22BFB61A754640EA9C005B084FEAA3
:100E70003202B6EB020E75EB030E22BFB61A7546B0
:100E800040EADC0055EA060E18D04FEA051545EA9F
:100E900016754FEA06164FEAC30343EA52734FEA48
:100EA000C2025FEA1C1CC0D111F4801F0BD141EAC1
:100EB00000014FF000004FF0004CB6E711F4801F26
:100EC00004BF01430020B4F1FD0C88BFBCF5E06F06
:100ED0003FF6AFAEB5EB030C04BFB6EB020C5FEA16
:100EE000500C50F1000041EB045170BD0EF0004E6B
:100EF0004EEA113114EB5C04C2BFD4EB0C0541EA9D
:100F0000045170BD41F480114FF0000E013C90E699
:100F100045EA060E8DE60CEA135594EA0C0F08BF5D
:100F200095EA0C0F3FF43BAF94EA0C0F0AD150EA5C
:100F300001347FF434AF95EA0C0F7FF425AF1046EF
:100F400019462CE795EA0C0F06D152EA03353FF417
:100F5000FDAE1046194622E750EA410618BF52EA94
:100F600043067FF4C5AE50EA41047FF40DAF52EA68
:100F700043057FF4EBAE12E74FF0FF3C06E000BF05
:100F80004FF0010C02E000BF4FF0010C4DF804CD12
:100F90004FEA410C7FEA6C5C4FEA430C18BF7FEAD2
:100FA0006C5C1BD001B050EA410C0CBF52EA430C00
:100FB00091EA030F02BF90EA020F0020704710F180
:100FC000000F91EA030F58BF994208BF90422CBF0F
:100FD000D8176FEAE37040F0010070474FEA410C08
:100FE0007FEA6C5C02D150EA013C07D14FEA430C26
:100FF0007FEA6C5CD6D152EA033CD3D05DF8040B97
:10100000704700BF8446104662468C4619466346C8
:1010100000E000BF01B5FFF7B7FF002848BF10F19F
:10102000000F01BD4DF808EDFFF7F4FF0CBF0120E4
:1010300000205DF808FB00BF4DF808EDFFF7EAFF60
:1010400034BF012000205DF808FB00BF4DF808ED1B
:10105000FFF7E0FF94BF012000205DF808FB00BF10
:101060004DF808EDFFF7CEFF94BF012000205DF89A
:1010700008FB00BF4DF808EDFFF7C4FF34BF0120A7
:1010800000205DF808FB00BF4FEA410C7FEA6C5C72
:1010900002D150EA013C0AD14FEA430C7FEA6C5C72
:1010A00002D152EA033C02D14FF0000070474FF0EA
:1010B000010070474FEA410212F5001215D211D516
:1010C0006FF47873B3EB625212D94FEAC12343F045
:1010D000004343EA505311F0004F23FA02F018BFC7
:1010E000404270474FF00000704750EA013005D190
:1010F00011F0004008BF6FF0004070474FF0000053
:10110000704700BF2DE9F04786B0002003F014FFC0
:1011100004461A4B186803F00FFF0546184B186871
:1011200003F00AFF0646174B186803F005FF074651
:10113000154B186803F000FF8046144B186803F045
:10114000FBFE8146124B186803F0F6FE8246114BF7
:10115000186803F0F1FE0490CDF80CA0CDF80890CB
:10116000CDF80480009733462A4621460A4804F009
:10117000A1FA0A4802F051FCC7E700BF740B002037
:10118000780B00206C0B0020680B00205C0B00200B
:10119000700B0020600B0020D4B90008A08601006D
:1011A00008B54FF47A7002F038FCFAE708B540F65B
:1011B000B83002F032FCFAE708B54FF47A7002F06A
:1011C0002CFCFAE738B535E01B4D01224FF4E05115
:1011D000284600F08EFFC4F57A7004F02BF8002248
:1011E0004FF4E051284600F084FF204604F022F836
:1011F0000134B4F57A7FE7D3002414E00E4D0022C9
:101200004FF4E051284600F074FFC4F57A7004F002
:1012100011F801224FF4E051284600F06AFF204601
:1012200004F008F80134B4F57A7FE7D341F288304E
:1012300002F0F3FB0024DCE7001C024008B50FE0DD
:1012400000224FF400610D4800F053FF0FE001222F
:101250004FF40061094800F04CFF142002F0DDFB60
:101260004FF40051064800F03DFF0128E8D001216D
:10127000044800F037FF0128E9D0EEE7001C0240E7
:10128000000802400000024000B585B00023009332
:10129000019302930393684603F014FF00231A4658
:1012A0000DF102010748006803F030F800231A46E8
:1012B00069460548006803F029F841F2883002F0D9
:1012C000ACFBE8E77C0B0020640B002030B583B05A
:1012D00000248DF807408DF8064008E0601C3F4A66
:1012E00002EB04120021C0B204F0ADF80134062C68
:1012F000F4DD3B4C22460521022004F0A4F804F161
:1013000010052A460521032004F09DF804F140024F
:101310000521082004F097F804F150020521092066
:1013200004F091F804F120020621022004F08BF869
:101330002A460621032004F086F804F16002062103
:10134000092004F080F800220DF10701254B1868F0
:1013500003F0C6F800220DF10601234B186803F0D4
:10136000BFF89DF80720214CA4FB0232D208204D83
:1013700005EB02120521062004F065F89DF8072010
:10138000A4FB0213DB0803EB83035900521AD2B209
:1013900005EB02120521072004F055F89DF8062000
:1013A000A4FB0232D20805EB02120621084604F023
:1013B0004AF89DF80620A4FB0234E40804EB8404F8
:1013C0006300D21AD2B205EB02120621072004F004
:1013D0003AF841F2883002F020FBB4E72001002007
:1013E000100000207C0B0020640B0020CDCCCCCC66
:1013F00080000020034B0360034B0B60402313600D
:10140000704700BF240F0020240E002030B5C3B069
:1014100000254095574B419340A802F005FB564BE1
:101420001860564C0DF1F00C94E80F008CE80F009A
:101430002946604602F003FB514B18600DF1E00CA9
:1014400094E80F008CE80F002946604602F0F7FA96
:101450004C4B18600DF1C40C04F1100EBEE80F00E7
:10146000ACE80F009EE807008CE80700294631A889
:1014700002F09EFA444B18600DF1A80C04F12C0EFA
:10148000BEE80F00ACE80F009EE807008CE80700FC
:1014900029462AA802F08CFA3C4B18600DF18C0CFE
:1014A00004F1480EBEE80F00ACE80F009EE807000C
:1014B0008CE80700294623A802F07AFA344B18601A
:1014C0000DF1700C04F1640EBEE80F00ACE80F00E3
:1014D0009EE807008CE8070029461CA802F068FA7D
:1014E0002C4B18600DF1540C04F1800EBEE80F0077
:1014F000ACE80F009EE807008CE80700294615A815
:1015000002F056FA244B18600DF1380C04F19C0ED1
:10151000BEE80F00ACE80F009EE807008CE807006B
:1015200029460EA802F044FA1C4B18600DF11C0C61
:1015300004F1B80EBEE80F00ACE80F009EE807000B
:101540008CE80700294607A802F032FA144B18600D
:10155000EC46D4340FCCACE80F0094E807008CE8DC
:1015600007002946684602F023FA0E4B186043B084
:1015700030BD00BF800B0020C80B0020A8B80008B9
:101580007C0B0020640B0020200E0020740B002038
:10159000780B00206C0B0020680B00205C0B0020F7
:1015A000700B0020600B00202DE9F0438DB000246B
:1015B0000794089409940A940B940194474B1A6B6E
:1015C00042F010021A631A6B02F010020192019AA3
:1015D00002941A6B42F004021A631A6B02F00402BE
:1015E0000292029A03941A6B42F080021A631A6BF9
:1015F00002F080020392039A04941A6B42F00102F3
:101600001A631A6B02F001020492049A05941A6B91
:1016100042F002021A631A6B02F002020592059A66
:1016200006941A6B42F008021A631B6B03F008035E
:101630000693069BDFF8B49022460421484600F04A
:1016400058FD274E22460621304600F052FDDFF8B5
:10165000A08022460321404600F04BFD214F224648
:101660004FF4E051384600F044FD04230793012570
:10167000089509940A9407A9484600F035FC4FF4F0
:10168000005307930894099407A9174800F02CFC0D
:1016900007950894099407A9304600F025FC062315
:1016A0000793089509940A9407A9304600F01CFC9A
:1016B00003230793089509940A9407A9404600F06C
:1016C00013FC4FF4E0530793089509940A9407A973
:1016D000384600F009FC0DB0BDE8F0830038024048
:1016E00000000240001C02400008024000100240BE
:1016F0000004024008B51348134B0360134B4360CA
:1017000000238360C3604FF48042026143618361C0
:10171000C361036200F0F4FC50B90021094800F0F5
:10172000CDFD40B90021074800F0EAFD30B908BD01
:1017300000F052F8F1E700F04FF8F3E700F04CF852
:10174000F5E700BF780F002000540040A08601009C
:1017500030B589B000230393049305930693079350
:101760000268144B9A4201D009B030BD00250195A2
:10177000114C236B43F002032363236B03F002033A
:101780000193019BC0230393122304930323069325
:101790000423079303A9094800F0A6FB0295236CD4
:1017A00043F400132364236C03F400130293029B9D
:1017B000DAE700BF00540040003802400004024055
:1017C00008B50268034B9A4200D008BD00F0B0FA99
:1017D000FBE700BF0000014072B6FEE700B595B020
:1017E0003022002108A803F013FF00230393049381
:1017F0000593069307930193234A116C41F080519E
:101800001164126C02F080520192019A02931F4BF4
:101810001A6842F440421A601B6803F44043029382
:10182000029B012308934FF48033099302230E9304
:101830004FF480020F920F221092D822119212932D
:101840000423139308A800F0BBFDB0B900F07AFDA3
:10185000A8B90F23039302230493002305934FF4A5
:10186000A05306934FF480530793052103A800F07B
:10187000F5FF30B915B05DF804FBFFF7ADFFFFF7DA
:10188000ABFFFFF7A9FF00BF003802400070004027
:1018900008B500F033FAFFF7A1FFFFF785FE00F06F
:1018A00049F9FFF727FF00F023F800F05DF90C4C31
:1018B000204603F013FE03F0F7FC03F070FD03F085
:1018C0006DFC01220749084802F04BF80122074944
:1018D000204602F046F8FFF799FD02F064F8FEE7B3
:1018E00074100020CC0F0020B8100020CD0F002075
:1018F00008B50D480D4B03604FF48273436000231D
:101900008360C360036143614FF400728261C3610D
:101910000362436283620A23C36201F031F900B9B2
:1019200008BDFFF759FFFBE7D00F00200030014052
:1019300000B589B00023039304930593069307939E
:101940000268154B9A4202D009B05DF804FB0021F1
:10195000019103F584335A6C42F480525A645A6CF4
:1019600002F480520192019A02911A6B42F0010234
:101970001A631B6B03F001030293029BA0230393E2
:1019800002230493032306930523079303A9034823
:1019900000F0AAFAD8E700BF003001400000024082
:1019A00000B583B0002200920D4B596C41F4804188
:1019B0005964596C01F48041009100990192196CAD
:1019C00041F0805119641B6C03F080530193019B1B
:1019D0000F216FF0010000F0E3F903B05DF804FBA4
:1019E0000038024030B589B00546002401941E4BF2
:1019F0005A6C42F001025A645B6C03F001030193DC
:101A0000019B02A903A800F0FFFF00F0EDFF4300D7
:101A10001648A0FB03239B0C013B1548154A0260A6
:101A200040F2E732C260436004618460846101F087
:101A30004DFB044610B1204609B030BD0C4801F002
:101A4000DBF904460028F6D1192000F0E1F90F2D4A
:101A500001D90124EFE700222946192000F0A0F95E
:101A6000054B1D60E7E700BF0038024083DE1B43E3
:101A7000281000200000014008000020FEE7FEE7DB
:101A8000FEE7FEE7FEE7704708B5024801F0FCF903
:101A900008BD00BF2810002008B5024801F004FE70
:101AA00008BD00BF7410002008B5024801F0FCFD1D
:101AB00008BD00BFB81000200120704708B503F032
:101AC0007DFD162303604FF0FF3008BD08B54FF0D1
:101AD000FF31FFF7F3FFFEE710B503460C4A0D494F
:101AE0000D48006840B10C4800680344521A934204
:101AF00006D8094A136010BD0748084C0460F2E795
:101B000003F05CFD0C2303604FF0FF30F3E700BFF0
:101B1000000003200004000070100020A04E0020F0
:101B2000034AD2F8883043F47003C2F88830704713
:101B300000ED00E008B50A480A4B03604FF4E133BA
:101B4000436000238360C36003610C2242618361B0
:101B5000C36101F013FC00B908BDFFF73DFEFBE7D0
:101B6000741000200010014008B50A480A4B0360B9
:101B70004FF4E133436000238360C36003610C22B0
:101B800042618361C36101F0F9FB00B908BDFFF751
:101B900023FEFBE7B810002000440040F0B58BB0F6
:101BA0000023059306930793089309930368394A22
:101BB000934204D0384A93422DD00BB0F0BD00249C
:101BC0000094364B5A6C42F010025A645A6C02F080
:101BD00010020092009A01941A6B42F001021A63FB
:101BE0001B6B03F001030193019B4FF4C06305934A
:101BF00002230693032308930723099305A9284882
:101C000000F072F922460521252000F0C9F82520B0
:101C100000F0FEF8D1E700240294204B1A6C42F445
:101C200000321A641A6C02F400320292029A03948F
:101C30001A6B42F001021A631A6B02F0010203925E
:101C4000039A04941A6B42F008021A631B6B03F0A8
:101C500008030493049B0823059302270697032691
:101C600008960725099505A90D4800F03DF92023A0
:101C70000593069707940896099505A9094800F069
:101C800033F922460621262000F08AF8262000F0AB
:101C9000BFF892E7001001400044004000380240C5
:101CA00000000240000C0240DFF834D00D480E491D
:101CB0000E4A002302E0D458C4500433C4188C42A6
:101CC000F9D30B4A0B4C002301E013600432A2420B
:101CD000FBD3FFF725FF03F077FCFFF7D9FD704733
:101CE0000000032000000020400B00206CBE000814
:101CF000400B0020A04E0020FEE7000008B50B4B73
:101D00001A6842F400721A601A6842F480621A601B
:101D10001A6842F480721A60032000F02FF80F2036
:101D2000FFF760FEFFF73CFE002008BD003C0240CC
:101D3000034A1168034B1B780B441360704700BFC4
:101D4000FC10002004000020014B1868704700BF01
:101D5000FC10002038B50446FFF7F6FF0546B4F145
:101D6000FF3F02D0044B1B781C44FFF7EDFF401BE4
:101D7000A042FAD338BD00BF04000020074AD36850
:101D800023F4E0631B041B0C000200F4E060034337
:101D900043F0BF6343F40033D360704700ED00E0CD
:101DA00000B5194BDB68C3F30223C3F1070CBCF188
:101DB000040F28BF4FF0040C03F1040EBEF1060F10
:101DC00018D9033B4FF0FF3E0EFA0CFC21EA0C0140
:101DD00099400EFA03F322EA0303194300280BDBB0
:101DE0000901C9B200F1604000F5614080F80013BC
:101DF0005DF804FB0023E5E700F00F000901C9B21C
:101E0000024B1954F4E700BF00ED00E014ED00E0D0
:101E1000002807DB00F01F02400901239340024A1B
:101E200042F82030704700BF00E100E070B5044682
:101E3000866DFFF789FF94F83530DBB2022B06D0B0
:101E400080236365002384F83430012070BD05468B
:101E50002268136823F0160313602268536923F085
:101E600080035361236CE3B12268136823F00803F5
:101E700013602268136823F00103136023681B6852
:101E800013F0010F11D0FFF75FFF431B052BF5D9AE
:101E900020236365032084F83500002384F8343060
:101EA000D4E7A36C002BDFD1E3E7E26D3F2393403F
:101EB000B360012384F83530002084F83400C5E78E
:101EC00090F83530DBB2022B03D08023436501202C
:101ED0007047052380F835300268136823F001034A
:101EE000136000207047000000230F2B00F2F180E8
:101EF00070B582B061E085685E000324B44025EAD5
:101F00000405CC68B4402C438460456825EA02058A
:101F10004C68C4F300129A402A4342605BE0DC083C
:101F2000083450F8246003F0070295000F22AA40FD
:101F300026EA020E0A69AA4042EA0E0240F824206C
:101F40005DE0092200E0002202FA0EF22A43023488
:101F5000604D45F82420604A94686FEA0C0224EA38
:101F60000C054E6816F4801F01D04CEA04055A4C4B
:101F7000A560E46802EA04054E6816F4001F01D06B
:101F80004CEA0405544CE560646802EA04054E68B6
:101F900016F4003F01D04CEA04054F4C65602468FC
:101FA00022404D6815F4803F01D04CEA04024A4CAF
:101FB000226001330F2B00F28A8001229A400C68C4
:101FC00004EA020C32EA0404F3D14C6804F003047E
:101FD000013C012C8FD94A6802F00302032A09D080
:101FE000C4685D000322AA4024EA02048A68AA4069
:101FF0002243C2604A6802F00302022A8FD00468BA
:102000004FEA430E032202FA0EF224EA02044A685F
:1020100002F0030202FA0EF2224302604A6812F44E
:10202000403FC6D0002201922C4A546C44F48044B4
:102030005464526C02F480420192019A9C08A51CDF
:10204000244A52F8255003F003024FEA820E0F2271
:1020500002FA0EF225EA0205214A90423FF473AFDC
:1020600002F58062904222D002F58062904220D038
:1020700002F5806290421ED002F5806290421CD030
:1020800002F5806290421AD002F58062904218D028
:1020900002F58062904216D002F58062904214D020
:1020A00002F5806290423FF44CAF0A224CE70122D5
:1020B0004AE7022248E7032246E7042244E70522D2
:1020C00042E7062240E707223EE708223CE702B04B
:1020D00070BD704700380140003C014000380240AC
:1020E000000002400369194201D00120704700201E
:1020F00070470AB18161704709048161704700002F
:10210000002800F0CC8070B5044690F83D30002BDC
:1021100077D0242384F83D302268136823F001032C
:1021200013602268136843F4004313602268136845
:1021300023F40043136000F047FC62685A4B9A4254
:1021400064D85A4B98428CBF00230123002B40F0E7
:10215000A8805749A1FB00318B0C25686A6822F0E2
:102160003F0242EA91426A6021680A6A22F03F0215
:1021700066684D4DAE424FD8013313430B62216860
:10218000CA6922F44F4222F0FF026668464B9E4223
:102190004CD8431E7600B3FBF6F3013340F6FC70D7
:1021A000034278D0C3F30B031343CB6121680B6860
:1021B00023F0C003E269206A024313430B602168E5
:1021C0008B6823F4034323F0FF032269E068024392
:1021D00013438B602168CB6823F0FF036269A06919
:1021E00002431343CB602268136843F0010313607A
:1021F00000202064202384F83D30206384F83E00D2
:1022000070BD80F83C30FFF7A3FA82E7294B984273
:102210008CBF0023012399E74FF4967505FB03F368
:10222000254DA5FB03539B090133A6E7A368BBB962
:10223000451E06EB460CB5FBFCF50135C5F30B0559
:10224000B5FA85F56D0945BBC3B9013806EB460300
:10225000B0FBF3F30133C3F30B0343F40043A3E7F1
:10226000451E06EB860C0CEB8C0CB5FBFCF5013522
:10227000C5F30B05B5FA85F56D09E4E7013806EB02
:10228000860303EB8303B0FBF3F30133C3F30B03C8
:1022900043F4404388E7042386E7012384E70120D1
:1022A00070470120ACE700BFA08601007F841E00BC
:1022B00083DE1B43FF083D00D34D621090F83D3094
:1022C000DBB2202B01D002207047242380F83D3060
:1022D0000268136823F0010313600268536A23F055
:1022E000100353620268536A19435162026813680B
:1022F00043F001031360202380F83D300020704735
:1023000090F83D30DBB2202B01D00220704724230F
:1023100080F83D300268136823F0010313600268FF
:10232000536A9BB223F00F03194389B251620268CA
:10233000136843F001031360202380F83D30002030
:102340007047000010B582B000230193194B1A6C3E
:1023500042F080521A641B6C03F080530193019B7E
:10236000154B01221A64FFF7EFFC0446134B5B6820
:1023700013F4803F08D1FFF7E7FC001BB0F57A7F2C
:10238000F4D9032002B010BD0B4B01225A64FFF7B1
:10239000DBFC0446094B5B6813F4003F07D1FFF7F1
:1023A000D3FC001BB0F57A7FF4D90320EAE70020C4
:1023B000E8E700BF0038024000000E420070004015
:1023C000002800F0E08170B582B00446036813F085
:1023D000010F3BD09F4B9B6803F00C03042B2CD0C8
:1023E0009C4B9B6803F00C03082B21D06368B3F56A
:1023F000803F4FD0B3F5A02F52D0964B1A6822F4ED
:1024000080321A601A6822F480221A606368002BF6
:1024100050D0FFF799FC05468E4B1B6813F4003F24
:1024200014D1FFF791FC401B6428F5D90320B1E1DA
:10243000884B5B6813F4800FD8D0864B1B6813F46D
:10244000003F03D06368002B00F09F81236813F0E6
:10245000020F54D07F4B9B6813F00C0F3ED07D4B86
:102460009B6803F00C03082B33D0E368002B68D083
:10247000794B01221A60FFF767FC0546754B1B6814
:1024800013F0020F54D1FFF75FFC401B0228F5D96F
:1024900003207FE16F4A136843F480331360B5E78C
:1024A0006C4B1A6842F480221A601A6842F4803237
:1024B0001A60ABE7FFF748FC0546664B1B6813F450
:1024C000003FC3D0FFF740FC401B6428F5D9032030
:1024D00060E1604B5B6813F4800FC6D15D4B1B68F5
:1024E00013F0020F03D0E368012B40F05081594AEA
:1024F000136823F0F803216943EAC10313602368DA
:1025000013F0080F42D063696BB3534B0122C3F839
:10251000802EFFF719FC05464E4B5B6F13F0020F40
:1025200034D1FFF711FC401B0228F5D9032031E11B
:10253000484A136823F0F803216943EAC103136092
:10254000DDE7454B00221A60FFF7FEFB0546414BD5
:102550001B6813F0020FD2D0FFF7F6FB401B0228D6
:10256000F5D9032016E13C4B0022C3F8802EFFF77B
:10257000EBFB0546374B5B6F13F0020F06D0FFF7FE
:10258000E3FB401B0228F5D9032003E1236813F085
:10259000040F77D02F4B1B6C13F0805F33D10023D7
:1025A00001932C4B1A6C42F080521A641B6C03F09E
:1025B00080530193019B0125284B1B6813F4807FF6
:1025C00023D0A368012B34D0052B38D0214B1A6FB0
:1025D00022F001021A671A6F22F004021A67A36838
:1025E000002B3DD0FFF7B0FB06461A4B1B6F13F0D4
:1025F000020F46D1FFF7A8FB801B41F288339842B7
:10260000F3D90320C6E00025D6E7144A136843F443
:1026100080731360FFF798FB0646104B1B6813F49A
:10262000807FCED1FFF790FB801B0228F5D90320D5
:10263000B0E0084A136F43F001031367CFE7054B7F
:102640001A6F42F004021A671A6F42F001021A6709
:10265000C5E700BF0038024000004742007000405C
:10266000FFF772FB0646524B1B6F13F0020F08D0A8
:10267000FFF76AFB801B41F288339842F3D90320AD
:1026800088E0EDB9A369002B00F08380484A926886
:1026900002F00C02082A51D0022B17D0454B002221
:1026A0001A66FFF751FB0446414B1B6813F0007F8D
:1026B00042D0FFF749FB001B0228F5D9032069E04F
:1026C0003B4A136C23F080531364DBE7394B002241
:1026D0001A66FFF739FB0546354B1B6813F0007F80
:1026E00006D0FFF731FB401B0228F5D9032051E04B
:1026F000E369226A1343626A43EA8213A26A5208B8
:10270000013A43EA0243E26A43EA0263284A536019
:10271000284B01221A66FFF717FB0446244B1B685F
:1027200013F0007F06D1FFF70FFB001B0228F5D93D
:1027300003202FE000202DE000202BE0012B2BD0E8
:102740001B4B5B6803F48001E269914226D103F0E0
:102750003F02216A8A4223D1616A47F6C0721A4059
:10276000B2EB811F1ED103F44031A26A5208013A34
:10277000B1EB024F18D103F07063E26AB3EB026F62
:1027800014D1002006E001207047012002E0012062
:1027900000E0002002B070BD0120FBE70120F9E756
:1027A0000120F7E70120F5E70120F3E70120F1E739
:1027B000003802400000474208B5254B9B6803F0F3
:1027C0000C03042B3FD0082B3FD1214B5A6802F059
:1027D0003F025B6813F4800F12D01D4B5968C1F3A0
:1027E00088111C480023A1FB0001FDF709FD184BCF
:1027F0005B68C3F3014301335B00B0FBF3F025E0FA
:10280000134B5968C1F3881C4FEA4C11B1EB0C0013
:102810006EEB0E0E4FEA8E1343EA90638101091AA4
:1028200063EB0E03DB0043EA5173C90011EB0C0CA0
:1028300043F10003990200234FEA8C2041EA9C51A6
:10284000FDF7DEFCD3E7034800E0034808BD00BF06
:102850000038024040787D010024F400002800F098
:102860009B8070B50D4604464F4B1B6803F00F0369
:102870008B4208D2CBB24C4A1370136803F00F039B
:102880008B4240F08B80236813F0020F17D013F0B7
:10289000040F04D0454A936843F4E05393602368DF
:1028A00013F0080F04D0414A936843F460439360E7
:1028B0003E4A936823F0F003A1680B4393602368BA
:1028C00013F0010F32D06368012B21D09A1E012A28
:1028D00025D9364A126812F0020F61D033498A684E
:1028E00022F0030213438B60FFF72EFA06462F4BAC
:1028F0009B6803F00C036268B3EB820F16D0FFF7FE
:1029000023FA801B41F288339842F0D9032042E039
:10291000264A126812F4003FE0D101203BE0234A2E
:10292000126812F0007FD9D1012034E01E4B1B68E1
:1029300003F00F03AB4207D9EAB21B4B1A701B68B6
:1029400003F00F03AB422DD1236813F0040F06D020
:10295000164A936823F4E053E1680B4393602368BD
:1029600013F0080F07D0114A936823F460432169DC
:1029700043EAC1039360FFF71FFF0C4B9B68C3F34F
:1029800003130B4AD35CD8400A4B18600A4B1868F3
:10299000FFF728F8002070BD012070470120FAE7FA
:1029A0000120F8E70120F6E7003C02400038024031
:1029B00038BA00080000002008000020014B186809
:1029C000704700BF0000002008B5FFF7F7FF044B79
:1029D0009B68C3F38223034AD35CD84008BD00BF81
:1029E0000038024048BA000808B5FFF7E7FF044B7B
:1029F0009B68C3F34233034AD35CD84008BD00BF91
:102A00000038024048BA00080F2303600B4B9A6855
:102A100002F0030242609A6802F0F00282609A6853
:102A200002F4E052C2609B68DB0803F4E0530361E8
:102A3000034B1B6803F00F030B6070470038024024
:102A4000003C02402DE9F04782B005468846174613
:102A50001E46FFF779F90A9B1B1A03EB0609FFF7DD
:102A600073F982462B4B1B68C3F3CB3309FB03F38B
:102A700001932B689C6838EA04030CBF4FF0010CEB
:102A80004FF0000CBC4540D0B6F1FF3FF1D0FFF74E
:102A90005BF9A0EB0A0048450AD2B9F1000F07D054
:102AA000019A02B14A46019B013B01939146E0E73E
:102AB0002A68536823F0E00353606B68B3F5827FA4
:102AC0000BD0AB6AB3F5005F14D0012385F8513009
:102AD000002385F85030032018E0AB68B3F5004FB1
:102AE00002D0B3F5806FECD12A68136823F040035D
:102AF0001360E6E72A68136823F4005313602A681A
:102B0000136843F400531360DFE7002002B0BDE810
:102B1000F08700BF0000002010B584B00446164BBB
:102B20001868164BA3FB0030400D4FF47A7303FB7B
:102B300000F003906368B3F5827F0BD0039BBBB1B9
:102B4000039B013B039323689B6813F0800FF5D12F
:102B500000200EE000920B46002280212046FFF765
:102B600071FF30B1636D43F020036365032000E023
:102B7000002004B010BD00BF00000020819F5E1641
:102B800000285AD010B50446436A33B94368B3F5F8
:102B9000827F05D00023C36102E00023036143610B
:102BA0000023A36294F85130002B40D0022384F814
:102BB00051302268136823F040031360636803F404
:102BC0008273A26802F404421343E26802F40062D2
:102BD0001343226902F002021343626902F0010208
:102BE0001343A26902F400721343E26902F038024F
:102BF0001343226A02F080021343A26A02F40052D5
:102C0000216813430B60638B03F00403626A02F0D4
:102C10001002216813434B602268D36923F40063D8
:102C2000D36100206065012384F8513010BD84F821
:102C300050302046FEF77CFEB8E7012070472DE9B2
:102C4000F04383B01D4690F85030012B00F0D18046
:102C5000044688469146012380F85030FFF774F807
:102C6000074694F85160F6B2012E40F0AF80B8F1FB
:102C7000000F00F0AC80B9F1000F00F0A880032332
:102C800084F8513000236365C4F83080A4F8349090
:102C9000A4F83690A363A387E38763642364A368DF
:102CA000B3F5004F1ED023681A6812F0400F03D10D
:102CB0001A6842F040021A60E368B3F5006F1CD056
:102CC000636813B1B9F1010F52D1226B23681278F6
:102CD0001A73236B01332363E38E9BB2013B9BB2D8
:102CE000E38645E02268136823F0400313602268FE
:102CF000136843F480431360D5E7636813B1B9F1F7
:102D0000010F16D1226B23681288DA60236B02331D
:102D10002363E38E9BB2013B9BB2E38609E0FFF79E
:102D200013F8C01BA84202D3B5F1FF3F59D1002DC3
:102D300059D0E38E9BB2002B33D023689A6812F0EF
:102D4000020FECD0226B1288DA60236B023323630C
:102D5000E38E9BB2013B9BB2E386EAE7FEF7F4FF0A
:102D6000C01BA84202D3B5F1FF3F3ED1002D3ED09B
:102D7000E38E9BB2ABB123689A6812F0020FEDD0DC
:102D8000226B12781A73236B01332363B4F836C0B5
:102D90001FFA8CFC0CF1FF3C1FFA8CFCA4F836C027
:102DA000E6E73A4629462046FFF7B6FE08B120235B
:102DB0006365A36833B901932368DA6801929B685D
:102DC0000193019B636D13B9002600E002260123E5
:102DD00084F85130002384F85030304603B0BDE809
:102DE000F0830326F3E70326F1E70326EFE7032644
:102DF000EDE70226F1E7704790F83D30DBB2012B9A
:102E000037D1022380F83D300268D36843F00103D4
:102E1000D3600368194A934220D0B3F1804F1DD08C
:102E2000A2F57C42934219D002F58062934215D0FC
:102E300002F58062934211D002F5784293420DD0A0
:102E400002F57052934209D0A2F59432934205D014
:102E50001A6842F001021A60002070479A6802F076
:102E60000702062A07D01A6842F001021A60002001
:102E70007047012070470020704700BF00000140EC
:102E8000704770477047704710B5044603681A6969
:102E900012F0020F11D0DA6812F0020F0DD06FF0AD
:102EA00002021A610123037703689B6913F0030F81
:102EB00070D0FFF7E6FF0023237723681A6912F02A
:102EC000040F12D0DA6812F0040F0ED06FF0040273
:102ED0001A610223237723689B6913F4407F5FD034
:102EE0002046FFF7CEFF0023237723681A6912F0EC
:102EF000080F12D0DA6812F0080F0ED06FF0080237
:102F00001A61042323772368DB6913F0030F4ED083
:102F10002046FFF7B6FF0023237723681A6912F0D3
:102F2000100F12D0DA6812F0100F0ED06FF01002EE
:102F30001A61082323772368DB6913F4407F3DD0AF
:102F40002046FFF79EFF0023237723681A6912F0BB
:102F5000010F03D0DA6812F0010F36D123681A6925
:102F600012F0800F03D0DA6812F0800F34D123689A
:102F70001A6912F0400F03D0DA6812F0400F32D114
:102F800023681A6912F0200F03D0DA6812F0200FBC
:102F900030D110BDFFF774FF2046FFF773FF8AE7BB
:102FA0002046FFF76DFF2046FFF76CFF9BE72046AA
:102FB000FFF766FF2046FFF765FFACE72046FFF707
:102FC0005FFF2046FFF75EFFBDE76FF001021A6169
:102FD0002046FEF7F5FBC1E76FF080021A6120463C
:102FE00000F0A1F8C3E76FF040021A612046FFF736
:102FF0004AFFC5E76FF020021A61204600F092F800
:10300000C7E700000368304A904212D0B0F1804F09
:103010000FD0A2F57C4290420BD002F58062904224
:1030200007D002F58062904203D002F578429042C8
:1030300003D123F070034A681343234A90422AD0F5
:10304000B0F1804F27D0A2F57C42904223D002F508
:10305000806290421FD002F5806290421BD002F540
:103060007842904217D002F57052904213D002F588
:10307000806290420FD002F5806290420BD0A2F5A0
:103080009832904207D002F58062904203D002F558
:103090008062904203D123F44073CA68134323F043
:1030A00080034A69134303608B68C3620B688362C1
:1030B000054B984203D003F58063984201D10B6918
:1030C00003630123436170470000014040B310B522
:1030D000044690F83D30F3B1022384F83D30214698
:1030E00051F8040BFFF78EFF012384F8463084F873
:1030F0003E3084F83F3084F8403084F8413084F822
:10310000423084F8433084F8443084F8453084F801
:103110003D30002010BD80F83C30FFF76CFEDBE74F
:103120000120704770477047026802F10C0353E8B2
:10313000003F23F490730C3242E800310029F3D1B0
:10314000026802F1140353E8003F23F00103143234
:1031500042E800310029F3D1036B012B05D0202375
:1031600080F83E30002303637047026802F10C03CD
:1031700053E8003F23F010030C3242E800310029ED
:10318000F3D1ECE790F83D30DBB2212B01D00220E7
:1031900070478368B3F5805F17D0036A5A1C0262D8
:1031A0001A7803685A60C38C9BB2013B9BB2C384FC
:1031B0004BB90268D36823F08003D3600268D368F8
:1031C00043F04003D360002070470369002BE4D133
:1031D000036A1B880268C3F308035360036A02335F
:1031E0000362E0E738B504460268136923F44053EC
:1031F000C1680B4313618368026913434269134337
:10320000C2691A430168CB6823F4164323F00C0308
:103210001343CB600268536923F4407381690B4305
:1032200053610368314A934206D002F580629342AB
:1032300002D0FFF7C9FB01E0FFF7D6FBE369B3F566
:10324000004F29D00021031849411B1841F100010A
:10325000C90041EA5371DB00181863684FEA830222
:103260004FEA937341F10001FCF7CAFF204DA5FB23
:1032700000325109642303FB11031B013233A5FB08
:1032800003235B0903F0F00202EB011203F00F03CA
:10329000216813448B6038BD0023021843EB0301FF
:1032A000121841F10001C90041EA5271D200101810
:1032B00041F10001626892185B41FCF7A1FF0C4DDF
:1032C000A5FB00325109642303FB1103DB003233F9
:1032D000A5FB03235B095A0002F4F87202EB01120A
:1032E00003F00703216813448B60D4E7001001400A
:1032F0001F85EB512DE9F84305460F4616469946C2
:10330000DDF820802C68246837EA04030CBF4FF0F6
:10331000010C4FF0000CB4452DD1B8F1FF3FF1D0B6
:10332000B8F1000F05D0FEF70FFDA0EB09004045F6
:10333000E8D92A6802F10C0353E8003F23F4D07364
:103340000C3242E800310029F3D12A6802F114035B
:1033500053E8003F23F00103143242E80031002912
:10336000F3D1202385F83D3085F83E30002385F8E1
:103370003C30032000E00020BDE8F88358B310B5CE
:10338000044690F83D300BB3242384F83D30226886
:10339000D36823F40053D3602046FFF723FF22684D
:1033A000136923F4904313612268536923F02A03BD
:1033B00053612268D36843F40053D3600020206433
:1033C000202384F83D3084F83E3010BD80F83C3036
:1033D000FEF7E4FBD8E7012070472DE9F04182B009
:1033E0001E4690F83D30DBB2202B54D104460D46EA
:1033F0009046002953D0002A53D090F83C30012B3E
:1034000051D0012380F83C3000230364212380F84D
:103410003D30FEF799FC0746A4F82480A4F82680E6
:10342000A368B3F5805F05D04FF00008002384F84F
:103430003C3012E0236913B14FF00008F6E7A846CC
:103440000025F3E738F8023B2268C3F30803536012
:10345000E28C92B2013A92B2E284E38C9BB273B1F5
:1034600000963B46002280212046FFF743FFE0B94B
:10347000002DE7D015F8012B23685A60E8E7009685
:103480003B46002240212046FFF734FF78B9202335
:1034900084F83D3000E0022002B0BDE8F081012058
:1034A000FAE70120F8E70220F6E70320F4E703201B
:1034B000F2E72DE9F04182B01E4690F83E30DBB2D3
:1034C000202B5CD104460D46904600295BD0002A93
:1034D0005BD090F83C30012B59D0012380F83C3070
:1034E00000230364222280F83E200363FEF72CFCB5
:1034F0000746A4F82C80A4F82E80A368B3F5805F5B
:1035000005D04FF00008002384F83C3017E0236911
:1035100013B14FF00008F6E7A8460025F3E723684B
:103520005B68C3F3080328F8023B03E023685B6889
:103530002B700135E28D92B2013A92B2E285E38DB1
:103540009BB2BBB100963B46002220212046FFF7EC
:10355000D1FEF0B9002DE2D0A368B3F5805FE5D0CD
:1035600013B92369002BE1D023685B6803F07F0364
:103570002B70DEE7202384F83E30002000E002209C
:1035800002B0BDE8F0810120FAE70120F8E702204F
:10359000F6E70320F4E7704708B50168CA6822F02F
:1035A0004002CA60202280F83D20FFF7F4FF00208F
:1035B00008BD704708B5806B0023C385C384FFF73F
:1035C000F8FF08BD704790F83E30DBB2222B67D180
:1035D0008368B3F5805F4DD0826AB3F5805F04D015
:1035E000002B54D10369002B51D103685B68137021
:1035F000836A01338362C38D9BB2013B9BB2C38557
:10360000002B4FD100B583B00268D36823F02003AC
:10361000D3600268D36823F48073D360026853696F
:1036200023F001035361202380F83E30036B012B0C
:1036300033D100230363026802F10C0353E8003F17
:1036400023F010030C3242E800310029F3D1036863
:103650001A6812F0100F06D0002201921A68019227
:103660005B680193019B818DFFF7ACFF002003B0E5
:103670005DF804FB0269002AAED1826A03685B68C8
:10368000C3F308031380836A02338362B3E70368DA
:103690005B6803F07F031370AAE701F099FDE5E78B
:1036A000022070470020704730B583B0044602689E
:1036B0001368D068516913F00F0505D113F0200F7E
:1036C00002D010F0200F19D12DB111F0010119D144
:1036D00010F4907F16D1216B01297DD013F0800F5B
:1036E00003D010F0800F40F0158113F0400F03D08D
:1036F00010F0400F40F0128103B030BD2046FFF7BC
:1037000062FFF9E713F0010F06D010F4807F03D0B9
:10371000226C42F00102226413F0040F04D019B1AC
:10372000226C42F00202226413F0020F04D019B19D
:10373000226C42F00402226413F0080F07D010F04C
:10374000200F00D119B1226C42F008022264226CD1
:10375000002AD1D013F0200F02D010F0200F29D171
:1037600023685B6903F04003226C12F0080F00D15C
:1037700063B32046FFF7D8FC23685B6913F0400F62
:1037800020D0226802F1140353E8003F23F04003E5
:10379000143242E800310029F3D1A36B73B1614ABE
:1037A0001A65A06BFEF78CFB0028A5D0A06B036DFB
:1037B0009847A1E72046FFF706FFD1E72046FFF72D
:1037C000F8FE99E72046FFF7F4FE95E72046FFF75D
:1037D000F0FE002323648FE713F0100F3FF47EAF59
:1037E00010F0100F3FF47AAF002301931368019398
:1037F00053680193019B536913F0400F50D0A26BA3
:1038000013685B689BB2002B3FF476AFA18D9942A1
:103810007FF672AFE385D369B3F5807F37D0226836
:1038200002F10C0353E8003F23F480730C3242E8AA
:1038300000310029F3D1226802F1140353E8003F5C
:1038400023F00103143242E800310029F3D1226849
:1038500002F1140353E8003F23F04003143242E81E
:1038600000310029F3D1202384F83E300023236364
:10387000226802F10C0353E8003F23F010030C32DE
:1038800042E800310029F3D1A06BFEF7CFFAA18DF9
:10389000E38D9BB2C91A89B22046FFF793FE2BE74E
:1038A000A18DE38D9BB2C91A89B2E38D9BB2002B27
:1038B0003FF422AF00293FF41FAF226802F10C034E
:1038C00053E8003F23F490730C3242E800300028A4
:1038D000F3D1226802F1140353E8003F23F00103FF
:1038E000143242E800300028F3D1202384F83E301F
:1038F00000232363226802F10C0353E8003F23F006
:1039000010030C3242E800300028F3D12046FFF7C4
:1039100059FEF1E62046FFF735FCEDE62046FFF7BD
:103920003BFEE9E6B535000881628285C285002349
:103930000364222280F83E2080F83C30036923B1E2
:103940000268D36843F48073D3600268536943F01C
:10395000010353610268D36843F02003D360002061
:10396000704708B590F83E30DBB2202B0DD171B115
:103970007AB190F83C30012B0DD0012380F83C3017
:1039800000230363FFF7D0FF00E0022008BD012001
:10399000FCE70120FAE70220F8E7842801D0033091
:1039A00070470020704708B501F058F8002008BDA6
:1039B0002DE9F04387B004460F464569BDB18669DD
:1039C000AEB1D0F80480D0F80090B0F90800FFF74D
:1039D000E4FF0296019500903B4622694946404625
:1039E00000F0CCFF0590059807B0BDE8F08365684E
:1039F0002668D4F81080B4F90800FFF7CEFF05ABB5
:103A0000019300903B461FFA88F23146284600F0A9
:103A1000F0FF0128E7D00020E6E708B500B9012053
:103A200001F066F9002008BD08B5416819B1012010
:103A300000F047FD08BD012000F038FDFAE700B5B1
:103A400083B0826842B1C36833B1002100914168FC
:103A5000006800F0EDFB04E000224168006800F01F
:103A600031FC03B05DF804FB00F1080343604FF044
:103A7000FF328260C360036100230360704700234C
:103A80000361704743684B609A688A60516099602F
:103A90000861036801330360704730B40D68B5F105
:103AA000FF3F11D000F108031C465B681A68AA4268
:103AB000FAD963684B6099608C6061600861036843
:103AC0000133036030BC70470469F2E70369416861
:103AD00082688A60416851605A68824206D000223A
:103AE00002611A68013A1A601868704782685A6061
:103AF000F5E7000082B0002301930D4B1B68B3F182
:103B0000FF3F08D04FF0500383F31188BFF36F8F4E
:103B1000BFF34F8FFEE74FF0500383F31188BFF3DD
:103B20006F8FBFF34F8F019B002BFCD002B070470B
:103B30000C00002008480068006880F308884FF0F7
:103B4000000080F3148862B661B6BFF34F8FBFF3F5
:103B50006F8F00DF00BF000008ED00E0DFF80C0011
:103B6000016841F4700101607047000088ED00E0D9
:103B70004FF0807340F8043C21F0010140F8081C2C
:103B8000054B40F80C3C40F8202C6FF0020340F845
:103B9000243C4438704700BFF53A0008000000009C
:103BA000074B19680868B0E8F04F80F30988BFF345
:103BB0006F8F4FF0000080F311887047AFF30080E3
:103BC000284D00204FF0500383F31188BFF36F8F0F
:103BD000BFF34F8F0B4A136801331360012B00D0E2
:103BE00070474FF0E023D3F8043D13F0FF0FF7D0F8
:103BF0004FF0500383F31188BFF36F8FBFF34F8FE4
:103C0000FEE700BF0C000020094B1B6843B94FF0D2
:103C1000500383F31188BFF36F8FBFF34F8FFEE71D
:103C2000013B034A13600BB983F31188704700BF4F
:103C30000C00002000000000000000000000000058
:103C4000EFF30980BFF36F8F154B1A681EF0100F4A
:103C500008BF20ED108A20E9F04F10602DE909001F
:103C60004FF0500080F31188BFF34F8FBFF36F8F79
:103C700001F064F84FF0000080F3118809BC196866
:103C80000868B0E8F04F1EF0100F08BFB0EC108AC3
:103C900080F30988BFF36F8F704700BFAFF30080D8
:103CA000284D002008B54FF0500383F31188BFF36F
:103CB0006F8FBFF34F8F00F013FF28B14FF0E02359
:103CC0004FF08052C3F8042D002383F3118808BD00
:103CD0004FF0E022002313619361054B1B680549F7
:103CE000A1FB03139B09013B536107231361704739
:103CF00000000020D34D62104FF0E023D3F8002DD8
:103D00003D4B9A421CD04FF0E023D3F8002D3B4BA3
:103D10009A421ED030B583B0394B1A78D2B2019294
:103D2000FF221A701B78DBB28DF803309DF8033048
:103D300003F05003334A1370334B07221A601BE021
:103D40004FF0500383F31188BFF36F8FBFF34F8F92
:103D5000FEE74FF0500383F31188BFF36F8FBFF37B
:103D60004F8FFEE7284A1368013B13609DF803302C
:103D70005B00DBB28DF803309DF8033013F0800F49
:103D8000F0D1214B1B68032B08D04FF0500383F375
:103D90001188BFF36F8FBFF34F8FFEE71B021A4AE4
:103DA000136003F4E0631360019BDBB2144A1370E9
:103DB0004FF0E024D4F8203D43F47003C4F8203DD4
:103DC000D4F8203D43F07043C4F8203DFFF780FF56
:103DD00000250E4B1D60FFF7C1FED4F8343F43F0C1
:103DE0004043C4F8343FFFF7A5FE00F0A7FFFFF7FC
:103DF00081FE284603B030BD71C20F4170C20F4131
:103E000000E400E000110020041100200C0000205C
:103E1000124A12F0070F1ED0D11D21F00701C1F583
:103E2000705313440A460E48026000214160134457
:103E3000083B23F007030B48036059601960991A87
:103E400051601360084B1960084B1960084B4FF024
:103E500000421A6070474FF47053E4E70C110020E1
:103E6000204D002008110020144D0020104D00208E
:103E70000C4D0020164B1A461B688342FBD3516839
:103E800002EB010C844509D0416800EB010C63454D
:103E900009D00360904219D0106070474068014417
:103EA00051601046F0E710B40A4C2468A3420BD0CE
:103EB0005B681944416013681B680360904200D03E
:103EC00010605DF8044B70470460F7E7704700BF6F
:103ED000204D00200811002070B5054600F0F8FDC7
:103EE000364B1B68A3B1364B1B681D424ED135B112
:103EF000083515F0070F02D025F007050835002D0D
:103F000046D0304B1B68AB4251D32F4A146804E0B3
:103F1000FFF77EFFE7E722461C466368AB4202D20A
:103F20002368002BF7D1254B1B68A34241D01668AC
:103F300008362368136063685B1B102B10D9601967
:103F400010F0070F08D04FF0500383F31188BFF330
:103F50006F8FBFF34F8FFEE743606560FFF78AFF07
:103F6000626818490B689B1A0B60184909688B42F4
:103F700001D216490B60124B1B6813436360002388
:103F80002360134A13680133136002E0002600E047
:103F9000002600F031FE16F0070F0CD04FF0500352
:103FA00083F31188BFF36F8FBFF34F8FFEE70026B7
:103FB000EFE70026EDE7304670BD00BF0811002096
:103FC0000C4D0020104D0020204D0020144D0020ED
:103FD000184D0020002834D038B50446A0F108055B
:103FE00050F8043C174A1268134208D14FF05003AE
:103FF00083F31188BFF36F8FBFF34F8FFEE750F845
:10400000081C41B14FF0500383F31188BFF36F8F49
:10401000BFF34F8FFEE723EA020340F8043C00F0B1
:1040200057FD54F8041C084A13680B4413602846D3
:10403000FFF720FF054A13680133136000F0DCFD31
:1040400038BD70470C4D0020104D00201C4D002045
:1040500010B50446FFF7B6FDA26BE36B9A4204D09D
:104060000024FFF7D1FD204610BD0124F9E710B56B
:104070000446FFF7A7FDA36B23B90124FFF7C4FD96
:10408000204610BD0024F9E770B504461546866B3E
:10409000026C5AB903681BB100200136A66370BDDB
:1040A000806800F065FF0023A360F6E76DB9406803
:1040B000FCF728FA226C636813446360A268934299
:1040C00019D3236863602846E7E7C068FCF71AFA4B
:1040D000226C5142E3689B1AE3602268934202D249
:1040E000A3680B44E360022D01D00020D5E726B180
:1040F000013E0020D1E72846CFE70020CDE7034668
:10410000026C6AB110B50846D9681144D9609C6840
:10411000A14201D31968D960D968FCF7F3F910BD41
:10412000704738B50546FFF74DFD95F8454064B238
:1041300001E0013C64B2002C0ADD6B6A43B105F179
:10414000240000F05FFE0028F3D000F0EFFEF0E75F
:10415000FF2385F84530FFF757FDFFF733FD95F84E
:10416000444064B201E0013C64B2002C0ADD2B69DA
:1041700043B105F1100000F045FE0028F3D000F037
:10418000D5FEF0E7FF2385F84430FFF73DFD38BD4D
:1041900038B5E0B10D460446FFF714FD2368E26B25
:1041A000216C01FB0230A0600020A0636360013A33
:1041B00002FB0133E360FF2384F8443084F8453088
:1041C000FDB9236963B9FFF71FFD012038BD4FF02A
:1041D000500383F31188BFF36F8FBFF34F8FFEE758
:1041E00004F1100000F00EFE0028ECD04FF0E023A8
:1041F0004FF08052C3F8042DBFF34F8FBFF36F8F82
:10420000E1E704F11000FFF72FFC04F12400FFF7B1
:104210002BFCD8E710B5034602980C4631B9006074
:10422000C36304640121FFF7B3FF10BD0260F7E729
:1042300040B94FF0500383F31188BFF36F8FBFF382
:104240004F8FFEE710B584B01C46844653B192B13F
:1042500089B94FF0500383F31188BFF36F8FBFF319
:104260004F8FFEE74FF0500383F31188BFF36F8F3A
:10427000BFF34F8FFEE76AB148230393039B482B9C
:1042800013D04FF0500383F31188BFF36F8FBFF348
:104290004F8FFEE70029EFD04FF0500383F31188D2
:1042A000BFF36F8FBFF34F8FFEE7039B012384F8AB
:1042B000463000949DF818306046FFF7ABFF20466B
:1042C00004B010BD40B94FF0500383F31188BFF321
:1042D0006F8FBFF34F8FFEE7F0B583B00D461446E6
:1042E000064601FB00F04830FFF7F6FD074650B1E7
:1042F000002380F846300090234600F1480229460A
:104300003046FFF787FF384603B0F0BDF0B585B003
:10431000019288B10F461D460446B1B1022D20D14D
:10432000E36B012B1DD04FF0500383F31188BFF3D3
:104330006F8FBFF34F8FFEE74FF0500383F3118869
:10434000BFF36F8FBFF34F8FFEE7036C002BE5D0F9
:104350004FF0500383F31188BFF36F8FBFF34F8F7C
:10436000FEE700F0F5FD064658B9019B002B48D04A
:104370004FF0500383F31188BFF36F8FBFF34F8F5C
:10438000FEE700263DE02A4639462046FFF77CFE40
:10439000636A7BB948B14FF0E0234FF08052C3F815
:1043A000042DBFF34F8FBFF36F8FFFF72DFC01205C
:1043B00005B0F0BD04F1240000F024FD0028F4D085
:1043C0004FF0E0234FF08052C3F8042DBFF34F8F1E
:1043D000BFF36F8FE9E7FFF717FC0020E8E702A8BB
:1043E00000F056FD012619E0002384F8443021E056
:1043F000002384F8453023E02046FFF792FE00F0CA
:10440000FBFBFFF7DFFBA26BE36B9A42BBD3022DF2
:10441000B9D0019B002BDED0002EE0D0FFF7F4FBDB
:1044200000F056FBFFF7CEFB94F8442052B2B2F1F5
:10443000FF3FD9D094F8452052B2B2F1FF3FD7D018
:10444000FFF7E2FB01A902A800F02EFDD8B9204633
:10445000FFF7FEFD0028CFD0019904F1100000F015
:10446000B9FC2046FFF75DFE00F0C6FB0028C8D16E
:104470004FF0E0234FF08052C3F8042DBFF34F8F6D
:10448000BFF36F8FBDE72046FFF74BFE00F0B4FB94
:1044900000208DE748B108B5002181600160C1604E
:1044A0000B460A46FFF732FF08BD704710B50246BB
:1044B00000210120FFF706FF0446FFF7EBFF20462F
:1044C00010BD10B582B00B460090002211460120AD
:1044D000FFF7AEFE0446FFF7DDFF204602B010BD39
:1044E000F0B585B0019290B10F460446C1B100F01D
:1044F0002FFD064600BB019B002B5ED04FF0500302
:1045000083F31188BFF36F8FBFF34F8FFEE74FF038
:10451000500383F31188BFF36F8FBFF34F8FFEE714
:10452000036C002BE3D04FF0500383F31188BFF3EB
:104530006F8FBFF34F8FFEE700263EE039462046DF
:10454000FFF7DDFD013DA563236923B9FFF75CFBA0
:10455000012005B0F0BD04F1100000F053FC00286C
:10456000F4D04FF0E0234FF08052C3F8042DBFF396
:104570004F8FBFF36F8FE9E7FFF746FB0020E8E7B7
:1045800002A800F085FC012621E0002384F84430D5
:1045900029E0002384F845302BE02046FFF7C1FDD9
:1045A00000F02AFB09E02046FFF7BBFD00F024FBEA
:1045B0002046FFF75CFD00283FD1FFF703FBA56B0A
:1045C000002DBBD1019B002BD6D0002ED8D0FFF7F9
:1045D0001BFB00F07DFAFFF7F5FA94F844305BB26C
:1045E000B3F1FF3FD1D094F845305BB2B3F1FF3F58
:1045F000CFD0FFF709FB01A902A800F055FC002865
:10460000D1D12046FFF733FD0028C6D0019904F12F
:10461000240000F0DFFB2046FFF783FD00F0ECFAFA
:104620000028CAD14FF0E0234FF08052C3F8042D88
:10463000BFF34F8FBFF36F8FBFE7002089E70023E1
:1046400001E0013001330278A52AFAD0C3F38F00CC
:1046500070470000084B1B681B6823B9074B4FF0DD
:10466000FF321A607047044B1B68DB68DB685A68CE
:10467000024B1A60704700BF2C4D0020004E0020F6
:104680002DE9F04780460D4617469946089EDDF80D
:1046900024A00A9C9200A521206B00F0B9FF236B97
:1046A00007F18042013A03EB820727F00707B5B311
:1046B0004FF0000CBCF10F0F0BD815F80C2004EBD9
:1046C0000C0383F8342015F80C3013B10CF1010CF5
:1046D000F0E7002384F84330062E00D90626E66270
:1046E00066640025A564201DFFF7C9F904F11800D0
:1046F000FFF7C5F92461C6F10706A6616462E564A7
:1047000084F850504A4641463846FFF731FA206057
:10471000BAF1000F01D0CAF80040BDE8F0870023CD
:1047200084F83430D8E7000038B5002407E004EB03
:10473000840293000E481844FFF796F90134062CC2
:10474000F5D90C4D2846FFF78FF90B4C2046FFF7A3
:104750008BF90A48FFF788F90948FFF785F90948F6
:10476000FFF782F9084B1D60084B1C6038BD00BF85
:10477000344D0020D44D0020E84D00200C4E002088
:10478000384E0020244E00202C4D0020304D0020BB
:1047900010B50446FFF716FA214A13680133136077
:1047A000204B1B685BB1204B1B686BB91D4B1B6812
:1047B000DA6AE36A9A4207D81A4B1C6004E0194B84
:1047C0001C601368012B28D0184A1368013313604A
:1047D000E06A01238340164A11680B43136000EB23
:1047E0008000211D134B03EB8000FFF74BF9FFF70F
:1047F0000BFA0D4B1B687BB10A4B1B68DA6AE36A44
:104800009A4209D24FF0E0234FF08052C3F8042DB2
:10481000BFF34F8FBFF36F8F10BDFFF785FFD3E757
:10482000C04D0020284D0020204E0020CC4D0020FF
:10483000D04D0020344D002010B5044690F8513082
:1048400063B1012B11D0022B0ED04FF0500383F334
:104850001188BFF36F8FBFF34F8FFEE7006BFFF739
:10486000B9FB2046FFF7B6FB10BDFFF7B3FBFBE734
:104870000F4B1B68D3B110B5FFF7A4F90D4BDB68E4
:10488000DC68201DFFF722F90B4A1368013B136017
:10489000074A1368013B1360FFF7B6F92046FFF79C
:1048A000CBFF034B1B68002BE6D110BD704700BF48
:1048B000C44D0020384E0020C04D002008B5FFF741
:1048C000D7FF074B1B68012BF9D94FF0E0234FF0BE
:1048D0008052C3F8042DBFF34F8FBFF36F8FEEE705
:1048E000344D002070B504460D461D4B1E681D4B0F
:1048F00018680430FFF7EAF850B91A4B1B68DA6AF7
:10490000012303FA02F218490B6823EA02030B6041
:10491000B4F1FF3F0DD03444124B1B685C60A642DB
:1049200010D9124B18680F4B19680431FFF7B5F80E
:1049300070BD002DEFD00B4B196804310C48FFF708
:10494000A1F8F5E70B4B1868064B19680431FFF71F
:10495000A4F8094B1B68A342EAD9074B1C60E7E7A0
:104960004C4E0020284D0020D04D0020304D00201E
:10497000244E00202C4D0020004E002030B587B082
:104980000B9C7CB10C9DB5B154250495049D542D10
:104990001AD04FF0500383F31188BFF36F8FBFF32A
:1049A0004F8FFEE74FF0500383F31188BFF36F8FF3
:1049B000BFF34F8FFEE74FF0500383F31188BFF32F
:1049C0006F8FBFF34F8FFEE7049D0C9D2C63022475
:1049D00085F8514000240394029505AC01940A9C8B
:1049E0000094FFF74DFE0C98FFF7D2FE059807B034
:1049F00030BD2DE9F04385B00746884614461E4673
:104A00009000FFF769FA00B381465420FFF764FA7B
:104A10000546B0B1C0F83090E5B1002385F85130BB
:104A2000039302950D9B01930C9B00933346224602
:104A300041463846FFF724FE2846FFF7A9FE01202D
:104A400005E04846FFF7C6FAE6E74FF0FF3005B04D
:104A5000BDE8F0834FF0FF30F9E7000010B588B0F3
:104A600000240594069407AA06A905A8FCF7C2FC31
:104A7000059B0293069B019300942346079A0E49D7
:104A80000E48FFF77BFF0E4B186090B14FF05003BC
:104A900083F31188BFF36F8FBFF34F8F094B4FF034
:104AA000FF321A60084B01221A60084B1C60FFF7A6
:104AB00023F908B010BD00BF50BA0008BD48000877
:104AC000FC4D0020004E0020204E00204C4E0020C7
:104AD000024A136801331360704700BFC84D0020BD
:104AE000F8B53A4B1B68002B69D1394B1D6801356D
:104AF0001D60C5B9374B1B681B6843B14FF05003AD
:104B000083F31188BFF36F8FBFF34F8FFEE7314AF6
:104B10001168314B186810601960304A136801330E
:104B20001360FFF797FD2E4B1B68AB423DD9002762
:104B30002C4B1B68DB6A03EB83039A002A4B9B58C0
:104B4000012B00D90127294B1B68002B3CD00127E2
:104B50003AE001271F4B1B681B6843B31D4B1B68C2
:104B6000DB68DC6863689D4226D3261D3046FEF76D
:104B7000ADFFA36A1BB104F11800FEF7A7FFE36ABB
:104B800001229A401A49086802430A6003EB830332
:104B90009A00314614481044FEF774FFE26A114B44
:104BA0001B68DB6A9A42D4D2D4E70027D2E70C4BC9
:104BB0004FF0FF321A60BBE7094A1360B8E70D4AAD
:104BC00013680133136000273846F8BDC84D002034
:104BD0004C4E00202C4D0020304D0020044E002073
:104BE000004E0020284D0020344D0020504E002063
:104BF000D04D0020084E002038B5354B1B6843B916
:104C00004FF0500383F31188BFF36F8FBFF34F8FC3
:104C1000FEE7FEF7D7FF2E4B1A68013A1A601B68B1
:104C2000002B4FD12B4B1B680BB900244BE0002409
:104C3000294B1B681BB3284BDB68DC6804F11800A8
:104C4000FEF744FF251D2846FEF740FFE06A0123DA
:104C50008340224A11680B43136000EB8000294611
:104C60001F4B03EB8000FEF70DFFE26A1D4B1B6834
:104C7000DB6A9A42DCD31C4B01221A60D8E70CB1E4
:104C8000FFF7E8FC194B1C6884B9174B1C68D4B1BA
:104C90004FF0E0234FF08052C3F8042DBFF34F8F45
:104CA000BFF36F8F01240EE0013C07D0FFF718FF20
:104CB0000028F9D00C4B01221A60F5E70B4B0022BB
:104CC0001A60E2E70024FEF79FFF204638BD00BFD0
:104CD000C84D0020C04D00200C4E0020D04D0020BB
:104CE000344D0020284D0020504E0020084E00205A
:104CF00010B5A8B10446104B1B6843B14FF05003E8
:104D000083F31188BFF36F8FBFF34F8FFEE7FFF779
:104D1000DFFE00212046FFF7E5FDFFF76DFF48B9F4
:104D20004FF0E0234FF08052C3F8042DBFF34F8FB4
:104D3000BFF36F8F10BD00BFC84D0020204B1B6814
:104D40001BB1204B01221A6070471E4B00221A60D3
:104D50001D4B1B68B3FA83F3DBB2C3F11F0303EBF4
:104D600083018A0019498A5842B94FF0500383F3EE
:104D70001188BFF36F8FBFF34F8FFEE7134903EB2B
:104D8000830082000A4450684068506003EB830C43
:104D90004FEA8C0208321144884209D003EB8303A6
:104DA0009A000A4B13445B68DA68094B1A60704733
:104DB000406862469100054A0A445060EEE700BF31
:104DC000C84D0020504E0020D04D0020344D002012
:104DD000284D002058B110B50C46094A1168183109
:104DE000FEF75BFE01212046FFF77CFD10BD4FF072
:104DF000500383F31188BFF36F8FBFF34F8FFEE72C
:104E0000284D002038B5C368DC6824B304F11805C8
:104E10002846FEF75BFE184B1B682BBB251D28465A
:104E2000FEF754FEE06A01238340144A11680B43E5
:104E3000136000EB80002946114B03EB8000FEF766
:104E400021FEE26A0F4B1B68DB6A9A4211D90120EE
:104E50000D4B186038BD4FF0500383F31188BFF33A
:104E60006F8FBFF34F8FFEE729460848FEF70AFE13
:104E7000E7E70020EEE700BFC84D0020D04D00203E
:104E8000344D0020284D0020504E00200C4E0020B4
:104E9000034B1B680360034B1B684360704700BFF4
:104EA000044E00204C4E0020F8B5C8B10C46054613
:104EB000F9B1FEF787FE1B4B19686B68C81A2268A8
:104EC000B2F1FF3F26D0184E36682F68B74201D0A6
:104ED0008B4224D9824215D80023236001241AE092
:104EE0004FF0500383F31188BFF36F8FBFF34F8FE1
:104EF000FEE74FF0500383F31188BFF36F8FBFF3CA
:104F00004F8FFEE75B1A134423602846FFF7C0FF6C
:104F1000002400E00024FEF777FE2046F8BD0124BF
:104F2000F9E700BF4C4E0020044E0020014B012247
:104F30001A607047504E002008B5034618B1186B30
:104F4000FFF77DFB08BD014B1B68F8E7284D0020EB
:104F5000054B1B6833B1054B1B680BB10020704734
:104F60000220704701207047204E0020C84D0020CD
:104F700000284CD038B50446274B1B68834208D024
:104F80004FF0500383F31188BFF36F8FBFF34F8F40
:104F9000FEE7836C43B94FF0500383F31188BFF3EE
:104FA0006F8FBFF34F8FFEE7013B8364C16A426C92
:104FB00091422ED00BB1002038BD051D2846FEF7CA
:104FC00085FD70B9E26A02EB82039B001349CB585E
:104FD0003BB9012303FA02F211490B6823EA0203E9
:104FE0000B60606CE062C0F10703A361012404FA66
:104FF00000F30B4A11680B43136000EB8000294655
:10500000064B03EB8000FEF73DFD2046D4E7002071
:1050100070470020D0E700BF284D0020344D00200D
:10502000D04D002000B587B0002301930293039375
:105030000493059301280AD00423019301230293CA
:1050400001A90748FCF750FF07B05DF804FB0423F3
:1050500001930DEB03010248FCF746FFF4E700BFA4
:105060000010024038B500250120FFF7DBFF2C4679
:105070000CE004211248FDF735F80128F9D0C4F1FD
:10508000070201239340DBB21D430134072C15DCDA
:1050900004210B48FDF726F80028F9D0282000F05D
:1050A000C9F804210648FDF71DF80028E1D1C4F134
:1050B00007020123934025EA0305E6E7284638BDA9
:1050C0000010024038B504460020FFF7ABFF324D18
:1050D000002204212846FDF70CF8122000F0D8F831
:1050E000012204212846FDF704F81E2000F0A2F852
:1050F0000120FFF797FF04212846FCF7F3FF054640
:10510000002846D104212448FCF7ECFF0028F9D000
:1051100004212148FCF7E6FF0128F9D0FFF7A2FFA0
:105120002070FFF79FFF6070FFF79CFFA070FFF7F4
:1051300099FFE070FFF796FF2071237807EE903A11
:10514000F8EE677A617807EE101AB8EE476AB2EEA9
:10515000047AC6EE076A77EEA67AC4ED027AA278E0
:1051600007EE902AF8EE677A94F803C006EE90CA2C
:10517000B8EE666AC6EE076A77EEA67AC4ED037AE1
:1051800019440A4402EB0C03984200D0012528463A
:1051900038BD0125FBE700BF0010024010B50B4CE5
:1051A000012211462046FCF7A4FF3220FCF7D2FD75
:1051B000002202212046FCF79CFF3220FCF7CAFDAA
:1051C000012202212046FCF794FF10BD000402409A
:1051D00038B504460268114B9A4204D02268104B3D
:1051E0009A420DD038BD0F4D01231A4629460E486C
:1051F000FEF7F3F8012229460C48FEF7B2FBEDE773
:105200000B4C01231A4621460848FEF7E6F8012216
:1052100021460548FEF7A5FBE4E700BF001001406A
:1052200000440040CC0F0020B81000207410002073
:10523000CD0F002038B505464FF0E0231B6913F071
:10524000010F0ED04FF0E02254690F4B1B680F493D
:10525000A1FB033C4FEA9C4C05FB0CFC936900212D
:1052600007E0FEF735FDEDE7E01A02441144614521
:1052700009D21A464FF0E0239B699A42FAD0F3D93B
:10528000D21A1144F3E738BD0000002083DE1B432F
:1052900010B504E04FF47A70FFF7CCFF2046441EAF
:1052A0000028F7D110BD000008B501224FF4E051ED
:1052B0000148FCF71EFF08BD001C024010B5074C5A
:1052C000002202212046FCF714FF3220FCF742FDA9
:1052D000012202212046FCF70CFF10BD0000024015
:1052E00000B583B08DF80700012204210648FCF7C1
:1052F00000FFFF2301220DF107010448FDF79FFC89
:1053000003B05DF804FB00BF00000240D00F002096
:1053100000B583B08DF80700002204210648FCF791
:10532000E8FEFF2301220DF107010448FDF787FC89
:1053300003B05DF804FB00BF00000240D00F002066
:1053400038B52120FFF7E4FF0020FFF7E1FF7F20C1
:10535000FFF7DEFF2220FFF7DBFF0020FFF7D8FF7B
:105360000720FFF7D5FF002509E00020FFF7B8FF71
:105370000134E4B214F0800FF7D00135EDB2072DFF
:105380000CD8A5F15000C0B2FFF7C2FF0120FFF713
:10539000BFFF1020FFF7BCFF0024EBE738BD08B5C6
:1053A000FFF78CFFAE20FFF7B3FF0020FFF7B0FF41
:1053B0001020FFF7ADFF4020FFF7AAFFA120FFF765
:1053C000A7FFC820FFF7A4FFA620FFF7A1FFA82092
:1053D000FFF79EFF3F20FFF79BFFD320FFF798FFCB
:1053E0000020FFF795FFD520FFF792FF8020FFF701
:1053F0008FFFD920FFF78CFFF120FFF789FFDA201C
:10540000FFF786FF1220FFF783FFDB20FFF780FF07
:105410000020FFF77DFF2020FFF77AFF0020FFF735
:1054200077FF8D20FFF774FF1420FFF771FFA42092
:10543000FFF76EFFA620FFF76BFFAF20FFF768FFB7
:10544000FFF77EFF08BD2DE9F84307460E461546D7
:105450002120FFF75DFFFF00FFB23846FFF758FF3E
:1054600007F107095FFA89F94846FFF751FF222043
:10547000FFF74EFF4FEA46085FFA88F84046FFF70D
:1054800047FF01367600F6B23046FFF741FF0024B1
:1054900004E00020FFF724FF0134E4B20F2CF8D918
:1054A0002120FFF735FF3846FFF732FF4846FFF768
:1054B0002FFF2220FFF72CFF4046FFF729FF304641
:1054C000FFF726FF002404E0285DFFF709FF013401
:1054D000E4B20F2CF8D9BDE8F883000008B5054BFD
:1054E0001860054B1868002302221946806800F0F6
:1054F000F5F808BD544E002090010020022801D884
:105500000120704708B500F059F809230360002016
:1055100008BD000010B5013801280AD814464FF024
:10552000FF3392B207480068FDF757FF40B92046A5
:1055300010BD00F043F8092303604FF0FF30F7E798
:105540000520F5E7544E0020022801D800207047BE
:1055500008B500F033F8092303604FF0FF3008BDB1
:1055600008B500F02BF8092303604FF0FF3008BDA9
:1055700008B548B94FF0FF33012208480068FDF72D
:1055800098FF40B9012008BD00F018F80923036016
:105590004FF0FF30F7E70520F5E700BF544E00203D
:1055A00008B5022804D84FF400534B60002008BD12
:1055B00000F004F809230360F8E70000014B1868C5
:1055C000704700BF9001002070B50D4E0D4D761B49
:1055D000B61006D0002455F8043B01349847A64283
:1055E000F9D1094E094D761B06F052F9B61006D0D6
:1055F000002455F8043B01349847A642F9D170BD08
:1056000060BE000860BE000868BE000860BE0008FA
:10561000830730B548D0541E002A3FD0CAB2034693
:1056200001E0013C3AD303F8012B9D07F9D1032C8B
:105630002DD9CDB245EA05250F2C45EA054536D9C9
:10564000A4F1100222F00F0C03F1200EE6444FEA01
:10565000121C03F1100242E9045542E902551032CE
:105660007245F8D10CF1010214F00C0F03EB021299
:1056700004F00F0C13D0ACF1040323F00303043344
:10568000134442F8045B9342FBD10CF003042CB1A9
:10569000CAB21C4403F8012B9C42FBD130BD6446C6
:1056A0001346002CF4D1F9E703461446BFE71A4627
:1056B000A446E0E70FB400B5074983B004AB08681F
:1056C00053F8042B8168019300F0E2F803B05DF811
:1056D00004EB04B0704700BF900100202DE9F043B7
:1056E000694CD4F8008083B004460E4617461D4628
:1056F000B8F1000F03D0D8F83830002B77D0022F44
:1057000005D0012F00F2AC80002DC0F2A980636E9D
:10571000DA0752D52146404603F008F8216B41B123
:1057200004F14003994202D0404603F02BF90023D4
:105730002363B4F90CC000231CF0800FA3616360E5
:1057400064D12CF44A6C2CF0030C022FA4F80CC08A
:105750006AD001AB6A462146404603F0B9FAA389F4
:105760001843A081002D2FD0002E2ED0D8F838302D
:10577000002B38D0009B2660AB42B4F90C301CBF24
:1057800043F40063A381012F04BF43F00103A3810D
:105790009AB213F00803C4E904652CD0D1075DD593
:1057A0006D42A561656E002315F00105A36027D049
:1057B0000025284603B0BDE8F083A3899B05A9D442
:1057C000A06D03F011FAA5E7009D284603F0B0FA9A
:1057D0000646002847D0A38943F08003A381D8F868
:1057E0003830002BC6D1404602F0D4FFC2E7404615
:1057F00002F0D0FF83E7A360656E15F00105D7D1F5
:10580000930524D5284603B0BDE8F08321694046BE
:1058100003F0B8F8B4F90CC02CF44A6C2CF0030C6B
:10582000022FA4F80CC094D10025002204F14303F8
:10583000A2600122C4E904322360636E4CF0020CC2
:10584000D807A4F80CC0DDD41CF4007FDAD1A06D19
:1058500003F0CCF9284603B0BDE8F083A560CBE7A0
:105860004FF0FF35CEE7DDF80090A94504D048465B
:1058700003F05EFA064620B9B4F90CC04FF0FF35CC
:10588000D3E74D46A7E700BF9001002000000000CD
:105890002DE9F04F2DED0A8BCFB01C460AEE101A01
:1058A00091460AEE900A054603F096F903681393B1
:1058B00018460994FAF724FF12901DB1AB6B002B28
:1058C00000F048821AEE102A536EDB0740F1478140
:1058D000B2F90C309AB2960409D41AEE101A43F4B5
:1058E00000538B819AB24B6E23F400534B6615071D
:1058F00040F1CC801AEE103A1B69002B00F0C680F4
:1059000002F01A030A2B00F0D2804D469FED9C7BDB
:105910002B78002425AACDE92344CDE91544CDE90F
:1059200017448DED107B1AEE909A0E9422929046B9
:1059300014940694002B00F0B081AB4604E01BF8F1
:10594000013F002B00F0CD80252BF8D1BBEB0506E5
:1059500040F0CB809BF80030002B00F09E810023AC
:105960004FF0FF329BF801708DF86B3005930BF10F
:10597000010B04929A462B2420210BF1010BA7F175
:1059800020035A2B00F20081DFE813F00A03FE0027
:10599000FE000503FE00FE00FE006A00FE00FE00A1
:1059A00076029E02FE008102A802FE00A3025B00B6
:1059B0005B005B005B005B005B005B005B005B000F
:1059C000FE00FE00FE00FE00FE00FE00FE008E0156
:1059D000FE001602ED018E018E018E01FE00FE001A
:1059E000FE00FE000003FE00FE004502FE00FE0079
:1059F000FE002002FE00C202FE00FE009907FE002B
:105A0000FE00FE00FE00FE00FE00FE00FE008E0115
:105A1000FE001602EF018E018E018E01E602EF01FB
:105A2000E801FE00F302FE0086024702D402E8010C
:105A3000FE0020027D007507FE00FE007907FE00D3
:105A40007D00A7F1300300221BF8017B02EB8202EC
:105A500003EB4202A7F13003092BF5D905928EE73B
:105A6000484603F0B9F8436817931846FAF748FE1A
:105A700018900646484603F0AFF883681593202136
:105A8000002E40F0E9869BF8007076E71AEE101AB7
:105A90001AEE900A1AEE105A01F002FD002841F0A9
:105AA0002783AA8902F01A030A2B7FF42EAF1AEE7D
:105AB000101AB1F90E30002BFFF627AF4B6ED90745
:105AC00002D4920541F15A811AEE101A1AEE900A88
:105AD00023464A464FB0BDEC0A8BBDE8F04F01F0BB
:105AE0009FBCBBEB050600F0D880249B3344249375
